{"contracts/PredictionMarketContract.sol":{"PredictionMarket":{"abi":[{"inputs":[{"internalType":"contract MOCH","name":"_token","type":"address"},{"internalType":"address","name":"_adminAddress","type":"address"},{"internalType":"address","name":"_operatorAddress","type":"address"},{"internalType":"uint256","name":"_minBetAmount","type":"uint256"},{"internalType":"uint256","name":"_treasuryFee","type":"uint256"}],"stateMutability":"nonpayable","type":"constructor"},{"anonymous":false,"inputs":[{"indexed":true,"internalType":"address","name":"sender","type":"address"},{"indexed":true,"internalType":"uint256","name":"round","type":"uint256"},{"indexed":false,"internalType":"uint256","name":"amount","type":"uint256"}],"name":"BetBear","type":"event"},{"anonymous":false,"inputs":[{"indexed":true,"internalType":"address","name":"sender","type":"address"},{"indexed":true,"internalType":"uint256","name":"round","type":"uint256"},{"indexed":false,"internalType":"uint256","name":"amount","type":"uint256"}],"name":"BetBull","type":"event"},{"anonymous":false,"inputs":[{"indexed":true,"internalType":"address","name":"sender","type":"address"},{"indexed":true,"internalType":"uint256","name":"round","type":"uint256"},{"indexed":false,"internalType":"uint256","name":"amount","type":"uint256"}],"name":"Claim","type":"event"},{"anonymous":false,"inputs":[{"indexed":true,"internalType":"uint256","name":"round","type":"uint256"},{"indexed":false,"internalType":"enum PredictionMarket.Outcome","name":"outcome","type":"uint8"}],"name":"EndRound","type":"event"},{"anonymous":false,"inputs":[{"indexed":false,"internalType":"address","name":"admin","type":"address"}],"name":"NewAdminAddress","type":"event"},{"anonymous":false,"inputs":[{"indexed":true,"internalType":"uint256","name":"round","type":"uint256"},{"indexed":false,"internalType":"uint256","name":"minBetAmount","type":"uint256"}],"name":"NewMinBetAmount","type":"event"},{"anonymous":false,"inputs":[{"indexed":false,"internalType":"address","name":"operator","type":"address"}],"name":"NewOperatorAddress","type":"event"},{"anonymous":false,"inputs":[{"indexed":true,"internalType":"uint256","name":"round","type":"uint256"},{"indexed":false,"internalType":"uint256","name":"treasuryFee","type":"uint256"}],"name":"NewTreasuryFee","type":"event"},{"anonymous":false,"inputs":[{"indexed":true,"internalType":"address","name":"previousOwner","type":"address"},{"indexed":true,"internalType":"address","name":"newOwner","type":"address"}],"name":"OwnershipTransferred","type":"event"},{"anonymous":false,"inputs":[{"indexed":true,"internalType":"uint256","name":"round","type":"uint256"}],"name":"Pause","type":"event"},{"anonymous":false,"inputs":[{"indexed":false,"internalType":"address","name":"account","type":"address"}],"name":"Paused","type":"event"},{"anonymous":false,"inputs":[{"indexed":true,"internalType":"uint256","name":"round","type":"uint256"},{"indexed":false,"internalType":"uint256","name":"rewardBaseCalAmount","type":"uint256"},{"indexed":false,"internalType":"uint256","name":"rewardAmount","type":"uint256"},{"indexed":false,"internalType":"uint256","name":"treasuryAmount","type":"uint256"}],"name":"RewardsCalculated","type":"event"},{"anonymous":false,"inputs":[{"indexed":true,"internalType":"uint256","name":"round","type":"uint256"}],"name":"StartRound","type":"event"},{"anonymous":false,"inputs":[{"indexed":true,"internalType":"address","name":"token","type":"address"},{"indexed":false,"internalType":"uint256","name":"amount","type":"uint256"}],"name":"TokenRecovery","type":"event"},{"anonymous":false,"inputs":[{"indexed":false,"internalType":"uint256","name":"amount","type":"uint256"}],"name":"TreasuryClaim","type":"event"},{"anonymous":false,"inputs":[{"indexed":true,"internalType":"uint256","name":"round","type":"uint256"}],"name":"Unpause","type":"event"},{"anonymous":false,"inputs":[{"indexed":false,"internalType":"address","name":"account","type":"address"}],"name":"Unpaused","type":"event"},{"inputs":[],"name":"MAX_TREASURY_FEE","outputs":[{"internalType":"uint256","name":"","type":"uint256"}],"stateMutability":"view","type":"function"},{"inputs":[],"name":"adminAddress","outputs":[{"internalType":"address","name":"","type":"address"}],"stateMutability":"view","type":"function"},{"inputs":[{"internalType":"uint256","name":"epoch","type":"uint256"},{"internalType":"uint256","name":"_amount","type":"uint256"}],"name":"betBear","outputs":[],"stateMutability":"nonpayable","type":"function"},{"inputs":[{"internalType":"uint256","name":"epoch","type":"uint256"},{"internalType":"uint256","name":"_amount","type":"uint256"}],"name":"betBull","outputs":[],"stateMutability":"nonpayable","type":"function"},{"inputs":[{"internalType":"uint256[]","name":"epochs","type":"uint256[]"}],"name":"claim","outputs":[],"stateMutability":"nonpayable","type":"function"},{"inputs":[],"name":"claimTreasury","outputs":[],"stateMutability":"nonpayable","type":"function"},{"inputs":[{"internalType":"uint256","name":"epoch","type":"uint256"},{"internalType":"address","name":"user","type":"address"}],"name":"claimable","outputs":[{"internalType":"bool","name":"","type":"bool"}],"stateMutability":"view","type":"function"},{"inputs":[{"internalType":"uint256","name":"_epochToEnd","type":"uint256"},{"internalType":"enum PredictionMarket.Outcome","name":"_outcome","type":"uint8"}],"name":"closeRound","outputs":[],"stateMutability":"nonpayable","type":"function"},{"inputs":[],"name":"currentRound","outputs":[{"internalType":"uint256","name":"","type":"uint256"}],"stateMutability":"view","type":"function"},{"inputs":[{"internalType":"address","name":"user","type":"address"},{"internalType":"uint256","name":"cursor","type":"uint256"},{"internalType":"uint256","name":"size","type":"uint256"}],"name":"getUserRounds","outputs":[{"internalType":"uint256[]","name":"","type":"uint256[]"},{"components":[{"internalType":"enum PredictionMarket.Position","name":"position","type":"uint8"},{"internalType":"uint256","name":"amount","type":"uint256"},{"internalType":"bool","name":"claimed","type":"bool"}],"internalType":"struct PredictionMarket.BetInfo[]","name":"","type":"tuple[]"},{"internalType":"uint256","name":"","type":"uint256"}],"stateMutability":"view","type":"function"},{"inputs":[{"internalType":"address","name":"user","type":"address"}],"name":"getUserRoundsLength","outputs":[{"internalType":"uint256","name":"","type":"uint256"}],"stateMutability":"view","type":"function"},{"inputs":[{"internalType":"uint256","name":"","type":"uint256"},{"internalType":"address","name":"","type":"address"}],"name":"ledger","outputs":[{"internalType":"enum PredictionMarket.Position","name":"position","type":"uint8"},{"internalType":"uint256","name":"amount","type":"uint256"},{"internalType":"bool","name":"claimed","type":"bool"}],"stateMutability":"view","type":"function"},{"inputs":[],"name":"minBetAmount","outputs":[{"internalType":"uint256","name":"","type":"uint256"}],"stateMutability":"view","type":"function"},{"inputs":[],"name":"moch","outputs":[{"internalType":"contract MOCH","name":"","type":"address"}],"stateMutability":"view","type":"function"},{"inputs":[],"name":"operatorAddress","outputs":[{"internalType":"address","name":"","type":"address"}],"stateMutability":"view","type":"function"},{"inputs":[],"name":"owner","outputs":[{"internalType":"address","name":"","type":"address"}],"stateMutability":"view","type":"function"},{"inputs":[],"name":"pause","outputs":[],"stateMutability":"nonpayable","type":"function"},{"inputs":[],"name":"paused","outputs":[{"internalType":"bool","name":"","type":"bool"}],"stateMutability":"view","type":"function"},{"inputs":[{"internalType":"address","name":"_token","type":"address"},{"internalType":"uint256","name":"_amount","type":"uint256"}],"name":"recoverToken","outputs":[],"stateMutability":"nonpayable","type":"function"},{"inputs":[],"name":"renounceOwnership","outputs":[],"stateMutability":"nonpayable","type":"function"},{"inputs":[{"internalType":"uint256","name":"","type":"uint256"}],"name":"rounds","outputs":[{"internalType":"uint256","name":"epoch","type":"uint256"},{"internalType":"uint256","name":"startTimestamp","type":"uint256"},{"internalType":"uint256","name":"lockTimestamp","type":"uint256"},{"internalType":"uint256","name":"closeTimestamp","type":"uint256"},{"internalType":"uint256","name":"totalAmount","type":"uint256"},{"internalType":"uint256","name":"bullAmount","type":"uint256"},{"internalType":"uint256","name":"bearAmount","type":"uint256"},{"internalType":"uint256","name":"rewardBaseCalAmount","type":"uint256"},{"internalType":"uint256","name":"rewardAmount","type":"uint256"},{"internalType":"bool","name":"roundClosed","type":"bool"},{"internalType":"enum PredictionMarket.Outcome","name":"outcome","type":"uint8"}],"stateMutability":"view","type":"function"},{"inputs":[{"internalType":"address","name":"_adminAddress","type":"address"}],"name":"setAdmin","outputs":[],"stateMutability":"nonpayable","type":"function"},{"inputs":[{"internalType":"uint256","name":"_minBetAmount","type":"uint256"}],"name":"setMinBetAmount","outputs":[],"stateMutability":"nonpayable","type":"function"},{"inputs":[{"internalType":"address","name":"_operatorAddress","type":"address"}],"name":"setOperator","outputs":[],"stateMutability":"nonpayable","type":"function"},{"inputs":[{"internalType":"uint256","name":"_treasuryFee","type":"uint256"}],"name":"setTreasuryFee","outputs":[],"stateMutability":"nonpayable","type":"function"},{"inputs":[{"internalType":"uint256","name":"_lockTimestamp","type":"uint256"},{"internalType":"uint256","name":"_closeTimestamp","type":"uint256"}],"name":"startNewRound","outputs":[],"stateMutability":"nonpayable","type":"function"},{"inputs":[{"internalType":"address","name":"newOwner","type":"address"}],"name":"transferOwnership","outputs":[],"stateMutability":"nonpayable","type":"function"},{"inputs":[],"name":"treasuryAmount","outputs":[{"internalType":"uint256","name":"","type":"uint256"}],"stateMutability":"view","type":"function"},{"inputs":[],"name":"treasuryFee","outputs":[{"internalType":"uint256","name":"","type":"uint256"}],"stateMutability":"view","type":"function"},{"inputs":[],"name":"unpause","outputs":[],"stateMutability":"nonpayable","type":"function"},{"inputs":[{"internalType":"address","name":"","type":"address"},{"internalType":"uint256","name":"","type":"uint256"}],"name":"userRounds","outputs":[{"internalType":"uint256","name":"","type":"uint256"}],"stateMutability":"view","type":"function"}],"evm":{"bytecode":{"linkReferences":{},"object":"60806040523480156200001157600080fd5b5060405162004c0038038062004c00833981810160405281019062000037919062000366565b620000576200004b6200019c60201b60201c565b620001a460201b60201c565b60008060146101000a81548160ff021916908315150217905550600180819055506103e8811115620000c0576040517f08c379a0000000000000000000000000000000000000000000000000000000008152600401620000b7906200044f565b60405180910390fd5b84600260006101000a81548173ffffffffffffffffffffffffffffffffffffffff021916908373ffffffffffffffffffffffffffffffffffffffff16021790555083600360006101000a81548173ffffffffffffffffffffffffffffffffffffffff021916908373ffffffffffffffffffffffffffffffffffffffff16021790555082600460006101000a81548173ffffffffffffffffffffffffffffffffffffffff021916908373ffffffffffffffffffffffffffffffffffffffff1602179055508160058190555080600681905550505050505062000471565b600033905090565b60008060009054906101000a900473ffffffffffffffffffffffffffffffffffffffff169050816000806101000a81548173ffffffffffffffffffffffffffffffffffffffff021916908373ffffffffffffffffffffffffffffffffffffffff1602179055508173ffffffffffffffffffffffffffffffffffffffff168173ffffffffffffffffffffffffffffffffffffffff167f8be0079c531659141344cd1fd0a4f28419497f9722a3daafe3b4186f6b6457e060405160405180910390a35050565b600080fd5b600073ffffffffffffffffffffffffffffffffffffffff82169050919050565b60006200029a826200026d565b9050919050565b6000620002ae826200028d565b9050919050565b620002c081620002a1565b8114620002cc57600080fd5b50565b600081519050620002e081620002b5565b92915050565b6000620002f3826200026d565b9050919050565b6200030581620002e6565b81146200031157600080fd5b50565b6000815190506200032581620002fa565b92915050565b6000819050919050565b62000340816200032b565b81146200034c57600080fd5b50565b600081519050620003608162000335565b92915050565b600080600080600060a0868803121562000385576200038462000268565b5b60006200039588828901620002cf565b9550506020620003a88882890162000314565b9450506040620003bb8882890162000314565b9350506060620003ce888289016200034f565b9250506080620003e1888289016200034f565b9150509295509295909350565b600082825260208201905092915050565b7f54726561737572792066656520746f6f20686967680000000000000000000000600082015250565b600062000437601583620003ee565b91506200044482620003ff565b602082019050919050565b600060208201905081810360008301526200046a8162000428565b9050919050565b61477f80620004816000396000f3fe608060405234801561001057600080fd5b50600436106101e45760003560e01c806377e741c71161010f578063b3ab15fb116100a2578063f2b3c80911610071578063f2b3c80914610529578063f2fde38b14610547578063fa968eea14610563578063fc6f946814610581576101e4565b8063b3ab15fb146104a3578063c89c1a89146104bf578063cc32d176146104db578063dd1f7596146104f9576101e4565b80638da5cb5b116100de5780638da5cb5b14610407578063951fd60014610425578063a0c7f71c14610457578063b29a814014610487576101e4565b806377e741c7146103895780638456cb59146103a55780638a19c8bc146103af5780638c65c81f146103cd576101e4565b80633f4ba83a116101875780636c188593116101565780636c18859314610315578063704b6c0214610331578063715018a61461034d5780637285c58b14610357576101e4565b80633f4ba83a146102b35780634fe402b5146102bd5780635c975abb146102db5780636ba4c138146102f9576101e4565b8063127effb2116101c3578063127effb21461022b578063273867d414610249578063368acb09146102795780633923e1b414610297576101e4565b80623bdc74146101e9578063040ae259146101f35780630e89e5a41461020f575b600080fd5b6101f161059f565b005b61020d6004803603810190610208919061309e565b61075a565b005b6102296004803603810190610224919061309e565b610908565b005b610233610d3e565b604051610240919061311f565b60405180910390f35b610263600480360381019061025e9190613166565b610d64565b60405161027091906131a2565b60405180910390f35b610281610db0565b60405161028e91906131a2565b60405180910390f35b6102b160048036038101906102ac919061309e565b610db6565b005b6102bb6111ec565b005b6102c5611315565b6040516102d2919061321c565b60405180910390f35b6102e361133b565b6040516102f09190613252565b60405180910390f35b610313600480360381019061030e91906132d2565b611351565b005b61032f600480360381019061032a919061331f565b611900565b005b61034b60048036038101906103469190613166565b611a22565b005b610355611b15565b005b610371600480360381019061036c919061334c565b611b29565b60405161038093929190613403565b60405180910390f35b6103a3600480360381019061039e919061331f565b611b7a565b005b6103ad611c9d565b005b6103b7611dc6565b6040516103c491906131a2565b60405180910390f35b6103e760048036038101906103e2919061331f565b611dcc565b6040516103fe9b9a99989796959493929190613482565b60405180910390f35b61040f611e40565b60405161041c919061311f565b60405180910390f35b61043f600480360381019061043a919061352d565b611e69565b60405161044e9392919061374d565b60405180910390f35b610471600480360381019061046c919061334c565b612175565b60405161047e9190613252565b60405180910390f35b6104a1600480360381019061049c9190613792565b612444565b005b6104bd60048036038101906104b89190613166565b6125bd565b005b6104d960048036038101906104d491906137f7565b612738565b005b6104e3612890565b6040516104f091906131a2565b60405180910390f35b610513600480360381019061050e9190613792565b612896565b60405161052091906131a2565b60405180910390f35b6105316128c7565b60405161053e91906131a2565b60405180910390f35b610561600480360381019061055c9190613166565b6128cd565b005b61056b612951565b60405161057891906131a2565b60405180910390f35b610589612957565b604051610596919061311f565b60405180910390f35b6105a761297d565b600360009054906101000a900473ffffffffffffffffffffffffffffffffffffffff1673ffffffffffffffffffffffffffffffffffffffff163373ffffffffffffffffffffffffffffffffffffffff1614610637576040517f08c379a000000000000000000000000000000000000000000000000000000000815260040161062e90613894565b60405180910390fd5b600060075490506000600781905550600260009054906101000a900473ffffffffffffffffffffffffffffffffffffffff1673ffffffffffffffffffffffffffffffffffffffff1663a9059cbb600360009054906101000a900473ffffffffffffffffffffffffffffffffffffffff16836040518363ffffffff1660e01b81526004016106c59291906138b4565b602060405180830381600087803b1580156106df57600080fd5b505af11580156106f3573d6000803e3d6000fd5b505050506040513d601f19601f820116820180604052508101906107179190613909565b507fb9197c6b8e21274bd1e2d9c956a88af5cfee510f630fab3f046300f88b4223618160405161074791906131a2565b60405180910390a1506107586129cd565b565b6107626129d6565b600460009054906101000a900473ffffffffffffffffffffffffffffffffffffffff1673ffffffffffffffffffffffffffffffffffffffff163373ffffffffffffffffffffffffffffffffffffffff16146107f2576040517f08c379a00000000000000000000000000000000000000000000000000000000081526004016107e990613982565b60405180910390fd5b428211610834576040517f08c379a000000000000000000000000000000000000000000000000000000000815260040161082b90613a14565b60405180910390fd5b808210610876576040517f08c379a000000000000000000000000000000000000000000000000000000000815260040161086d90613aa6565b60405180910390fd5b60016008546108859190613af5565b6008819055506000600a6000600854815260200190815260200160002090504281600101819055508281600201819055508181600301819055506008548160000181905550600081600401819055506008547f939f42374aa9bf1d8d8cd56d8a9110cb040cd8dfeae44080c6fcf2645e51b45260405160405180910390a2505050565b6109106129d6565b61091861297d565b61092133612a20565b15610961576040517f08c379a000000000000000000000000000000000000000000000000000000000815260040161095890613b97565b60405180910390fd5b3273ffffffffffffffffffffffffffffffffffffffff163373ffffffffffffffffffffffffffffffffffffffff16146109cf576040517f08c379a00000000000000000000000000000000000000000000000000000000081526004016109c690613c03565b60405180910390fd5b6109d882612a33565b610a17576040517f08c379a0000000000000000000000000000000000000000000000000000000008152600401610a0e90613c6f565b60405180910390fd5b600554811015610a5c576040517f08c379a0000000000000000000000000000000000000000000000000000000008152600401610a5390613d01565b60405180910390fd5b60006009600084815260200190815260200160002060003373ffffffffffffffffffffffffffffffffffffffff1673ffffffffffffffffffffffffffffffffffffffff1681526020019081526020016000206001015414610af2576040517f08c379a0000000000000000000000000000000000000000000000000000000008152600401610ae990613d6d565b60405180910390fd5b600260009054906101000a900473ffffffffffffffffffffffffffffffffffffffff1673ffffffffffffffffffffffffffffffffffffffff166323b872dd3330846040518463ffffffff1660e01b8152600401610b5193929190613d8d565b602060405180830381600087803b158015610b6b57600080fd5b505af1158015610b7f573d6000803e3d6000fd5b505050506040513d601f19601f82011682018060405250810190610ba39190613909565b5060008190506000600a60008581526020019081526020016000209050818160040154610bd09190613af5565b8160040181905550818160060154610be89190613af5565b816006018190555060006009600086815260200190815260200160002060003373ffffffffffffffffffffffffffffffffffffffff1673ffffffffffffffffffffffffffffffffffffffff168152602001908152602001600020905060018160000160006101000a81548160ff02191690836001811115610c6c57610c6b61338c565b5b0217905550828160010181905550600b60003373ffffffffffffffffffffffffffffffffffffffff1673ffffffffffffffffffffffffffffffffffffffff168152602001908152602001600020859080600181540180825580915050600190039060005260206000200160009091909190915055843373ffffffffffffffffffffffffffffffffffffffff167f0d8c1fe3e67ab767116a81f122b83c2557a8c2564019cb7c4f83de1aeb1f1f0d85604051610d2791906131a2565b60405180910390a3505050610d3a6129cd565b5050565b600460009054906101000a900473ffffffffffffffffffffffffffffffffffffffff1681565b6000600b60008373ffffffffffffffffffffffffffffffffffffffff1673ffffffffffffffffffffffffffffffffffffffff168152602001908152602001600020805490509050919050565b60075481565b610dbe6129d6565b610dc661297d565b610dcf33612a20565b15610e0f576040517f08c379a0000000000000000000000000000000000000000000000000000000008152600401610e0690613b97565b60405180910390fd5b3273ffffffffffffffffffffffffffffffffffffffff163373ffffffffffffffffffffffffffffffffffffffff1614610e7d576040517f08c379a0000000000000000000000000000000000000000000000000000000008152600401610e7490613c03565b60405180910390fd5b610e8682612a33565b610ec5576040517f08c379a0000000000000000000000000000000000000000000000000000000008152600401610ebc90613c6f565b60405180910390fd5b600554811015610f0a576040517f08c379a0000000000000000000000000000000000000000000000000000000008152600401610f0190613d01565b60405180910390fd5b60006009600084815260200190815260200160002060003373ffffffffffffffffffffffffffffffffffffffff1673ffffffffffffffffffffffffffffffffffffffff1681526020019081526020016000206001015414610fa0576040517f08c379a0000000000000000000000000000000000000000000000000000000008152600401610f9790613d6d565b60405180910390fd5b600260009054906101000a900473ffffffffffffffffffffffffffffffffffffffff1673ffffffffffffffffffffffffffffffffffffffff166323b872dd3330846040518463ffffffff1660e01b8152600401610fff93929190613d8d565b602060405180830381600087803b15801561101957600080fd5b505af115801561102d573d6000803e3d6000fd5b505050506040513d601f19601f820116820180604052508101906110519190613909565b5060008190506000600a6000858152602001908152602001600020905081816004015461107e9190613af5565b81600401819055508181600501546110969190613af5565b816005018190555060006009600086815260200190815260200160002060003373ffffffffffffffffffffffffffffffffffffffff1673ffffffffffffffffffffffffffffffffffffffff168152602001908152602001600020905060008160000160006101000a81548160ff0219169083600181111561111a5761111961338c565b5b0217905550828160010181905550600b60003373ffffffffffffffffffffffffffffffffffffffff1673ffffffffffffffffffffffffffffffffffffffff168152602001908152602001600020859080600181540180825580915050600190039060005260206000200160009091909190915055843373ffffffffffffffffffffffffffffffffffffffff167f438122d8cff518d18388099a5181f0d17a12b4f1b55faedf6e4a6acee0060c12856040516111d591906131a2565b60405180910390a35050506111e86129cd565b5050565b6111f4612abb565b600360009054906101000a900473ffffffffffffffffffffffffffffffffffffffff1673ffffffffffffffffffffffffffffffffffffffff163373ffffffffffffffffffffffffffffffffffffffff16148061129d5750600460009054906101000a900473ffffffffffffffffffffffffffffffffffffffff1673ffffffffffffffffffffffffffffffffffffffff163373ffffffffffffffffffffffffffffffffffffffff16145b6112dc576040517f08c379a00000000000000000000000000000000000000000000000000000000081526004016112d390613e10565b60405180910390fd5b6112e4612b04565b6008547faaa520fdd7d2c83061d632fa017b0432407e798818af63ea908589fceda39ab760405160405180910390a2565b600260009054906101000a900473ffffffffffffffffffffffffffffffffffffffff1681565b60008060149054906101000a900460ff16905090565b61135961297d565b61136233612a20565b156113a2576040517f08c379a000000000000000000000000000000000000000000000000000000000815260040161139990613b97565b60405180910390fd5b3273ffffffffffffffffffffffffffffffffffffffff163373ffffffffffffffffffffffffffffffffffffffff1614611410576040517f08c379a000000000000000000000000000000000000000000000000000000000815260040161140790613c03565b60405180910390fd5b600080600090505b83839050811015611838576000600a600086868581811061143c5761143b613e30565b5b905060200201358152602001908152602001600020600101541415611496576040517f08c379a000000000000000000000000000000000000000000000000000000000815260040161148d90613eab565b60405180910390fd5b600a60008585848181106114ad576114ac613e30565b5b905060200201358152602001908152602001600020600301544211611507576040517f08c379a00000000000000000000000000000000000000000000000000000000081526004016114fe90613f17565b60405180910390fd5b6000600a60008686858181106115205761151f613e30565b5b90506020020135815260200190815260200160002060090160009054906101000a900460ff16156117295761156e85858481811061156157611560613e30565b5b9050602002013533612175565b6115ad576040517f08c379a00000000000000000000000000000000000000000000000000000000081526004016115a490613f83565b60405180910390fd5b6000600a60008787868181106115c6576115c5613e30565b5b905060200201358152602001908152602001600020604051806101600160405290816000820154815260200160018201548152602001600282015481526020016003820154815260200160048201548152602001600582015481526020016006820154815260200160078201548152602001600882015481526020016009820160009054906101000a900460ff161515151581526020016009820160019054906101000a900460ff1660028111156116815761168061338c565b5b60028111156116935761169261338c565b5b8152505090508060e00151816101000151600960008989888181106116bb576116ba613e30565b5b90506020020135815260200190815260200160002060003373ffffffffffffffffffffffffffffffffffffffff1673ffffffffffffffffffffffffffffffffffffffff1681526020019081526020016000206001015461171b9190613fa3565b611725919061402c565b9150505b60016009600087878681811061174257611741613e30565b5b90506020020135815260200190815260200160002060003373ffffffffffffffffffffffffffffffffffffffff1673ffffffffffffffffffffffffffffffffffffffff16815260200190815260200160002060020160006101000a81548160ff02191690831515021790555080836117ba9190613af5565b92508484838181106117cf576117ce613e30565b5b905060200201353373ffffffffffffffffffffffffffffffffffffffff167f34fcbac0073d7c3d388e51312faf357774904998eeb8fca628b9e6f65ee1cbf78360405161181c91906131a2565b60405180910390a35080806118309061405d565b915050611418565b5060008111156118f357600260009054906101000a900473ffffffffffffffffffffffffffffffffffffffff1673ffffffffffffffffffffffffffffffffffffffff1663a9059cbb33836040518363ffffffff1660e01b815260040161189f9291906138b4565b602060405180830381600087803b1580156118b957600080fd5b505af11580156118cd573d6000803e3d6000fd5b505050506040513d601f19601f820116820180604052508101906118f19190613909565b505b506118fc6129cd565b5050565b611908612abb565b600360009054906101000a900473ffffffffffffffffffffffffffffffffffffffff1673ffffffffffffffffffffffffffffffffffffffff163373ffffffffffffffffffffffffffffffffffffffff1614611998576040517f08c379a000000000000000000000000000000000000000000000000000000000815260040161198f90613894565b60405180910390fd5b60008114156119dc576040517f08c379a00000000000000000000000000000000000000000000000000000000081526004016119d3906140f2565b60405180910390fd5b806005819055506008547f90eb87c560a0213754ceb3a7fa3012f01acab0a35602c1e1995adf69dabc9d50600554604051611a1791906131a2565b60405180910390a250565b611a2a612b66565b600073ffffffffffffffffffffffffffffffffffffffff168173ffffffffffffffffffffffffffffffffffffffff161415611a9a576040517f08c379a0000000000000000000000000000000000000000000000000000000008152600401611a919061415e565b60405180910390fd5b80600360006101000a81548173ffffffffffffffffffffffffffffffffffffffff021916908373ffffffffffffffffffffffffffffffffffffffff1602179055507f137b621413925496477d46e5055ac0d56178bdd724ba8bf843afceef18268ba381604051611b0a919061311f565b60405180910390a150565b611b1d612b66565b611b276000612be4565b565b6009602052816000526040600020602052806000526040600020600091509150508060000160009054906101000a900460ff16908060010154908060020160009054906101000a900460ff16905083565b611b82612abb565b600360009054906101000a900473ffffffffffffffffffffffffffffffffffffffff1673ffffffffffffffffffffffffffffffffffffffff163373ffffffffffffffffffffffffffffffffffffffff1614611c12576040517f08c379a0000000000000000000000000000000000000000000000000000000008152600401611c0990613894565b60405180910390fd5b6103e8811115611c57576040517f08c379a0000000000000000000000000000000000000000000000000000000008152600401611c4e906141ca565b60405180910390fd5b806006819055506008547fb1c4ee38d35556741133da7ff9b6f7ab0fa88d0406133126ff128f635490a857600654604051611c9291906131a2565b60405180910390a250565b611ca56129d6565b600360009054906101000a900473ffffffffffffffffffffffffffffffffffffffff1673ffffffffffffffffffffffffffffffffffffffff163373ffffffffffffffffffffffffffffffffffffffff161480611d4e5750600460009054906101000a900473ffffffffffffffffffffffffffffffffffffffff1673ffffffffffffffffffffffffffffffffffffffff163373ffffffffffffffffffffffffffffffffffffffff16145b611d8d576040517f08c379a0000000000000000000000000000000000000000000000000000000008152600401611d8490613e10565b60405180910390fd5b611d95612ca8565b6008547f68b095021b1f40fe513109f513c66692f0b3219aee674a69f4efc57badb8201d60405160405180910390a2565b60085481565b600a6020528060005260406000206000915090508060000154908060010154908060020154908060030154908060040154908060050154908060060154908060070154908060080154908060090160009054906101000a900460ff16908060090160019054906101000a900460ff1690508b565b60008060009054906101000a900473ffffffffffffffffffffffffffffffffffffffff16905090565b60608060008084905085600b60008973ffffffffffffffffffffffffffffffffffffffff1673ffffffffffffffffffffffffffffffffffffffff16815260200190815260200160002080549050611ec091906141ea565b811115611f185785600b60008973ffffffffffffffffffffffffffffffffffffffff1673ffffffffffffffffffffffffffffffffffffffff16815260200190815260200160002080549050611f1591906141ea565b90505b60008167ffffffffffffffff811115611f3457611f3361421e565b5b604051908082528060200260200182016040528015611f625781602001602082028036833780820191505090505b50905060008267ffffffffffffffff811115611f8157611f8061421e565b5b604051908082528060200260200182016040528015611fba57816020015b611fa7613029565b815260200190600190039081611f9f5790505b50905060005b8381101561215457600b60008b73ffffffffffffffffffffffffffffffffffffffff1673ffffffffffffffffffffffffffffffffffffffff168152602001908152602001600020818a6120139190613af5565b8154811061202457612023613e30565b5b906000526020600020015483828151811061204257612041613e30565b5b6020026020010181815250506009600084838151811061206557612064613e30565b5b6020026020010151815260200190815260200160002060008b73ffffffffffffffffffffffffffffffffffffffff1673ffffffffffffffffffffffffffffffffffffffff1681526020019081526020016000206040518060600160405290816000820160009054906101000a900460ff1660018111156120e8576120e761338c565b5b60018111156120fa576120f961338c565b5b8152602001600182015481526020016002820160009054906101000a900460ff16151515158152505082828151811061213657612135613e30565b5b6020026020010181905250808061214c9061405d565b915050611fc0565b508181848a6121639190613af5565b95509550955050505093509350939050565b6000806009600085815260200190815260200160002060008473ffffffffffffffffffffffffffffffffffffffff1673ffffffffffffffffffffffffffffffffffffffff1681526020019081526020016000206040518060600160405290816000820160009054906101000a900460ff1660018111156121f8576121f761338c565b5b600181111561220a5761220961338c565b5b8152602001600182015481526020016002820160009054906101000a900460ff16151515158152505090506000600a6000868152602001908152602001600020604051806101600160405290816000820154815260200160018201548152602001600282015481526020016003820154815260200160048201548152602001600582015481526020016006820154815260200160078201548152602001600882015481526020016009820160009054906101000a900460ff161515151581526020016009820160019054906101000a900460ff1660028111156122f0576122ef61338c565b5b60028111156123025761230161338c565b5b81525050905060028081111561231b5761231a61338c565b5b81610140015160028111156123335761233261338c565b5b14156123445760009250505061243e565b806101200151801561235b57506000826020015114155b801561236957508160400151155b80156124395750600060028111156123845761238361338c565b5b816101400151600281111561239c5761239b61338c565b5b1480156123d15750600060018111156123b8576123b761338c565b5b826000015160018111156123cf576123ce61338c565b5b145b806124385750600160028111156123eb576123ea61338c565b5b81610140015160028111156124035761240261338c565b5b148015612437575060018081111561241e5761241d61338c565b5b826000015160018111156124355761243461338c565b5b145b5b5b925050505b92915050565b61244c612b66565b600260009054906101000a900473ffffffffffffffffffffffffffffffffffffffff1673ffffffffffffffffffffffffffffffffffffffff168273ffffffffffffffffffffffffffffffffffffffff1614156124dd576040517f08c379a00000000000000000000000000000000000000000000000000000000081526004016124d4906142bf565b60405180910390fd5b8173ffffffffffffffffffffffffffffffffffffffff1663a9059cbb33836040518363ffffffff1660e01b81526004016125189291906138b4565b602060405180830381600087803b15801561253257600080fd5b505af1158015612546573d6000803e3d6000fd5b505050506040513d601f19601f8201168201806040525081019061256a9190613909565b508173ffffffffffffffffffffffffffffffffffffffff167f14f11966a996e0629572e51064726d2057a80fbd34efc066682c06a71dbb6e98826040516125b191906131a2565b60405180910390a25050565b600360009054906101000a900473ffffffffffffffffffffffffffffffffffffffff1673ffffffffffffffffffffffffffffffffffffffff163373ffffffffffffffffffffffffffffffffffffffff161461264d576040517f08c379a000000000000000000000000000000000000000000000000000000000815260040161264490613894565b60405180910390fd5b600073ffffffffffffffffffffffffffffffffffffffff168173ffffffffffffffffffffffffffffffffffffffff1614156126bd576040517f08c379a00000000000000000000000000000000000000000000000000000000081526004016126b49061415e565b60405180910390fd5b80600460006101000a81548173ffffffffffffffffffffffffffffffffffffffff021916908373ffffffffffffffffffffffffffffffffffffffff1602179055507fc47d127c07bdd56c5ccba00463ce3bd3c1bca71b4670eea6e5d0c02e4aa156e28160405161272d919061311f565b60405180910390a150565b6127406129d6565b600460009054906101000a900473ffffffffffffffffffffffffffffffffffffffff1673ffffffffffffffffffffffffffffffffffffffff163373ffffffffffffffffffffffffffffffffffffffff16146127d0576040517f08c379a00000000000000000000000000000000000000000000000000000000081526004016127c790613982565b60405180910390fd5b600854821115612815576040517f08c379a000000000000000000000000000000000000000000000000000000000815260040161280c9061432b565b60405180910390fd5b600a600083815260200190815260200160002060090160009054906101000a900460ff1615612879576040517f08c379a000000000000000000000000000000000000000000000000000000000815260040161287090614397565b60405180910390fd5b6128838282612d0b565b61288c82612e12565b5050565b60065481565b600b60205281600052604060002081815481106128b257600080fd5b90600052602060002001600091509150505481565b6103e881565b6128d5612b66565b600073ffffffffffffffffffffffffffffffffffffffff168173ffffffffffffffffffffffffffffffffffffffff161415612945576040517f08c379a000000000000000000000000000000000000000000000000000000000815260040161293c90614429565b60405180910390fd5b61294e81612be4565b50565b60055481565b600360009054906101000a900473ffffffffffffffffffffffffffffffffffffffff1681565b600260015414156129c3576040517f08c379a00000000000000000000000000000000000000000000000000000000081526004016129ba90614495565b60405180910390fd5b6002600181905550565b60018081905550565b6129de61133b565b15612a1e576040517f08c379a0000000000000000000000000000000000000000000000000000000008152600401612a1590614501565b60405180910390fd5b565b600080823b905060008111915050919050565b600080600a60008481526020019081526020016000206001015414158015612a7257506000600a60008481526020019081526020016000206002015414155b8015612a935750600a60008381526020019081526020016000206001015442115b8015612ab45750600a60008381526020019081526020016000206002015442105b9050919050565b612ac361133b565b612b02576040517f08c379a0000000000000000000000000000000000000000000000000000000008152600401612af99061456d565b60405180910390fd5b565b612b0c612abb565b60008060146101000a81548160ff0219169083151502179055507f5db9ee0a495bf2e6ff9c91a7834c1ba4fdd244a5e8aa4e537bd38aeae4b073aa612b4f613021565b604051612b5c919061311f565b60405180910390a1565b612b6e613021565b73ffffffffffffffffffffffffffffffffffffffff16612b8c611e40565b73ffffffffffffffffffffffffffffffffffffffff1614612be2576040517f08c379a0000000000000000000000000000000000000000000000000000000008152600401612bd9906145d9565b60405180910390fd5b565b60008060009054906101000a900473ffffffffffffffffffffffffffffffffffffffff169050816000806101000a81548173ffffffffffffffffffffffffffffffffffffffff021916908373ffffffffffffffffffffffffffffffffffffffff1602179055508173ffffffffffffffffffffffffffffffffffffffff168173ffffffffffffffffffffffffffffffffffffffff167f8be0079c531659141344cd1fd0a4f28419497f9722a3daafe3b4186f6b6457e060405160405180910390a35050565b612cb06129d6565b6001600060146101000a81548160ff0219169083151502179055507f62e78cea01bee320cd4e420270b5ea74000d11b0c9f74754ebdbfc544b05a258612cf4613021565b604051612d01919061311f565b60405180910390a1565b600a600083815260200190815260200160002060030154421015612d64576040517f08c379a0000000000000000000000000000000000000000000000000000000008152600401612d5b9061466b565b60405180910390fd5b6000600a60008481526020019081526020016000209050818160090160016101000a81548160ff02191690836002811115612da257612da161338c565b5b021790555060018160090160006101000a81548160ff021916908315150217905550827fd91cafda889a8123e29d543803c1e45746936ddae8d882ec23c5b0e8d394aecd8260090160019054906101000a900460ff16604051612e05919061468b565b60405180910390a2505050565b6000600a600083815260200190815260200160002060070154148015612e4e57506000600a600083815260200190815260200160002060080154145b612e8d576040517f08c379a0000000000000000000000000000000000000000000000000000000008152600401612e84906146f2565b60405180910390fd5b6000600a600083815260200190815260200160002090506000806000806002811115612ebc57612ebb61338c565b5b8460090160019054906101000a900460ff166002811115612ee057612edf61338c565b5b1415612f2557836005015492506127106006548560040154612f029190613fa3565b612f0c919061402c565b9150818460040154612f1e91906141ea565b9050612fb3565b60016002811115612f3957612f3861338c565b5b8460090160019054906101000a900460ff166002811115612f5d57612f5c61338c565b5b1415612fa257836006015492506127106006548560040154612f7f9190613fa3565b612f89919061402c565b9150818460040154612f9b91906141ea565b9050612fb2565b6000925060009050836004015491505b5b8284600701819055508084600801819055508160076000828254612fd79190613af5565b92505081905550847f6dfdfcb09c8804d0058826cd2539f1acfbe3cb887c9be03d928035bce0f1a58d84838560405161301293929190614712565b60405180910390a25050505050565b600033905090565b6040518060600160405280600060018111156130485761304761338c565b5b8152602001600081526020016000151581525090565b600080fd5b600080fd5b6000819050919050565b61307b81613068565b811461308657600080fd5b50565b60008135905061309881613072565b92915050565b600080604083850312156130b5576130b461305e565b5b60006130c385828601613089565b92505060206130d485828601613089565b9150509250929050565b600073ffffffffffffffffffffffffffffffffffffffff82169050919050565b6000613109826130de565b9050919050565b613119816130fe565b82525050565b60006020820190506131346000830184613110565b92915050565b613143816130fe565b811461314e57600080fd5b50565b6000813590506131608161313a565b92915050565b60006020828403121561317c5761317b61305e565b5b600061318a84828501613151565b91505092915050565b61319c81613068565b82525050565b60006020820190506131b76000830184613193565b92915050565b6000819050919050565b60006131e26131dd6131d8846130de565b6131bd565b6130de565b9050919050565b60006131f4826131c7565b9050919050565b6000613206826131e9565b9050919050565b613216816131fb565b82525050565b6000602082019050613231600083018461320d565b92915050565b60008115159050919050565b61324c81613237565b82525050565b60006020820190506132676000830184613243565b92915050565b600080fd5b600080fd5b600080fd5b60008083601f8401126132925761329161326d565b5b8235905067ffffffffffffffff8111156132af576132ae613272565b5b6020830191508360208202830111156132cb576132ca613277565b5b9250929050565b600080602083850312156132e9576132e861305e565b5b600083013567ffffffffffffffff81111561330757613306613063565b5b6133138582860161327c565b92509250509250929050565b6000602082840312156133355761333461305e565b5b600061334384828501613089565b91505092915050565b600080604083850312156133635761336261305e565b5b600061337185828601613089565b925050602061338285828601613151565b9150509250929050565b7f4e487b7100000000000000000000000000000000000000000000000000000000600052602160045260246000fd5b600281106133cc576133cb61338c565b5b50565b60008190506133dd826133bb565b919050565b60006133ed826133cf565b9050919050565b6133fd816133e2565b82525050565b600060608201905061341860008301866133f4565b6134256020830185613193565b6134326040830184613243565b949350505050565b6003811061344b5761344a61338c565b5b50565b600081905061345c8261343a565b919050565b600061346c8261344e565b9050919050565b61347c81613461565b82525050565b600061016082019050613498600083018e613193565b6134a5602083018d613193565b6134b2604083018c613193565b6134bf606083018b613193565b6134cc608083018a613193565b6134d960a0830189613193565b6134e660c0830188613193565b6134f360e0830187613193565b613501610100830186613193565b61350f610120830185613243565b61351d610140830184613473565b9c9b505050505050505050505050565b6000806000606084860312156135465761354561305e565b5b600061355486828701613151565b935050602061356586828701613089565b925050604061357686828701613089565b9150509250925092565b600081519050919050565b600082825260208201905092915050565b6000819050602082019050919050565b6135b581613068565b82525050565b60006135c783836135ac565b60208301905092915050565b6000602082019050919050565b60006135eb82613580565b6135f5818561358b565b93506136008361359c565b8060005b8381101561363157815161361888826135bb565b9750613623836135d3565b925050600181019050613604565b5085935050505092915050565b600081519050919050565b600082825260208201905092915050565b6000819050602082019050919050565b613673816133e2565b82525050565b61368281613237565b82525050565b60608201600082015161369e600085018261366a565b5060208201516136b160208501826135ac565b5060408201516136c46040850182613679565b50505050565b60006136d68383613688565b60608301905092915050565b6000602082019050919050565b60006136fa8261363e565b6137048185613649565b935061370f8361365a565b8060005b8381101561374057815161372788826136ca565b9750613732836136e2565b925050600181019050613713565b5085935050505092915050565b6000606082019050818103600083015261376781866135e0565b9050818103602083015261377b81856136ef565b905061378a6040830184613193565b949350505050565b600080604083850312156137a9576137a861305e565b5b60006137b785828601613151565b92505060206137c885828601613089565b9150509250929050565b600381106137df57600080fd5b50565b6000813590506137f1816137d2565b92915050565b6000806040838503121561380e5761380d61305e565b5b600061381c85828601613089565b925050602061382d858286016137e2565b9150509250929050565b600082825260208201905092915050565b7f4e6f742061646d696e0000000000000000000000000000000000000000000000600082015250565b600061387e600983613837565b915061388982613848565b602082019050919050565b600060208201905081810360008301526138ad81613871565b9050919050565b60006040820190506138c96000830185613110565b6138d66020830184613193565b9392505050565b6138e681613237565b81146138f157600080fd5b50565b600081519050613903816138dd565b92915050565b60006020828403121561391f5761391e61305e565b5b600061392d848285016138f4565b91505092915050565b7f4e6f74206f70657261746f720000000000000000000000000000000000000000600082015250565b600061396c600c83613837565b915061397782613936565b602082019050919050565b6000602082019050818103600083015261399b8161395f565b9050919050565b7f6c6f636b54696d657374616d70206d757374206265206772656174657220746860008201527f616e2063757272656e742074696d657374616d70000000000000000000000000602082015250565b60006139fe603483613837565b9150613a09826139a2565b604082019050919050565b60006020820190508181036000830152613a2d816139f1565b9050919050565b7f6c6f636b2074696d657374616d70206d757374206265206c657373207468616e60008201527f20636c6f73652074696d657374616d7000000000000000000000000000000000602082015250565b6000613a90603083613837565b9150613a9b82613a34565b604082019050919050565b60006020820190508181036000830152613abf81613a83565b9050919050565b7f4e487b7100000000000000000000000000000000000000000000000000000000600052601160045260246000fd5b6000613b0082613068565b9150613b0b83613068565b9250827fffffffffffffffffffffffffffffffffffffffffffffffffffffffffffffffff03821115613b4057613b3f613ac6565b5b828201905092915050565b7f436f6e7472616374206e6f7420616c6c6f776564000000000000000000000000600082015250565b6000613b81601483613837565b9150613b8c82613b4b565b602082019050919050565b60006020820190508181036000830152613bb081613b74565b9050919050565b7f50726f787920636f6e7472616374206e6f7420616c6c6f776564000000000000600082015250565b6000613bed601a83613837565b9150613bf882613bb7565b602082019050919050565b60006020820190508181036000830152613c1c81613be0565b9050919050565b7f526f756e64206e6f74206265747461626c650000000000000000000000000000600082015250565b6000613c59601283613837565b9150613c6482613c23565b602082019050919050565b60006020820190508181036000830152613c8881613c4c565b9050919050565b7f42657420616d6f756e74206d7573742062652067726561746572207468616e2060008201527f6d696e426574416d6f756e740000000000000000000000000000000000000000602082015250565b6000613ceb602c83613837565b9150613cf682613c8f565b604082019050919050565b60006020820190508181036000830152613d1a81613cde565b9050919050565b7f43616e206f6e6c7920626574206f6e63652070657220726f756e640000000000600082015250565b6000613d57601b83613837565b9150613d6282613d21565b602082019050919050565b60006020820190508181036000830152613d8681613d4a565b9050919050565b6000606082019050613da26000830186613110565b613daf6020830185613110565b613dbc6040830184613193565b949350505050565b7f4e6f74206f70657261746f722f61646d696e0000000000000000000000000000600082015250565b6000613dfa601283613837565b9150613e0582613dc4565b602082019050919050565b60006020820190508181036000830152613e2981613ded565b9050919050565b7f4e487b7100000000000000000000000000000000000000000000000000000000600052603260045260246000fd5b7f526f756e6420686173206e6f7420737461727465640000000000000000000000600082015250565b6000613e95601583613837565b9150613ea082613e5f565b602082019050919050565b60006020820190508181036000830152613ec481613e88565b9050919050565b7f526f756e6420686173206e6f7420656e64656400000000000000000000000000600082015250565b6000613f01601383613837565b9150613f0c82613ecb565b602082019050919050565b60006020820190508181036000830152613f3081613ef4565b9050919050565b7f4e6f7420656c696769626c6520666f7220636c61696d00000000000000000000600082015250565b6000613f6d601683613837565b9150613f7882613f37565b602082019050919050565b60006020820190508181036000830152613f9c81613f60565b9050919050565b6000613fae82613068565b9150613fb983613068565b9250817fffffffffffffffffffffffffffffffffffffffffffffffffffffffffffffffff0483118215151615613ff257613ff1613ac6565b5b828202905092915050565b7f4e487b7100000000000000000000000000000000000000000000000000000000600052601260045260246000fd5b600061403782613068565b915061404283613068565b92508261405257614051613ffd565b5b828204905092915050565b600061406882613068565b91507fffffffffffffffffffffffffffffffffffffffffffffffffffffffffffffffff82141561409b5761409a613ac6565b5b600182019050919050565b7f4d757374206265207375706572696f7220746f20300000000000000000000000600082015250565b60006140dc601583613837565b91506140e7826140a6565b602082019050919050565b6000602082019050818103600083015261410b816140cf565b9050919050565b7f43616e6e6f74206265207a65726f206164647265737300000000000000000000600082015250565b6000614148601683613837565b915061415382614112565b602082019050919050565b600060208201905081810360008301526141778161413b565b9050919050565b7f54726561737572792066656520746f6f20686967680000000000000000000000600082015250565b60006141b4601583613837565b91506141bf8261417e565b602082019050919050565b600060208201905081810360008301526141e3816141a7565b9050919050565b60006141f582613068565b915061420083613068565b92508282101561421357614212613ac6565b5b828203905092915050565b7f4e487b7100000000000000000000000000000000000000000000000000000000600052604160045260246000fd5b7f43616e6e6f742062652070726564696374696f6e20746f6b656e20616464726560008201527f7373000000000000000000000000000000000000000000000000000000000000602082015250565b60006142a9602283613837565b91506142b48261424d565b604082019050919050565b600060208201905081810360008301526142d88161429c565b9050919050565b7f526f756e6420646f6573206e6f74206578697374000000000000000000000000600082015250565b6000614315601483613837565b9150614320826142df565b602082019050919050565b6000602082019050818103600083015261434481614308565b9050919050565b7f526f756e642068617320616c7265616479206265656e20636c6f736564000000600082015250565b6000614381601d83613837565b915061438c8261434b565b602082019050919050565b600060208201905081810360008301526143b081614374565b9050919050565b7f4f776e61626c653a206e6577206f776e657220697320746865207a65726f206160008201527f6464726573730000000000000000000000000000000000000000000000000000602082015250565b6000614413602683613837565b915061441e826143b7565b604082019050919050565b6000602082019050818103600083015261444281614406565b9050919050565b7f5265656e7472616e637947756172643a207265656e7472616e742063616c6c00600082015250565b600061447f601f83613837565b915061448a82614449565b602082019050919050565b600060208201905081810360008301526144ae81614472565b9050919050565b7f5061757361626c653a2070617573656400000000000000000000000000000000600082015250565b60006144eb601083613837565b91506144f6826144b5565b602082019050919050565b6000602082019050818103600083015261451a816144de565b9050919050565b7f5061757361626c653a206e6f7420706175736564000000000000000000000000600082015250565b6000614557601483613837565b915061456282614521565b602082019050919050565b600060208201905081810360008301526145868161454a565b9050919050565b7f4f776e61626c653a2063616c6c6572206973206e6f7420746865206f776e6572600082015250565b60006145c3602083613837565b91506145ce8261458d565b602082019050919050565b600060208201905081810360008301526145f2816145b6565b9050919050565b7f43616e206f6e6c7920656e6420726f756e6420616674657220636c6f7365546960008201527f6d657374616d7000000000000000000000000000000000000000000000000000602082015250565b6000614655602783613837565b9150614660826145f9565b604082019050919050565b6000602082019050818103600083015261468481614648565b9050919050565b60006020820190506146a06000830184613473565b92915050565b7f526577617264732063616c63756c617465640000000000000000000000000000600082015250565b60006146dc601283613837565b91506146e7826146a6565b602082019050919050565b6000602082019050818103600083015261470b816146cf565b9050919050565b60006060820190506147276000830186613193565b6147346020830185613193565b6147416040830184613193565b94935050505056fea264697066735822122060063476efdbbf0193ae0bbb7d3b7b93a1af0b910b87a525730f888c9c68b6cd64736f6c63430008090033","opcodes":"PUSH1 0x80 PUSH1 0x40 MSTORE CALLVALUE DUP1 ISZERO PUSH3 0x11 JUMPI PUSH1 0x0 DUP1 REVERT JUMPDEST POP PUSH1 0x40 MLOAD PUSH3 0x4C00 CODESIZE SUB DUP1 PUSH3 0x4C00 DUP4 CODECOPY DUP2 DUP2 ADD PUSH1 0x40 MSTORE DUP2 ADD SWAP1 PUSH3 0x37 SWAP2 SWAP1 PUSH3 0x366 JUMP JUMPDEST PUSH3 0x57 PUSH3 0x4B PUSH3 0x19C PUSH1 0x20 SHL PUSH1 0x20 SHR JUMP JUMPDEST PUSH3 0x1A4 PUSH1 0x20 SHL PUSH1 0x20 SHR JUMP JUMPDEST PUSH1 0x0 DUP1 PUSH1 0x14 PUSH2 0x100 EXP DUP2 SLOAD DUP2 PUSH1 0xFF MUL NOT AND SWAP1 DUP4 ISZERO ISZERO MUL OR SWAP1 SSTORE POP PUSH1 0x1 DUP1 DUP2 SWAP1 SSTORE POP PUSH2 0x3E8 DUP2 GT ISZERO PUSH3 0xC0 JUMPI PUSH1 0x40 MLOAD PUSH32 0x8C379A000000000000000000000000000000000000000000000000000000000 DUP2 MSTORE PUSH1 0x4 ADD PUSH3 0xB7 SWAP1 PUSH3 0x44F JUMP JUMPDEST PUSH1 0x40 MLOAD DUP1 SWAP2 SUB SWAP1 REVERT JUMPDEST DUP5 PUSH1 0x2 PUSH1 0x0 PUSH2 0x100 EXP DUP2 SLOAD DUP2 PUSH20 0xFFFFFFFFFFFFFFFFFFFFFFFFFFFFFFFFFFFFFFFF MUL NOT AND SWAP1 DUP4 PUSH20 0xFFFFFFFFFFFFFFFFFFFFFFFFFFFFFFFFFFFFFFFF AND MUL OR SWAP1 SSTORE POP DUP4 PUSH1 0x3 PUSH1 0x0 PUSH2 0x100 EXP DUP2 SLOAD DUP2 PUSH20 0xFFFFFFFFFFFFFFFFFFFFFFFFFFFFFFFFFFFFFFFF MUL NOT AND SWAP1 DUP4 PUSH20 0xFFFFFFFFFFFFFFFFFFFFFFFFFFFFFFFFFFFFFFFF AND MUL OR SWAP1 SSTORE POP DUP3 PUSH1 0x4 PUSH1 0x0 PUSH2 0x100 EXP DUP2 SLOAD DUP2 PUSH20 0xFFFFFFFFFFFFFFFFFFFFFFFFFFFFFFFFFFFFFFFF MUL NOT AND SWAP1 DUP4 PUSH20 0xFFFFFFFFFFFFFFFFFFFFFFFFFFFFFFFFFFFFFFFF AND MUL OR SWAP1 SSTORE POP DUP2 PUSH1 0x5 DUP2 SWAP1 SSTORE POP DUP1 PUSH1 0x6 DUP2 SWAP1 SSTORE POP POP POP POP POP POP PUSH3 0x471 JUMP JUMPDEST PUSH1 0x0 CALLER SWAP1 POP SWAP1 JUMP JUMPDEST PUSH1 0x0 DUP1 PUSH1 0x0 SWAP1 SLOAD SWAP1 PUSH2 0x100 EXP SWAP1 DIV PUSH20 0xFFFFFFFFFFFFFFFFFFFFFFFFFFFFFFFFFFFFFFFF AND SWAP1 POP DUP2 PUSH1 0x0 DUP1 PUSH2 0x100 EXP DUP2 SLOAD DUP2 PUSH20 0xFFFFFFFFFFFFFFFFFFFFFFFFFFFFFFFFFFFFFFFF MUL NOT AND SWAP1 DUP4 PUSH20 0xFFFFFFFFFFFFFFFFFFFFFFFFFFFFFFFFFFFFFFFF AND MUL OR SWAP1 SSTORE POP DUP2 PUSH20 0xFFFFFFFFFFFFFFFFFFFFFFFFFFFFFFFFFFFFFFFF AND DUP2 PUSH20 0xFFFFFFFFFFFFFFFFFFFFFFFFFFFFFFFFFFFFFFFF AND PUSH32 0x8BE0079C531659141344CD1FD0A4F28419497F9722A3DAAFE3B4186F6B6457E0 PUSH1 0x40 MLOAD PUSH1 0x40 MLOAD DUP1 SWAP2 SUB SWAP1 LOG3 POP POP JUMP JUMPDEST PUSH1 0x0 DUP1 REVERT JUMPDEST PUSH1 0x0 PUSH20 0xFFFFFFFFFFFFFFFFFFFFFFFFFFFFFFFFFFFFFFFF DUP3 AND SWAP1 POP SWAP2 SWAP1 POP JUMP JUMPDEST PUSH1 0x0 PUSH3 0x29A DUP3 PUSH3 0x26D JUMP JUMPDEST SWAP1 POP SWAP2 SWAP1 POP JUMP JUMPDEST PUSH1 0x0 PUSH3 0x2AE DUP3 PUSH3 0x28D JUMP JUMPDEST SWAP1 POP SWAP2 SWAP1 POP JUMP JUMPDEST PUSH3 0x2C0 DUP2 PUSH3 0x2A1 JUMP JUMPDEST DUP2 EQ PUSH3 0x2CC JUMPI PUSH1 0x0 DUP1 REVERT JUMPDEST POP JUMP JUMPDEST PUSH1 0x0 DUP2 MLOAD SWAP1 POP PUSH3 0x2E0 DUP2 PUSH3 0x2B5 JUMP JUMPDEST SWAP3 SWAP2 POP POP JUMP JUMPDEST PUSH1 0x0 PUSH3 0x2F3 DUP3 PUSH3 0x26D JUMP JUMPDEST SWAP1 POP SWAP2 SWAP1 POP JUMP JUMPDEST PUSH3 0x305 DUP2 PUSH3 0x2E6 JUMP JUMPDEST DUP2 EQ PUSH3 0x311 JUMPI PUSH1 0x0 DUP1 REVERT JUMPDEST POP JUMP JUMPDEST PUSH1 0x0 DUP2 MLOAD SWAP1 POP PUSH3 0x325 DUP2 PUSH3 0x2FA JUMP JUMPDEST SWAP3 SWAP2 POP POP JUMP JUMPDEST PUSH1 0x0 DUP2 SWAP1 POP SWAP2 SWAP1 POP JUMP JUMPDEST PUSH3 0x340 DUP2 PUSH3 0x32B JUMP JUMPDEST DUP2 EQ PUSH3 0x34C JUMPI PUSH1 0x0 DUP1 REVERT JUMPDEST POP JUMP JUMPDEST PUSH1 0x0 DUP2 MLOAD SWAP1 POP PUSH3 0x360 DUP2 PUSH3 0x335 JUMP JUMPDEST SWAP3 SWAP2 POP POP JUMP JUMPDEST PUSH1 0x0 DUP1 PUSH1 0x0 DUP1 PUSH1 0x0 PUSH1 0xA0 DUP7 DUP9 SUB SLT ISZERO PUSH3 0x385 JUMPI PUSH3 0x384 PUSH3 0x268 JUMP JUMPDEST JUMPDEST PUSH1 0x0 PUSH3 0x395 DUP9 DUP3 DUP10 ADD PUSH3 0x2CF JUMP JUMPDEST SWAP6 POP POP PUSH1 0x20 PUSH3 0x3A8 DUP9 DUP3 DUP10 ADD PUSH3 0x314 JUMP JUMPDEST SWAP5 POP POP PUSH1 0x40 PUSH3 0x3BB DUP9 DUP3 DUP10 ADD PUSH3 0x314 JUMP JUMPDEST SWAP4 POP POP PUSH1 0x60 PUSH3 0x3CE DUP9 DUP3 DUP10 ADD PUSH3 0x34F JUMP JUMPDEST SWAP3 POP POP PUSH1 0x80 PUSH3 0x3E1 DUP9 DUP3 DUP10 ADD PUSH3 0x34F JUMP JUMPDEST SWAP2 POP POP SWAP3 SWAP6 POP SWAP3 SWAP6 SWAP1 SWAP4 POP JUMP JUMPDEST PUSH1 0x0 DUP3 DUP3 MSTORE PUSH1 0x20 DUP3 ADD SWAP1 POP SWAP3 SWAP2 POP POP JUMP JUMPDEST PUSH32 0x54726561737572792066656520746F6F20686967680000000000000000000000 PUSH1 0x0 DUP3 ADD MSTORE POP JUMP JUMPDEST PUSH1 0x0 PUSH3 0x437 PUSH1 0x15 DUP4 PUSH3 0x3EE JUMP JUMPDEST SWAP2 POP PUSH3 0x444 DUP3 PUSH3 0x3FF JUMP JUMPDEST PUSH1 0x20 DUP3 ADD SWAP1 POP SWAP2 SWAP1 POP JUMP JUMPDEST PUSH1 0x0 PUSH1 0x20 DUP3 ADD SWAP1 POP DUP2 DUP2 SUB PUSH1 0x0 DUP4 ADD MSTORE PUSH3 0x46A DUP2 PUSH3 0x428 JUMP JUMPDEST SWAP1 POP SWAP2 SWAP1 POP JUMP JUMPDEST PUSH2 0x477F DUP1 PUSH3 0x481 PUSH1 0x0 CODECOPY PUSH1 0x0 RETURN INVALID PUSH1 0x80 PUSH1 0x40 MSTORE CALLVALUE DUP1 ISZERO PUSH2 0x10 JUMPI PUSH1 0x0 DUP1 REVERT JUMPDEST POP PUSH1 0x4 CALLDATASIZE LT PUSH2 0x1E4 JUMPI PUSH1 0x0 CALLDATALOAD PUSH1 0xE0 SHR DUP1 PUSH4 0x77E741C7 GT PUSH2 0x10F JUMPI DUP1 PUSH4 0xB3AB15FB GT PUSH2 0xA2 JUMPI DUP1 PUSH4 0xF2B3C809 GT PUSH2 0x71 JUMPI DUP1 PUSH4 0xF2B3C809 EQ PUSH2 0x529 JUMPI DUP1 PUSH4 0xF2FDE38B EQ PUSH2 0x547 JUMPI DUP1 PUSH4 0xFA968EEA EQ PUSH2 0x563 JUMPI DUP1 PUSH4 0xFC6F9468 EQ PUSH2 0x581 JUMPI PUSH2 0x1E4 JUMP JUMPDEST DUP1 PUSH4 0xB3AB15FB EQ PUSH2 0x4A3 JUMPI DUP1 PUSH4 0xC89C1A89 EQ PUSH2 0x4BF JUMPI DUP1 PUSH4 0xCC32D176 EQ PUSH2 0x4DB JUMPI DUP1 PUSH4 0xDD1F7596 EQ PUSH2 0x4F9 JUMPI PUSH2 0x1E4 JUMP JUMPDEST DUP1 PUSH4 0x8DA5CB5B GT PUSH2 0xDE JUMPI DUP1 PUSH4 0x8DA5CB5B EQ PUSH2 0x407 JUMPI DUP1 PUSH4 0x951FD600 EQ PUSH2 0x425 JUMPI DUP1 PUSH4 0xA0C7F71C EQ PUSH2 0x457 JUMPI DUP1 PUSH4 0xB29A8140 EQ PUSH2 0x487 JUMPI PUSH2 0x1E4 JUMP JUMPDEST DUP1 PUSH4 0x77E741C7 EQ PUSH2 0x389 JUMPI DUP1 PUSH4 0x8456CB59 EQ PUSH2 0x3A5 JUMPI DUP1 PUSH4 0x8A19C8BC EQ PUSH2 0x3AF JUMPI DUP1 PUSH4 0x8C65C81F EQ PUSH2 0x3CD JUMPI PUSH2 0x1E4 JUMP JUMPDEST DUP1 PUSH4 0x3F4BA83A GT PUSH2 0x187 JUMPI DUP1 PUSH4 0x6C188593 GT PUSH2 0x156 JUMPI DUP1 PUSH4 0x6C188593 EQ PUSH2 0x315 JUMPI DUP1 PUSH4 0x704B6C02 EQ PUSH2 0x331 JUMPI DUP1 PUSH4 0x715018A6 EQ PUSH2 0x34D JUMPI DUP1 PUSH4 0x7285C58B EQ PUSH2 0x357 JUMPI PUSH2 0x1E4 JUMP JUMPDEST DUP1 PUSH4 0x3F4BA83A EQ PUSH2 0x2B3 JUMPI DUP1 PUSH4 0x4FE402B5 EQ PUSH2 0x2BD JUMPI DUP1 PUSH4 0x5C975ABB EQ PUSH2 0x2DB JUMPI DUP1 PUSH4 0x6BA4C138 EQ PUSH2 0x2F9 JUMPI PUSH2 0x1E4 JUMP JUMPDEST DUP1 PUSH4 0x127EFFB2 GT PUSH2 0x1C3 JUMPI DUP1 PUSH4 0x127EFFB2 EQ PUSH2 0x22B JUMPI DUP1 PUSH4 0x273867D4 EQ PUSH2 0x249 JUMPI DUP1 PUSH4 0x368ACB09 EQ PUSH2 0x279 JUMPI DUP1 PUSH4 0x3923E1B4 EQ PUSH2 0x297 JUMPI PUSH2 0x1E4 JUMP JUMPDEST DUP1 PUSH3 0x3BDC74 EQ PUSH2 0x1E9 JUMPI DUP1 PUSH4 0x40AE259 EQ PUSH2 0x1F3 JUMPI DUP1 PUSH4 0xE89E5A4 EQ PUSH2 0x20F JUMPI JUMPDEST PUSH1 0x0 DUP1 REVERT JUMPDEST PUSH2 0x1F1 PUSH2 0x59F JUMP JUMPDEST STOP JUMPDEST PUSH2 0x20D PUSH1 0x4 DUP1 CALLDATASIZE SUB DUP2 ADD SWAP1 PUSH2 0x208 SWAP2 SWAP1 PUSH2 0x309E JUMP JUMPDEST PUSH2 0x75A JUMP JUMPDEST STOP JUMPDEST PUSH2 0x229 PUSH1 0x4 DUP1 CALLDATASIZE SUB DUP2 ADD SWAP1 PUSH2 0x224 SWAP2 SWAP1 PUSH2 0x309E JUMP JUMPDEST PUSH2 0x908 JUMP JUMPDEST STOP JUMPDEST PUSH2 0x233 PUSH2 0xD3E JUMP JUMPDEST PUSH1 0x40 MLOAD PUSH2 0x240 SWAP2 SWAP1 PUSH2 0x311F JUMP JUMPDEST PUSH1 0x40 MLOAD DUP1 SWAP2 SUB SWAP1 RETURN JUMPDEST PUSH2 0x263 PUSH1 0x4 DUP1 CALLDATASIZE SUB DUP2 ADD SWAP1 PUSH2 0x25E SWAP2 SWAP1 PUSH2 0x3166 JUMP JUMPDEST PUSH2 0xD64 JUMP JUMPDEST PUSH1 0x40 MLOAD PUSH2 0x270 SWAP2 SWAP1 PUSH2 0x31A2 JUMP JUMPDEST PUSH1 0x40 MLOAD DUP1 SWAP2 SUB SWAP1 RETURN JUMPDEST PUSH2 0x281 PUSH2 0xDB0 JUMP JUMPDEST PUSH1 0x40 MLOAD PUSH2 0x28E SWAP2 SWAP1 PUSH2 0x31A2 JUMP JUMPDEST PUSH1 0x40 MLOAD DUP1 SWAP2 SUB SWAP1 RETURN JUMPDEST PUSH2 0x2B1 PUSH1 0x4 DUP1 CALLDATASIZE SUB DUP2 ADD SWAP1 PUSH2 0x2AC SWAP2 SWAP1 PUSH2 0x309E JUMP JUMPDEST PUSH2 0xDB6 JUMP JUMPDEST STOP JUMPDEST PUSH2 0x2BB PUSH2 0x11EC JUMP JUMPDEST STOP JUMPDEST PUSH2 0x2C5 PUSH2 0x1315 JUMP JUMPDEST PUSH1 0x40 MLOAD PUSH2 0x2D2 SWAP2 SWAP1 PUSH2 0x321C JUMP JUMPDEST PUSH1 0x40 MLOAD DUP1 SWAP2 SUB SWAP1 RETURN JUMPDEST PUSH2 0x2E3 PUSH2 0x133B JUMP JUMPDEST PUSH1 0x40 MLOAD PUSH2 0x2F0 SWAP2 SWAP1 PUSH2 0x3252 JUMP JUMPDEST PUSH1 0x40 MLOAD DUP1 SWAP2 SUB SWAP1 RETURN JUMPDEST PUSH2 0x313 PUSH1 0x4 DUP1 CALLDATASIZE SUB DUP2 ADD SWAP1 PUSH2 0x30E SWAP2 SWAP1 PUSH2 0x32D2 JUMP JUMPDEST PUSH2 0x1351 JUMP JUMPDEST STOP JUMPDEST PUSH2 0x32F PUSH1 0x4 DUP1 CALLDATASIZE SUB DUP2 ADD SWAP1 PUSH2 0x32A SWAP2 SWAP1 PUSH2 0x331F JUMP JUMPDEST PUSH2 0x1900 JUMP JUMPDEST STOP JUMPDEST PUSH2 0x34B PUSH1 0x4 DUP1 CALLDATASIZE SUB DUP2 ADD SWAP1 PUSH2 0x346 SWAP2 SWAP1 PUSH2 0x3166 JUMP JUMPDEST PUSH2 0x1A22 JUMP JUMPDEST STOP JUMPDEST PUSH2 0x355 PUSH2 0x1B15 JUMP JUMPDEST STOP JUMPDEST PUSH2 0x371 PUSH1 0x4 DUP1 CALLDATASIZE SUB DUP2 ADD SWAP1 PUSH2 0x36C SWAP2 SWAP1 PUSH2 0x334C JUMP JUMPDEST PUSH2 0x1B29 JUMP JUMPDEST PUSH1 0x40 MLOAD PUSH2 0x380 SWAP4 SWAP3 SWAP2 SWAP1 PUSH2 0x3403 JUMP JUMPDEST PUSH1 0x40 MLOAD DUP1 SWAP2 SUB SWAP1 RETURN JUMPDEST PUSH2 0x3A3 PUSH1 0x4 DUP1 CALLDATASIZE SUB DUP2 ADD SWAP1 PUSH2 0x39E SWAP2 SWAP1 PUSH2 0x331F JUMP JUMPDEST PUSH2 0x1B7A JUMP JUMPDEST STOP JUMPDEST PUSH2 0x3AD PUSH2 0x1C9D JUMP JUMPDEST STOP JUMPDEST PUSH2 0x3B7 PUSH2 0x1DC6 JUMP JUMPDEST PUSH1 0x40 MLOAD PUSH2 0x3C4 SWAP2 SWAP1 PUSH2 0x31A2 JUMP JUMPDEST PUSH1 0x40 MLOAD DUP1 SWAP2 SUB SWAP1 RETURN JUMPDEST PUSH2 0x3E7 PUSH1 0x4 DUP1 CALLDATASIZE SUB DUP2 ADD SWAP1 PUSH2 0x3E2 SWAP2 SWAP1 PUSH2 0x331F JUMP JUMPDEST PUSH2 0x1DCC JUMP JUMPDEST PUSH1 0x40 MLOAD PUSH2 0x3FE SWAP12 SWAP11 SWAP10 SWAP9 SWAP8 SWAP7 SWAP6 SWAP5 SWAP4 SWAP3 SWAP2 SWAP1 PUSH2 0x3482 JUMP JUMPDEST PUSH1 0x40 MLOAD DUP1 SWAP2 SUB SWAP1 RETURN JUMPDEST PUSH2 0x40F PUSH2 0x1E40 JUMP JUMPDEST PUSH1 0x40 MLOAD PUSH2 0x41C SWAP2 SWAP1 PUSH2 0x311F JUMP JUMPDEST PUSH1 0x40 MLOAD DUP1 SWAP2 SUB SWAP1 RETURN JUMPDEST PUSH2 0x43F PUSH1 0x4 DUP1 CALLDATASIZE SUB DUP2 ADD SWAP1 PUSH2 0x43A SWAP2 SWAP1 PUSH2 0x352D JUMP JUMPDEST PUSH2 0x1E69 JUMP JUMPDEST PUSH1 0x40 MLOAD PUSH2 0x44E SWAP4 SWAP3 SWAP2 SWAP1 PUSH2 0x374D JUMP JUMPDEST PUSH1 0x40 MLOAD DUP1 SWAP2 SUB SWAP1 RETURN JUMPDEST PUSH2 0x471 PUSH1 0x4 DUP1 CALLDATASIZE SUB DUP2 ADD SWAP1 PUSH2 0x46C SWAP2 SWAP1 PUSH2 0x334C JUMP JUMPDEST PUSH2 0x2175 JUMP JUMPDEST PUSH1 0x40 MLOAD PUSH2 0x47E SWAP2 SWAP1 PUSH2 0x3252 JUMP JUMPDEST PUSH1 0x40 MLOAD DUP1 SWAP2 SUB SWAP1 RETURN JUMPDEST PUSH2 0x4A1 PUSH1 0x4 DUP1 CALLDATASIZE SUB DUP2 ADD SWAP1 PUSH2 0x49C SWAP2 SWAP1 PUSH2 0x3792 JUMP JUMPDEST PUSH2 0x2444 JUMP JUMPDEST STOP JUMPDEST PUSH2 0x4BD PUSH1 0x4 DUP1 CALLDATASIZE SUB DUP2 ADD SWAP1 PUSH2 0x4B8 SWAP2 SWAP1 PUSH2 0x3166 JUMP JUMPDEST PUSH2 0x25BD JUMP JUMPDEST STOP JUMPDEST PUSH2 0x4D9 PUSH1 0x4 DUP1 CALLDATASIZE SUB DUP2 ADD SWAP1 PUSH2 0x4D4 SWAP2 SWAP1 PUSH2 0x37F7 JUMP JUMPDEST PUSH2 0x2738 JUMP JUMPDEST STOP JUMPDEST PUSH2 0x4E3 PUSH2 0x2890 JUMP JUMPDEST PUSH1 0x40 MLOAD PUSH2 0x4F0 SWAP2 SWAP1 PUSH2 0x31A2 JUMP JUMPDEST PUSH1 0x40 MLOAD DUP1 SWAP2 SUB SWAP1 RETURN JUMPDEST PUSH2 0x513 PUSH1 0x4 DUP1 CALLDATASIZE SUB DUP2 ADD SWAP1 PUSH2 0x50E SWAP2 SWAP1 PUSH2 0x3792 JUMP JUMPDEST PUSH2 0x2896 JUMP JUMPDEST PUSH1 0x40 MLOAD PUSH2 0x520 SWAP2 SWAP1 PUSH2 0x31A2 JUMP JUMPDEST PUSH1 0x40 MLOAD DUP1 SWAP2 SUB SWAP1 RETURN JUMPDEST PUSH2 0x531 PUSH2 0x28C7 JUMP JUMPDEST PUSH1 0x40 MLOAD PUSH2 0x53E SWAP2 SWAP1 PUSH2 0x31A2 JUMP JUMPDEST PUSH1 0x40 MLOAD DUP1 SWAP2 SUB SWAP1 RETURN JUMPDEST PUSH2 0x561 PUSH1 0x4 DUP1 CALLDATASIZE SUB DUP2 ADD SWAP1 PUSH2 0x55C SWAP2 SWAP1 PUSH2 0x3166 JUMP JUMPDEST PUSH2 0x28CD JUMP JUMPDEST STOP JUMPDEST PUSH2 0x56B PUSH2 0x2951 JUMP JUMPDEST PUSH1 0x40 MLOAD PUSH2 0x578 SWAP2 SWAP1 PUSH2 0x31A2 JUMP JUMPDEST PUSH1 0x40 MLOAD DUP1 SWAP2 SUB SWAP1 RETURN JUMPDEST PUSH2 0x589 PUSH2 0x2957 JUMP JUMPDEST PUSH1 0x40 MLOAD PUSH2 0x596 SWAP2 SWAP1 PUSH2 0x311F JUMP JUMPDEST PUSH1 0x40 MLOAD DUP1 SWAP2 SUB SWAP1 RETURN JUMPDEST PUSH2 0x5A7 PUSH2 0x297D JUMP JUMPDEST PUSH1 0x3 PUSH1 0x0 SWAP1 SLOAD SWAP1 PUSH2 0x100 EXP SWAP1 DIV PUSH20 0xFFFFFFFFFFFFFFFFFFFFFFFFFFFFFFFFFFFFFFFF AND PUSH20 0xFFFFFFFFFFFFFFFFFFFFFFFFFFFFFFFFFFFFFFFF AND CALLER PUSH20 0xFFFFFFFFFFFFFFFFFFFFFFFFFFFFFFFFFFFFFFFF AND EQ PUSH2 0x637 JUMPI PUSH1 0x40 MLOAD PUSH32 0x8C379A000000000000000000000000000000000000000000000000000000000 DUP2 MSTORE PUSH1 0x4 ADD PUSH2 0x62E SWAP1 PUSH2 0x3894 JUMP JUMPDEST PUSH1 0x40 MLOAD DUP1 SWAP2 SUB SWAP1 REVERT JUMPDEST PUSH1 0x0 PUSH1 0x7 SLOAD SWAP1 POP PUSH1 0x0 PUSH1 0x7 DUP2 SWAP1 SSTORE POP PUSH1 0x2 PUSH1 0x0 SWAP1 SLOAD SWAP1 PUSH2 0x100 EXP SWAP1 DIV PUSH20 0xFFFFFFFFFFFFFFFFFFFFFFFFFFFFFFFFFFFFFFFF AND PUSH20 0xFFFFFFFFFFFFFFFFFFFFFFFFFFFFFFFFFFFFFFFF AND PUSH4 0xA9059CBB PUSH1 0x3 PUSH1 0x0 SWAP1 SLOAD SWAP1 PUSH2 0x100 EXP SWAP1 DIV PUSH20 0xFFFFFFFFFFFFFFFFFFFFFFFFFFFFFFFFFFFFFFFF AND DUP4 PUSH1 0x40 MLOAD DUP4 PUSH4 0xFFFFFFFF AND PUSH1 0xE0 SHL DUP2 MSTORE PUSH1 0x4 ADD PUSH2 0x6C5 SWAP3 SWAP2 SWAP1 PUSH2 0x38B4 JUMP JUMPDEST PUSH1 0x20 PUSH1 0x40 MLOAD DUP1 DUP4 SUB DUP2 PUSH1 0x0 DUP8 DUP1 EXTCODESIZE ISZERO DUP1 ISZERO PUSH2 0x6DF JUMPI PUSH1 0x0 DUP1 REVERT JUMPDEST POP GAS CALL ISZERO DUP1 ISZERO PUSH2 0x6F3 JUMPI RETURNDATASIZE PUSH1 0x0 DUP1 RETURNDATACOPY RETURNDATASIZE PUSH1 0x0 REVERT JUMPDEST POP POP POP POP PUSH1 0x40 MLOAD RETURNDATASIZE PUSH1 0x1F NOT PUSH1 0x1F DUP3 ADD AND DUP3 ADD DUP1 PUSH1 0x40 MSTORE POP DUP2 ADD SWAP1 PUSH2 0x717 SWAP2 SWAP1 PUSH2 0x3909 JUMP JUMPDEST POP PUSH32 0xB9197C6B8E21274BD1E2D9C956A88AF5CFEE510F630FAB3F046300F88B422361 DUP2 PUSH1 0x40 MLOAD PUSH2 0x747 SWAP2 SWAP1 PUSH2 0x31A2 JUMP JUMPDEST PUSH1 0x40 MLOAD DUP1 SWAP2 SUB SWAP1 LOG1 POP PUSH2 0x758 PUSH2 0x29CD JUMP JUMPDEST JUMP JUMPDEST PUSH2 0x762 PUSH2 0x29D6 JUMP JUMPDEST PUSH1 0x4 PUSH1 0x0 SWAP1 SLOAD SWAP1 PUSH2 0x100 EXP SWAP1 DIV PUSH20 0xFFFFFFFFFFFFFFFFFFFFFFFFFFFFFFFFFFFFFFFF AND PUSH20 0xFFFFFFFFFFFFFFFFFFFFFFFFFFFFFFFFFFFFFFFF AND CALLER PUSH20 0xFFFFFFFFFFFFFFFFFFFFFFFFFFFFFFFFFFFFFFFF AND EQ PUSH2 0x7F2 JUMPI PUSH1 0x40 MLOAD PUSH32 0x8C379A000000000000000000000000000000000000000000000000000000000 DUP2 MSTORE PUSH1 0x4 ADD PUSH2 0x7E9 SWAP1 PUSH2 0x3982 JUMP JUMPDEST PUSH1 0x40 MLOAD DUP1 SWAP2 SUB SWAP1 REVERT JUMPDEST TIMESTAMP DUP3 GT PUSH2 0x834 JUMPI PUSH1 0x40 MLOAD PUSH32 0x8C379A000000000000000000000000000000000000000000000000000000000 DUP2 MSTORE PUSH1 0x4 ADD PUSH2 0x82B SWAP1 PUSH2 0x3A14 JUMP JUMPDEST PUSH1 0x40 MLOAD DUP1 SWAP2 SUB SWAP1 REVERT JUMPDEST DUP1 DUP3 LT PUSH2 0x876 JUMPI PUSH1 0x40 MLOAD PUSH32 0x8C379A000000000000000000000000000000000000000000000000000000000 DUP2 MSTORE PUSH1 0x4 ADD PUSH2 0x86D SWAP1 PUSH2 0x3AA6 JUMP JUMPDEST PUSH1 0x40 MLOAD DUP1 SWAP2 SUB SWAP1 REVERT JUMPDEST PUSH1 0x1 PUSH1 0x8 SLOAD PUSH2 0x885 SWAP2 SWAP1 PUSH2 0x3AF5 JUMP JUMPDEST PUSH1 0x8 DUP2 SWAP1 SSTORE POP PUSH1 0x0 PUSH1 0xA PUSH1 0x0 PUSH1 0x8 SLOAD DUP2 MSTORE PUSH1 0x20 ADD SWAP1 DUP2 MSTORE PUSH1 0x20 ADD PUSH1 0x0 KECCAK256 SWAP1 POP TIMESTAMP DUP2 PUSH1 0x1 ADD DUP2 SWAP1 SSTORE POP DUP3 DUP2 PUSH1 0x2 ADD DUP2 SWAP1 SSTORE POP DUP2 DUP2 PUSH1 0x3 ADD DUP2 SWAP1 SSTORE POP PUSH1 0x8 SLOAD DUP2 PUSH1 0x0 ADD DUP2 SWAP1 SSTORE POP PUSH1 0x0 DUP2 PUSH1 0x4 ADD DUP2 SWAP1 SSTORE POP PUSH1 0x8 SLOAD PUSH32 0x939F42374AA9BF1D8D8CD56D8A9110CB040CD8DFEAE44080C6FCF2645E51B452 PUSH1 0x40 MLOAD PUSH1 0x40 MLOAD DUP1 SWAP2 SUB SWAP1 LOG2 POP POP POP JUMP JUMPDEST PUSH2 0x910 PUSH2 0x29D6 JUMP JUMPDEST PUSH2 0x918 PUSH2 0x297D JUMP JUMPDEST PUSH2 0x921 CALLER PUSH2 0x2A20 JUMP JUMPDEST ISZERO PUSH2 0x961 JUMPI PUSH1 0x40 MLOAD PUSH32 0x8C379A000000000000000000000000000000000000000000000000000000000 DUP2 MSTORE PUSH1 0x4 ADD PUSH2 0x958 SWAP1 PUSH2 0x3B97 JUMP JUMPDEST PUSH1 0x40 MLOAD DUP1 SWAP2 SUB SWAP1 REVERT JUMPDEST ORIGIN PUSH20 0xFFFFFFFFFFFFFFFFFFFFFFFFFFFFFFFFFFFFFFFF AND CALLER PUSH20 0xFFFFFFFFFFFFFFFFFFFFFFFFFFFFFFFFFFFFFFFF AND EQ PUSH2 0x9CF JUMPI PUSH1 0x40 MLOAD PUSH32 0x8C379A000000000000000000000000000000000000000000000000000000000 DUP2 MSTORE PUSH1 0x4 ADD PUSH2 0x9C6 SWAP1 PUSH2 0x3C03 JUMP JUMPDEST PUSH1 0x40 MLOAD DUP1 SWAP2 SUB SWAP1 REVERT JUMPDEST PUSH2 0x9D8 DUP3 PUSH2 0x2A33 JUMP JUMPDEST PUSH2 0xA17 JUMPI PUSH1 0x40 MLOAD PUSH32 0x8C379A000000000000000000000000000000000000000000000000000000000 DUP2 MSTORE PUSH1 0x4 ADD PUSH2 0xA0E SWAP1 PUSH2 0x3C6F JUMP JUMPDEST PUSH1 0x40 MLOAD DUP1 SWAP2 SUB SWAP1 REVERT JUMPDEST PUSH1 0x5 SLOAD DUP2 LT ISZERO PUSH2 0xA5C JUMPI PUSH1 0x40 MLOAD PUSH32 0x8C379A000000000000000000000000000000000000000000000000000000000 DUP2 MSTORE PUSH1 0x4 ADD PUSH2 0xA53 SWAP1 PUSH2 0x3D01 JUMP JUMPDEST PUSH1 0x40 MLOAD DUP1 SWAP2 SUB SWAP1 REVERT JUMPDEST PUSH1 0x0 PUSH1 0x9 PUSH1 0x0 DUP5 DUP2 MSTORE PUSH1 0x20 ADD SWAP1 DUP2 MSTORE PUSH1 0x20 ADD PUSH1 0x0 KECCAK256 PUSH1 0x0 CALLER PUSH20 0xFFFFFFFFFFFFFFFFFFFFFFFFFFFFFFFFFFFFFFFF AND PUSH20 0xFFFFFFFFFFFFFFFFFFFFFFFFFFFFFFFFFFFFFFFF AND DUP2 MSTORE PUSH1 0x20 ADD SWAP1 DUP2 MSTORE PUSH1 0x20 ADD PUSH1 0x0 KECCAK256 PUSH1 0x1 ADD SLOAD EQ PUSH2 0xAF2 JUMPI PUSH1 0x40 MLOAD PUSH32 0x8C379A000000000000000000000000000000000000000000000000000000000 DUP2 MSTORE PUSH1 0x4 ADD PUSH2 0xAE9 SWAP1 PUSH2 0x3D6D JUMP JUMPDEST PUSH1 0x40 MLOAD DUP1 SWAP2 SUB SWAP1 REVERT JUMPDEST PUSH1 0x2 PUSH1 0x0 SWAP1 SLOAD SWAP1 PUSH2 0x100 EXP SWAP1 DIV PUSH20 0xFFFFFFFFFFFFFFFFFFFFFFFFFFFFFFFFFFFFFFFF AND PUSH20 0xFFFFFFFFFFFFFFFFFFFFFFFFFFFFFFFFFFFFFFFF AND PUSH4 0x23B872DD CALLER ADDRESS DUP5 PUSH1 0x40 MLOAD DUP5 PUSH4 0xFFFFFFFF AND PUSH1 0xE0 SHL DUP2 MSTORE PUSH1 0x4 ADD PUSH2 0xB51 SWAP4 SWAP3 SWAP2 SWAP1 PUSH2 0x3D8D JUMP JUMPDEST PUSH1 0x20 PUSH1 0x40 MLOAD DUP1 DUP4 SUB DUP2 PUSH1 0x0 DUP8 DUP1 EXTCODESIZE ISZERO DUP1 ISZERO PUSH2 0xB6B JUMPI PUSH1 0x0 DUP1 REVERT JUMPDEST POP GAS CALL ISZERO DUP1 ISZERO PUSH2 0xB7F JUMPI RETURNDATASIZE PUSH1 0x0 DUP1 RETURNDATACOPY RETURNDATASIZE PUSH1 0x0 REVERT JUMPDEST POP POP POP POP PUSH1 0x40 MLOAD RETURNDATASIZE PUSH1 0x1F NOT PUSH1 0x1F DUP3 ADD AND DUP3 ADD DUP1 PUSH1 0x40 MSTORE POP DUP2 ADD SWAP1 PUSH2 0xBA3 SWAP2 SWAP1 PUSH2 0x3909 JUMP JUMPDEST POP PUSH1 0x0 DUP2 SWAP1 POP PUSH1 0x0 PUSH1 0xA PUSH1 0x0 DUP6 DUP2 MSTORE PUSH1 0x20 ADD SWAP1 DUP2 MSTORE PUSH1 0x20 ADD PUSH1 0x0 KECCAK256 SWAP1 POP DUP2 DUP2 PUSH1 0x4 ADD SLOAD PUSH2 0xBD0 SWAP2 SWAP1 PUSH2 0x3AF5 JUMP JUMPDEST DUP2 PUSH1 0x4 ADD DUP2 SWAP1 SSTORE POP DUP2 DUP2 PUSH1 0x6 ADD SLOAD PUSH2 0xBE8 SWAP2 SWAP1 PUSH2 0x3AF5 JUMP JUMPDEST DUP2 PUSH1 0x6 ADD DUP2 SWAP1 SSTORE POP PUSH1 0x0 PUSH1 0x9 PUSH1 0x0 DUP7 DUP2 MSTORE PUSH1 0x20 ADD SWAP1 DUP2 MSTORE PUSH1 0x20 ADD PUSH1 0x0 KECCAK256 PUSH1 0x0 CALLER PUSH20 0xFFFFFFFFFFFFFFFFFFFFFFFFFFFFFFFFFFFFFFFF AND PUSH20 0xFFFFFFFFFFFFFFFFFFFFFFFFFFFFFFFFFFFFFFFF AND DUP2 MSTORE PUSH1 0x20 ADD SWAP1 DUP2 MSTORE PUSH1 0x20 ADD PUSH1 0x0 KECCAK256 SWAP1 POP PUSH1 0x1 DUP2 PUSH1 0x0 ADD PUSH1 0x0 PUSH2 0x100 EXP DUP2 SLOAD DUP2 PUSH1 0xFF MUL NOT AND SWAP1 DUP4 PUSH1 0x1 DUP2 GT ISZERO PUSH2 0xC6C JUMPI PUSH2 0xC6B PUSH2 0x338C JUMP JUMPDEST JUMPDEST MUL OR SWAP1 SSTORE POP DUP3 DUP2 PUSH1 0x1 ADD DUP2 SWAP1 SSTORE POP PUSH1 0xB PUSH1 0x0 CALLER PUSH20 0xFFFFFFFFFFFFFFFFFFFFFFFFFFFFFFFFFFFFFFFF AND PUSH20 0xFFFFFFFFFFFFFFFFFFFFFFFFFFFFFFFFFFFFFFFF AND DUP2 MSTORE PUSH1 0x20 ADD SWAP1 DUP2 MSTORE PUSH1 0x20 ADD PUSH1 0x0 KECCAK256 DUP6 SWAP1 DUP1 PUSH1 0x1 DUP2 SLOAD ADD DUP1 DUP3 SSTORE DUP1 SWAP2 POP POP PUSH1 0x1 SWAP1 SUB SWAP1 PUSH1 0x0 MSTORE PUSH1 0x20 PUSH1 0x0 KECCAK256 ADD PUSH1 0x0 SWAP1 SWAP2 SWAP1 SWAP2 SWAP1 SWAP2 POP SSTORE DUP5 CALLER PUSH20 0xFFFFFFFFFFFFFFFFFFFFFFFFFFFFFFFFFFFFFFFF AND PUSH32 0xD8C1FE3E67AB767116A81F122B83C2557A8C2564019CB7C4F83DE1AEB1F1F0D DUP6 PUSH1 0x40 MLOAD PUSH2 0xD27 SWAP2 SWAP1 PUSH2 0x31A2 JUMP JUMPDEST PUSH1 0x40 MLOAD DUP1 SWAP2 SUB SWAP1 LOG3 POP POP POP PUSH2 0xD3A PUSH2 0x29CD JUMP JUMPDEST POP POP JUMP JUMPDEST PUSH1 0x4 PUSH1 0x0 SWAP1 SLOAD SWAP1 PUSH2 0x100 EXP SWAP1 DIV PUSH20 0xFFFFFFFFFFFFFFFFFFFFFFFFFFFFFFFFFFFFFFFF AND DUP2 JUMP JUMPDEST PUSH1 0x0 PUSH1 0xB PUSH1 0x0 DUP4 PUSH20 0xFFFFFFFFFFFFFFFFFFFFFFFFFFFFFFFFFFFFFFFF AND PUSH20 0xFFFFFFFFFFFFFFFFFFFFFFFFFFFFFFFFFFFFFFFF AND DUP2 MSTORE PUSH1 0x20 ADD SWAP1 DUP2 MSTORE PUSH1 0x20 ADD PUSH1 0x0 KECCAK256 DUP1 SLOAD SWAP1 POP SWAP1 POP SWAP2 SWAP1 POP JUMP JUMPDEST PUSH1 0x7 SLOAD DUP2 JUMP JUMPDEST PUSH2 0xDBE PUSH2 0x29D6 JUMP JUMPDEST PUSH2 0xDC6 PUSH2 0x297D JUMP JUMPDEST PUSH2 0xDCF CALLER PUSH2 0x2A20 JUMP JUMPDEST ISZERO PUSH2 0xE0F JUMPI PUSH1 0x40 MLOAD PUSH32 0x8C379A000000000000000000000000000000000000000000000000000000000 DUP2 MSTORE PUSH1 0x4 ADD PUSH2 0xE06 SWAP1 PUSH2 0x3B97 JUMP JUMPDEST PUSH1 0x40 MLOAD DUP1 SWAP2 SUB SWAP1 REVERT JUMPDEST ORIGIN PUSH20 0xFFFFFFFFFFFFFFFFFFFFFFFFFFFFFFFFFFFFFFFF AND CALLER PUSH20 0xFFFFFFFFFFFFFFFFFFFFFFFFFFFFFFFFFFFFFFFF AND EQ PUSH2 0xE7D JUMPI PUSH1 0x40 MLOAD PUSH32 0x8C379A000000000000000000000000000000000000000000000000000000000 DUP2 MSTORE PUSH1 0x4 ADD PUSH2 0xE74 SWAP1 PUSH2 0x3C03 JUMP JUMPDEST PUSH1 0x40 MLOAD DUP1 SWAP2 SUB SWAP1 REVERT JUMPDEST PUSH2 0xE86 DUP3 PUSH2 0x2A33 JUMP JUMPDEST PUSH2 0xEC5 JUMPI PUSH1 0x40 MLOAD PUSH32 0x8C379A000000000000000000000000000000000000000000000000000000000 DUP2 MSTORE PUSH1 0x4 ADD PUSH2 0xEBC SWAP1 PUSH2 0x3C6F JUMP JUMPDEST PUSH1 0x40 MLOAD DUP1 SWAP2 SUB SWAP1 REVERT JUMPDEST PUSH1 0x5 SLOAD DUP2 LT ISZERO PUSH2 0xF0A JUMPI PUSH1 0x40 MLOAD PUSH32 0x8C379A000000000000000000000000000000000000000000000000000000000 DUP2 MSTORE PUSH1 0x4 ADD PUSH2 0xF01 SWAP1 PUSH2 0x3D01 JUMP JUMPDEST PUSH1 0x40 MLOAD DUP1 SWAP2 SUB SWAP1 REVERT JUMPDEST PUSH1 0x0 PUSH1 0x9 PUSH1 0x0 DUP5 DUP2 MSTORE PUSH1 0x20 ADD SWAP1 DUP2 MSTORE PUSH1 0x20 ADD PUSH1 0x0 KECCAK256 PUSH1 0x0 CALLER PUSH20 0xFFFFFFFFFFFFFFFFFFFFFFFFFFFFFFFFFFFFFFFF AND PUSH20 0xFFFFFFFFFFFFFFFFFFFFFFFFFFFFFFFFFFFFFFFF AND DUP2 MSTORE PUSH1 0x20 ADD SWAP1 DUP2 MSTORE PUSH1 0x20 ADD PUSH1 0x0 KECCAK256 PUSH1 0x1 ADD SLOAD EQ PUSH2 0xFA0 JUMPI PUSH1 0x40 MLOAD PUSH32 0x8C379A000000000000000000000000000000000000000000000000000000000 DUP2 MSTORE PUSH1 0x4 ADD PUSH2 0xF97 SWAP1 PUSH2 0x3D6D JUMP JUMPDEST PUSH1 0x40 MLOAD DUP1 SWAP2 SUB SWAP1 REVERT JUMPDEST PUSH1 0x2 PUSH1 0x0 SWAP1 SLOAD SWAP1 PUSH2 0x100 EXP SWAP1 DIV PUSH20 0xFFFFFFFFFFFFFFFFFFFFFFFFFFFFFFFFFFFFFFFF AND PUSH20 0xFFFFFFFFFFFFFFFFFFFFFFFFFFFFFFFFFFFFFFFF AND PUSH4 0x23B872DD CALLER ADDRESS DUP5 PUSH1 0x40 MLOAD DUP5 PUSH4 0xFFFFFFFF AND PUSH1 0xE0 SHL DUP2 MSTORE PUSH1 0x4 ADD PUSH2 0xFFF SWAP4 SWAP3 SWAP2 SWAP1 PUSH2 0x3D8D JUMP JUMPDEST PUSH1 0x20 PUSH1 0x40 MLOAD DUP1 DUP4 SUB DUP2 PUSH1 0x0 DUP8 DUP1 EXTCODESIZE ISZERO DUP1 ISZERO PUSH2 0x1019 JUMPI PUSH1 0x0 DUP1 REVERT JUMPDEST POP GAS CALL ISZERO DUP1 ISZERO PUSH2 0x102D JUMPI RETURNDATASIZE PUSH1 0x0 DUP1 RETURNDATACOPY RETURNDATASIZE PUSH1 0x0 REVERT JUMPDEST POP POP POP POP PUSH1 0x40 MLOAD RETURNDATASIZE PUSH1 0x1F NOT PUSH1 0x1F DUP3 ADD AND DUP3 ADD DUP1 PUSH1 0x40 MSTORE POP DUP2 ADD SWAP1 PUSH2 0x1051 SWAP2 SWAP1 PUSH2 0x3909 JUMP JUMPDEST POP PUSH1 0x0 DUP2 SWAP1 POP PUSH1 0x0 PUSH1 0xA PUSH1 0x0 DUP6 DUP2 MSTORE PUSH1 0x20 ADD SWAP1 DUP2 MSTORE PUSH1 0x20 ADD PUSH1 0x0 KECCAK256 SWAP1 POP DUP2 DUP2 PUSH1 0x4 ADD SLOAD PUSH2 0x107E SWAP2 SWAP1 PUSH2 0x3AF5 JUMP JUMPDEST DUP2 PUSH1 0x4 ADD DUP2 SWAP1 SSTORE POP DUP2 DUP2 PUSH1 0x5 ADD SLOAD PUSH2 0x1096 SWAP2 SWAP1 PUSH2 0x3AF5 JUMP JUMPDEST DUP2 PUSH1 0x5 ADD DUP2 SWAP1 SSTORE POP PUSH1 0x0 PUSH1 0x9 PUSH1 0x0 DUP7 DUP2 MSTORE PUSH1 0x20 ADD SWAP1 DUP2 MSTORE PUSH1 0x20 ADD PUSH1 0x0 KECCAK256 PUSH1 0x0 CALLER PUSH20 0xFFFFFFFFFFFFFFFFFFFFFFFFFFFFFFFFFFFFFFFF AND PUSH20 0xFFFFFFFFFFFFFFFFFFFFFFFFFFFFFFFFFFFFFFFF AND DUP2 MSTORE PUSH1 0x20 ADD SWAP1 DUP2 MSTORE PUSH1 0x20 ADD PUSH1 0x0 KECCAK256 SWAP1 POP PUSH1 0x0 DUP2 PUSH1 0x0 ADD PUSH1 0x0 PUSH2 0x100 EXP DUP2 SLOAD DUP2 PUSH1 0xFF MUL NOT AND SWAP1 DUP4 PUSH1 0x1 DUP2 GT ISZERO PUSH2 0x111A JUMPI PUSH2 0x1119 PUSH2 0x338C JUMP JUMPDEST JUMPDEST MUL OR SWAP1 SSTORE POP DUP3 DUP2 PUSH1 0x1 ADD DUP2 SWAP1 SSTORE POP PUSH1 0xB PUSH1 0x0 CALLER PUSH20 0xFFFFFFFFFFFFFFFFFFFFFFFFFFFFFFFFFFFFFFFF AND PUSH20 0xFFFFFFFFFFFFFFFFFFFFFFFFFFFFFFFFFFFFFFFF AND DUP2 MSTORE PUSH1 0x20 ADD SWAP1 DUP2 MSTORE PUSH1 0x20 ADD PUSH1 0x0 KECCAK256 DUP6 SWAP1 DUP1 PUSH1 0x1 DUP2 SLOAD ADD DUP1 DUP3 SSTORE DUP1 SWAP2 POP POP PUSH1 0x1 SWAP1 SUB SWAP1 PUSH1 0x0 MSTORE PUSH1 0x20 PUSH1 0x0 KECCAK256 ADD PUSH1 0x0 SWAP1 SWAP2 SWAP1 SWAP2 SWAP1 SWAP2 POP SSTORE DUP5 CALLER PUSH20 0xFFFFFFFFFFFFFFFFFFFFFFFFFFFFFFFFFFFFFFFF AND PUSH32 0x438122D8CFF518D18388099A5181F0D17A12B4F1B55FAEDF6E4A6ACEE0060C12 DUP6 PUSH1 0x40 MLOAD PUSH2 0x11D5 SWAP2 SWAP1 PUSH2 0x31A2 JUMP JUMPDEST PUSH1 0x40 MLOAD DUP1 SWAP2 SUB SWAP1 LOG3 POP POP POP PUSH2 0x11E8 PUSH2 0x29CD JUMP JUMPDEST POP POP JUMP JUMPDEST PUSH2 0x11F4 PUSH2 0x2ABB JUMP JUMPDEST PUSH1 0x3 PUSH1 0x0 SWAP1 SLOAD SWAP1 PUSH2 0x100 EXP SWAP1 DIV PUSH20 0xFFFFFFFFFFFFFFFFFFFFFFFFFFFFFFFFFFFFFFFF AND PUSH20 0xFFFFFFFFFFFFFFFFFFFFFFFFFFFFFFFFFFFFFFFF AND CALLER PUSH20 0xFFFFFFFFFFFFFFFFFFFFFFFFFFFFFFFFFFFFFFFF AND EQ DUP1 PUSH2 0x129D JUMPI POP PUSH1 0x4 PUSH1 0x0 SWAP1 SLOAD SWAP1 PUSH2 0x100 EXP SWAP1 DIV PUSH20 0xFFFFFFFFFFFFFFFFFFFFFFFFFFFFFFFFFFFFFFFF AND PUSH20 0xFFFFFFFFFFFFFFFFFFFFFFFFFFFFFFFFFFFFFFFF AND CALLER PUSH20 0xFFFFFFFFFFFFFFFFFFFFFFFFFFFFFFFFFFFFFFFF AND EQ JUMPDEST PUSH2 0x12DC JUMPI PUSH1 0x40 MLOAD PUSH32 0x8C379A000000000000000000000000000000000000000000000000000000000 DUP2 MSTORE PUSH1 0x4 ADD PUSH2 0x12D3 SWAP1 PUSH2 0x3E10 JUMP JUMPDEST PUSH1 0x40 MLOAD DUP1 SWAP2 SUB SWAP1 REVERT JUMPDEST PUSH2 0x12E4 PUSH2 0x2B04 JUMP JUMPDEST PUSH1 0x8 SLOAD PUSH32 0xAAA520FDD7D2C83061D632FA017B0432407E798818AF63EA908589FCEDA39AB7 PUSH1 0x40 MLOAD PUSH1 0x40 MLOAD DUP1 SWAP2 SUB SWAP1 LOG2 JUMP JUMPDEST PUSH1 0x2 PUSH1 0x0 SWAP1 SLOAD SWAP1 PUSH2 0x100 EXP SWAP1 DIV PUSH20 0xFFFFFFFFFFFFFFFFFFFFFFFFFFFFFFFFFFFFFFFF AND DUP2 JUMP JUMPDEST PUSH1 0x0 DUP1 PUSH1 0x14 SWAP1 SLOAD SWAP1 PUSH2 0x100 EXP SWAP1 DIV PUSH1 0xFF AND SWAP1 POP SWAP1 JUMP JUMPDEST PUSH2 0x1359 PUSH2 0x297D JUMP JUMPDEST PUSH2 0x1362 CALLER PUSH2 0x2A20 JUMP JUMPDEST ISZERO PUSH2 0x13A2 JUMPI PUSH1 0x40 MLOAD PUSH32 0x8C379A000000000000000000000000000000000000000000000000000000000 DUP2 MSTORE PUSH1 0x4 ADD PUSH2 0x1399 SWAP1 PUSH2 0x3B97 JUMP JUMPDEST PUSH1 0x40 MLOAD DUP1 SWAP2 SUB SWAP1 REVERT JUMPDEST ORIGIN PUSH20 0xFFFFFFFFFFFFFFFFFFFFFFFFFFFFFFFFFFFFFFFF AND CALLER PUSH20 0xFFFFFFFFFFFFFFFFFFFFFFFFFFFFFFFFFFFFFFFF AND EQ PUSH2 0x1410 JUMPI PUSH1 0x40 MLOAD PUSH32 0x8C379A000000000000000000000000000000000000000000000000000000000 DUP2 MSTORE PUSH1 0x4 ADD PUSH2 0x1407 SWAP1 PUSH2 0x3C03 JUMP JUMPDEST PUSH1 0x40 MLOAD DUP1 SWAP2 SUB SWAP1 REVERT JUMPDEST PUSH1 0x0 DUP1 PUSH1 0x0 SWAP1 POP JUMPDEST DUP4 DUP4 SWAP1 POP DUP2 LT ISZERO PUSH2 0x1838 JUMPI PUSH1 0x0 PUSH1 0xA PUSH1 0x0 DUP7 DUP7 DUP6 DUP2 DUP2 LT PUSH2 0x143C JUMPI PUSH2 0x143B PUSH2 0x3E30 JUMP JUMPDEST JUMPDEST SWAP1 POP PUSH1 0x20 MUL ADD CALLDATALOAD DUP2 MSTORE PUSH1 0x20 ADD SWAP1 DUP2 MSTORE PUSH1 0x20 ADD PUSH1 0x0 KECCAK256 PUSH1 0x1 ADD SLOAD EQ ISZERO PUSH2 0x1496 JUMPI PUSH1 0x40 MLOAD PUSH32 0x8C379A000000000000000000000000000000000000000000000000000000000 DUP2 MSTORE PUSH1 0x4 ADD PUSH2 0x148D SWAP1 PUSH2 0x3EAB JUMP JUMPDEST PUSH1 0x40 MLOAD DUP1 SWAP2 SUB SWAP1 REVERT JUMPDEST PUSH1 0xA PUSH1 0x0 DUP6 DUP6 DUP5 DUP2 DUP2 LT PUSH2 0x14AD JUMPI PUSH2 0x14AC PUSH2 0x3E30 JUMP JUMPDEST JUMPDEST SWAP1 POP PUSH1 0x20 MUL ADD CALLDATALOAD DUP2 MSTORE PUSH1 0x20 ADD SWAP1 DUP2 MSTORE PUSH1 0x20 ADD PUSH1 0x0 KECCAK256 PUSH1 0x3 ADD SLOAD TIMESTAMP GT PUSH2 0x1507 JUMPI PUSH1 0x40 MLOAD PUSH32 0x8C379A000000000000000000000000000000000000000000000000000000000 DUP2 MSTORE PUSH1 0x4 ADD PUSH2 0x14FE SWAP1 PUSH2 0x3F17 JUMP JUMPDEST PUSH1 0x40 MLOAD DUP1 SWAP2 SUB SWAP1 REVERT JUMPDEST PUSH1 0x0 PUSH1 0xA PUSH1 0x0 DUP7 DUP7 DUP6 DUP2 DUP2 LT PUSH2 0x1520 JUMPI PUSH2 0x151F PUSH2 0x3E30 JUMP JUMPDEST JUMPDEST SWAP1 POP PUSH1 0x20 MUL ADD CALLDATALOAD DUP2 MSTORE PUSH1 0x20 ADD SWAP1 DUP2 MSTORE PUSH1 0x20 ADD PUSH1 0x0 KECCAK256 PUSH1 0x9 ADD PUSH1 0x0 SWAP1 SLOAD SWAP1 PUSH2 0x100 EXP SWAP1 DIV PUSH1 0xFF AND ISZERO PUSH2 0x1729 JUMPI PUSH2 0x156E DUP6 DUP6 DUP5 DUP2 DUP2 LT PUSH2 0x1561 JUMPI PUSH2 0x1560 PUSH2 0x3E30 JUMP JUMPDEST JUMPDEST SWAP1 POP PUSH1 0x20 MUL ADD CALLDATALOAD CALLER PUSH2 0x2175 JUMP JUMPDEST PUSH2 0x15AD JUMPI PUSH1 0x40 MLOAD PUSH32 0x8C379A000000000000000000000000000000000000000000000000000000000 DUP2 MSTORE PUSH1 0x4 ADD PUSH2 0x15A4 SWAP1 PUSH2 0x3F83 JUMP JUMPDEST PUSH1 0x40 MLOAD DUP1 SWAP2 SUB SWAP1 REVERT JUMPDEST PUSH1 0x0 PUSH1 0xA PUSH1 0x0 DUP8 DUP8 DUP7 DUP2 DUP2 LT PUSH2 0x15C6 JUMPI PUSH2 0x15C5 PUSH2 0x3E30 JUMP JUMPDEST JUMPDEST SWAP1 POP PUSH1 0x20 MUL ADD CALLDATALOAD DUP2 MSTORE PUSH1 0x20 ADD SWAP1 DUP2 MSTORE PUSH1 0x20 ADD PUSH1 0x0 KECCAK256 PUSH1 0x40 MLOAD DUP1 PUSH2 0x160 ADD PUSH1 0x40 MSTORE SWAP1 DUP2 PUSH1 0x0 DUP3 ADD SLOAD DUP2 MSTORE PUSH1 0x20 ADD PUSH1 0x1 DUP3 ADD SLOAD DUP2 MSTORE PUSH1 0x20 ADD PUSH1 0x2 DUP3 ADD SLOAD DUP2 MSTORE PUSH1 0x20 ADD PUSH1 0x3 DUP3 ADD SLOAD DUP2 MSTORE PUSH1 0x20 ADD PUSH1 0x4 DUP3 ADD SLOAD DUP2 MSTORE PUSH1 0x20 ADD PUSH1 0x5 DUP3 ADD SLOAD DUP2 MSTORE PUSH1 0x20 ADD PUSH1 0x6 DUP3 ADD SLOAD DUP2 MSTORE PUSH1 0x20 ADD PUSH1 0x7 DUP3 ADD SLOAD DUP2 MSTORE PUSH1 0x20 ADD PUSH1 0x8 DUP3 ADD SLOAD DUP2 MSTORE PUSH1 0x20 ADD PUSH1 0x9 DUP3 ADD PUSH1 0x0 SWAP1 SLOAD SWAP1 PUSH2 0x100 EXP SWAP1 DIV PUSH1 0xFF AND ISZERO ISZERO ISZERO ISZERO DUP2 MSTORE PUSH1 0x20 ADD PUSH1 0x9 DUP3 ADD PUSH1 0x1 SWAP1 SLOAD SWAP1 PUSH2 0x100 EXP SWAP1 DIV PUSH1 0xFF AND PUSH1 0x2 DUP2 GT ISZERO PUSH2 0x1681 JUMPI PUSH2 0x1680 PUSH2 0x338C JUMP JUMPDEST JUMPDEST PUSH1 0x2 DUP2 GT ISZERO PUSH2 0x1693 JUMPI PUSH2 0x1692 PUSH2 0x338C JUMP JUMPDEST JUMPDEST DUP2 MSTORE POP POP SWAP1 POP DUP1 PUSH1 0xE0 ADD MLOAD DUP2 PUSH2 0x100 ADD MLOAD PUSH1 0x9 PUSH1 0x0 DUP10 DUP10 DUP9 DUP2 DUP2 LT PUSH2 0x16BB JUMPI PUSH2 0x16BA PUSH2 0x3E30 JUMP JUMPDEST JUMPDEST SWAP1 POP PUSH1 0x20 MUL ADD CALLDATALOAD DUP2 MSTORE PUSH1 0x20 ADD SWAP1 DUP2 MSTORE PUSH1 0x20 ADD PUSH1 0x0 KECCAK256 PUSH1 0x0 CALLER PUSH20 0xFFFFFFFFFFFFFFFFFFFFFFFFFFFFFFFFFFFFFFFF AND PUSH20 0xFFFFFFFFFFFFFFFFFFFFFFFFFFFFFFFFFFFFFFFF AND DUP2 MSTORE PUSH1 0x20 ADD SWAP1 DUP2 MSTORE PUSH1 0x20 ADD PUSH1 0x0 KECCAK256 PUSH1 0x1 ADD SLOAD PUSH2 0x171B SWAP2 SWAP1 PUSH2 0x3FA3 JUMP JUMPDEST PUSH2 0x1725 SWAP2 SWAP1 PUSH2 0x402C JUMP JUMPDEST SWAP2 POP POP JUMPDEST PUSH1 0x1 PUSH1 0x9 PUSH1 0x0 DUP8 DUP8 DUP7 DUP2 DUP2 LT PUSH2 0x1742 JUMPI PUSH2 0x1741 PUSH2 0x3E30 JUMP JUMPDEST JUMPDEST SWAP1 POP PUSH1 0x20 MUL ADD CALLDATALOAD DUP2 MSTORE PUSH1 0x20 ADD SWAP1 DUP2 MSTORE PUSH1 0x20 ADD PUSH1 0x0 KECCAK256 PUSH1 0x0 CALLER PUSH20 0xFFFFFFFFFFFFFFFFFFFFFFFFFFFFFFFFFFFFFFFF AND PUSH20 0xFFFFFFFFFFFFFFFFFFFFFFFFFFFFFFFFFFFFFFFF AND DUP2 MSTORE PUSH1 0x20 ADD SWAP1 DUP2 MSTORE PUSH1 0x20 ADD PUSH1 0x0 KECCAK256 PUSH1 0x2 ADD PUSH1 0x0 PUSH2 0x100 EXP DUP2 SLOAD DUP2 PUSH1 0xFF MUL NOT AND SWAP1 DUP4 ISZERO ISZERO MUL OR SWAP1 SSTORE POP DUP1 DUP4 PUSH2 0x17BA SWAP2 SWAP1 PUSH2 0x3AF5 JUMP JUMPDEST SWAP3 POP DUP5 DUP5 DUP4 DUP2 DUP2 LT PUSH2 0x17CF JUMPI PUSH2 0x17CE PUSH2 0x3E30 JUMP JUMPDEST JUMPDEST SWAP1 POP PUSH1 0x20 MUL ADD CALLDATALOAD CALLER PUSH20 0xFFFFFFFFFFFFFFFFFFFFFFFFFFFFFFFFFFFFFFFF AND PUSH32 0x34FCBAC0073D7C3D388E51312FAF357774904998EEB8FCA628B9E6F65EE1CBF7 DUP4 PUSH1 0x40 MLOAD PUSH2 0x181C SWAP2 SWAP1 PUSH2 0x31A2 JUMP JUMPDEST PUSH1 0x40 MLOAD DUP1 SWAP2 SUB SWAP1 LOG3 POP DUP1 DUP1 PUSH2 0x1830 SWAP1 PUSH2 0x405D JUMP JUMPDEST SWAP2 POP POP PUSH2 0x1418 JUMP JUMPDEST POP PUSH1 0x0 DUP2 GT ISZERO PUSH2 0x18F3 JUMPI PUSH1 0x2 PUSH1 0x0 SWAP1 SLOAD SWAP1 PUSH2 0x100 EXP SWAP1 DIV PUSH20 0xFFFFFFFFFFFFFFFFFFFFFFFFFFFFFFFFFFFFFFFF AND PUSH20 0xFFFFFFFFFFFFFFFFFFFFFFFFFFFFFFFFFFFFFFFF AND PUSH4 0xA9059CBB CALLER DUP4 PUSH1 0x40 MLOAD DUP4 PUSH4 0xFFFFFFFF AND PUSH1 0xE0 SHL DUP2 MSTORE PUSH1 0x4 ADD PUSH2 0x189F SWAP3 SWAP2 SWAP1 PUSH2 0x38B4 JUMP JUMPDEST PUSH1 0x20 PUSH1 0x40 MLOAD DUP1 DUP4 SUB DUP2 PUSH1 0x0 DUP8 DUP1 EXTCODESIZE ISZERO DUP1 ISZERO PUSH2 0x18B9 JUMPI PUSH1 0x0 DUP1 REVERT JUMPDEST POP GAS CALL ISZERO DUP1 ISZERO PUSH2 0x18CD JUMPI RETURNDATASIZE PUSH1 0x0 DUP1 RETURNDATACOPY RETURNDATASIZE PUSH1 0x0 REVERT JUMPDEST POP POP POP POP PUSH1 0x40 MLOAD RETURNDATASIZE PUSH1 0x1F NOT PUSH1 0x1F DUP3 ADD AND DUP3 ADD DUP1 PUSH1 0x40 MSTORE POP DUP2 ADD SWAP1 PUSH2 0x18F1 SWAP2 SWAP1 PUSH2 0x3909 JUMP JUMPDEST POP JUMPDEST POP PUSH2 0x18FC PUSH2 0x29CD JUMP JUMPDEST POP POP JUMP JUMPDEST PUSH2 0x1908 PUSH2 0x2ABB JUMP JUMPDEST PUSH1 0x3 PUSH1 0x0 SWAP1 SLOAD SWAP1 PUSH2 0x100 EXP SWAP1 DIV PUSH20 0xFFFFFFFFFFFFFFFFFFFFFFFFFFFFFFFFFFFFFFFF AND PUSH20 0xFFFFFFFFFFFFFFFFFFFFFFFFFFFFFFFFFFFFFFFF AND CALLER PUSH20 0xFFFFFFFFFFFFFFFFFFFFFFFFFFFFFFFFFFFFFFFF AND EQ PUSH2 0x1998 JUMPI PUSH1 0x40 MLOAD PUSH32 0x8C379A000000000000000000000000000000000000000000000000000000000 DUP2 MSTORE PUSH1 0x4 ADD PUSH2 0x198F SWAP1 PUSH2 0x3894 JUMP JUMPDEST PUSH1 0x40 MLOAD DUP1 SWAP2 SUB SWAP1 REVERT JUMPDEST PUSH1 0x0 DUP2 EQ ISZERO PUSH2 0x19DC JUMPI PUSH1 0x40 MLOAD PUSH32 0x8C379A000000000000000000000000000000000000000000000000000000000 DUP2 MSTORE PUSH1 0x4 ADD PUSH2 0x19D3 SWAP1 PUSH2 0x40F2 JUMP JUMPDEST PUSH1 0x40 MLOAD DUP1 SWAP2 SUB SWAP1 REVERT JUMPDEST DUP1 PUSH1 0x5 DUP2 SWAP1 SSTORE POP PUSH1 0x8 SLOAD PUSH32 0x90EB87C560A0213754CEB3A7FA3012F01ACAB0A35602C1E1995ADF69DABC9D50 PUSH1 0x5 SLOAD PUSH1 0x40 MLOAD PUSH2 0x1A17 SWAP2 SWAP1 PUSH2 0x31A2 JUMP JUMPDEST PUSH1 0x40 MLOAD DUP1 SWAP2 SUB SWAP1 LOG2 POP JUMP JUMPDEST PUSH2 0x1A2A PUSH2 0x2B66 JUMP JUMPDEST PUSH1 0x0 PUSH20 0xFFFFFFFFFFFFFFFFFFFFFFFFFFFFFFFFFFFFFFFF AND DUP2 PUSH20 0xFFFFFFFFFFFFFFFFFFFFFFFFFFFFFFFFFFFFFFFF AND EQ ISZERO PUSH2 0x1A9A JUMPI PUSH1 0x40 MLOAD PUSH32 0x8C379A000000000000000000000000000000000000000000000000000000000 DUP2 MSTORE PUSH1 0x4 ADD PUSH2 0x1A91 SWAP1 PUSH2 0x415E JUMP JUMPDEST PUSH1 0x40 MLOAD DUP1 SWAP2 SUB SWAP1 REVERT JUMPDEST DUP1 PUSH1 0x3 PUSH1 0x0 PUSH2 0x100 EXP DUP2 SLOAD DUP2 PUSH20 0xFFFFFFFFFFFFFFFFFFFFFFFFFFFFFFFFFFFFFFFF MUL NOT AND SWAP1 DUP4 PUSH20 0xFFFFFFFFFFFFFFFFFFFFFFFFFFFFFFFFFFFFFFFF AND MUL OR SWAP1 SSTORE POP PUSH32 0x137B621413925496477D46E5055AC0D56178BDD724BA8BF843AFCEEF18268BA3 DUP2 PUSH1 0x40 MLOAD PUSH2 0x1B0A SWAP2 SWAP1 PUSH2 0x311F JUMP JUMPDEST PUSH1 0x40 MLOAD DUP1 SWAP2 SUB SWAP1 LOG1 POP JUMP JUMPDEST PUSH2 0x1B1D PUSH2 0x2B66 JUMP JUMPDEST PUSH2 0x1B27 PUSH1 0x0 PUSH2 0x2BE4 JUMP JUMPDEST JUMP JUMPDEST PUSH1 0x9 PUSH1 0x20 MSTORE DUP2 PUSH1 0x0 MSTORE PUSH1 0x40 PUSH1 0x0 KECCAK256 PUSH1 0x20 MSTORE DUP1 PUSH1 0x0 MSTORE PUSH1 0x40 PUSH1 0x0 KECCAK256 PUSH1 0x0 SWAP2 POP SWAP2 POP POP DUP1 PUSH1 0x0 ADD PUSH1 0x0 SWAP1 SLOAD SWAP1 PUSH2 0x100 EXP SWAP1 DIV PUSH1 0xFF AND SWAP1 DUP1 PUSH1 0x1 ADD SLOAD SWAP1 DUP1 PUSH1 0x2 ADD PUSH1 0x0 SWAP1 SLOAD SWAP1 PUSH2 0x100 EXP SWAP1 DIV PUSH1 0xFF AND SWAP1 POP DUP4 JUMP JUMPDEST PUSH2 0x1B82 PUSH2 0x2ABB JUMP JUMPDEST PUSH1 0x3 PUSH1 0x0 SWAP1 SLOAD SWAP1 PUSH2 0x100 EXP SWAP1 DIV PUSH20 0xFFFFFFFFFFFFFFFFFFFFFFFFFFFFFFFFFFFFFFFF AND PUSH20 0xFFFFFFFFFFFFFFFFFFFFFFFFFFFFFFFFFFFFFFFF AND CALLER PUSH20 0xFFFFFFFFFFFFFFFFFFFFFFFFFFFFFFFFFFFFFFFF AND EQ PUSH2 0x1C12 JUMPI PUSH1 0x40 MLOAD PUSH32 0x8C379A000000000000000000000000000000000000000000000000000000000 DUP2 MSTORE PUSH1 0x4 ADD PUSH2 0x1C09 SWAP1 PUSH2 0x3894 JUMP JUMPDEST PUSH1 0x40 MLOAD DUP1 SWAP2 SUB SWAP1 REVERT JUMPDEST PUSH2 0x3E8 DUP2 GT ISZERO PUSH2 0x1C57 JUMPI PUSH1 0x40 MLOAD PUSH32 0x8C379A000000000000000000000000000000000000000000000000000000000 DUP2 MSTORE PUSH1 0x4 ADD PUSH2 0x1C4E SWAP1 PUSH2 0x41CA JUMP JUMPDEST PUSH1 0x40 MLOAD DUP1 SWAP2 SUB SWAP1 REVERT JUMPDEST DUP1 PUSH1 0x6 DUP2 SWAP1 SSTORE POP PUSH1 0x8 SLOAD PUSH32 0xB1C4EE38D35556741133DA7FF9B6F7AB0FA88D0406133126FF128F635490A857 PUSH1 0x6 SLOAD PUSH1 0x40 MLOAD PUSH2 0x1C92 SWAP2 SWAP1 PUSH2 0x31A2 JUMP JUMPDEST PUSH1 0x40 MLOAD DUP1 SWAP2 SUB SWAP1 LOG2 POP JUMP JUMPDEST PUSH2 0x1CA5 PUSH2 0x29D6 JUMP JUMPDEST PUSH1 0x3 PUSH1 0x0 SWAP1 SLOAD SWAP1 PUSH2 0x100 EXP SWAP1 DIV PUSH20 0xFFFFFFFFFFFFFFFFFFFFFFFFFFFFFFFFFFFFFFFF AND PUSH20 0xFFFFFFFFFFFFFFFFFFFFFFFFFFFFFFFFFFFFFFFF AND CALLER PUSH20 0xFFFFFFFFFFFFFFFFFFFFFFFFFFFFFFFFFFFFFFFF AND EQ DUP1 PUSH2 0x1D4E JUMPI POP PUSH1 0x4 PUSH1 0x0 SWAP1 SLOAD SWAP1 PUSH2 0x100 EXP SWAP1 DIV PUSH20 0xFFFFFFFFFFFFFFFFFFFFFFFFFFFFFFFFFFFFFFFF AND PUSH20 0xFFFFFFFFFFFFFFFFFFFFFFFFFFFFFFFFFFFFFFFF AND CALLER PUSH20 0xFFFFFFFFFFFFFFFFFFFFFFFFFFFFFFFFFFFFFFFF AND EQ JUMPDEST PUSH2 0x1D8D JUMPI PUSH1 0x40 MLOAD PUSH32 0x8C379A000000000000000000000000000000000000000000000000000000000 DUP2 MSTORE PUSH1 0x4 ADD PUSH2 0x1D84 SWAP1 PUSH2 0x3E10 JUMP JUMPDEST PUSH1 0x40 MLOAD DUP1 SWAP2 SUB SWAP1 REVERT JUMPDEST PUSH2 0x1D95 PUSH2 0x2CA8 JUMP JUMPDEST PUSH1 0x8 SLOAD PUSH32 0x68B095021B1F40FE513109F513C66692F0B3219AEE674A69F4EFC57BADB8201D PUSH1 0x40 MLOAD PUSH1 0x40 MLOAD DUP1 SWAP2 SUB SWAP1 LOG2 JUMP JUMPDEST PUSH1 0x8 SLOAD DUP2 JUMP JUMPDEST PUSH1 0xA PUSH1 0x20 MSTORE DUP1 PUSH1 0x0 MSTORE PUSH1 0x40 PUSH1 0x0 KECCAK256 PUSH1 0x0 SWAP2 POP SWAP1 POP DUP1 PUSH1 0x0 ADD SLOAD SWAP1 DUP1 PUSH1 0x1 ADD SLOAD SWAP1 DUP1 PUSH1 0x2 ADD SLOAD SWAP1 DUP1 PUSH1 0x3 ADD SLOAD SWAP1 DUP1 PUSH1 0x4 ADD SLOAD SWAP1 DUP1 PUSH1 0x5 ADD SLOAD SWAP1 DUP1 PUSH1 0x6 ADD SLOAD SWAP1 DUP1 PUSH1 0x7 ADD SLOAD SWAP1 DUP1 PUSH1 0x8 ADD SLOAD SWAP1 DUP1 PUSH1 0x9 ADD PUSH1 0x0 SWAP1 SLOAD SWAP1 PUSH2 0x100 EXP SWAP1 DIV PUSH1 0xFF AND SWAP1 DUP1 PUSH1 0x9 ADD PUSH1 0x1 SWAP1 SLOAD SWAP1 PUSH2 0x100 EXP SWAP1 DIV PUSH1 0xFF AND SWAP1 POP DUP12 JUMP JUMPDEST PUSH1 0x0 DUP1 PUSH1 0x0 SWAP1 SLOAD SWAP1 PUSH2 0x100 EXP SWAP1 DIV PUSH20 0xFFFFFFFFFFFFFFFFFFFFFFFFFFFFFFFFFFFFFFFF AND SWAP1 POP SWAP1 JUMP JUMPDEST PUSH1 0x60 DUP1 PUSH1 0x0 DUP1 DUP5 SWAP1 POP DUP6 PUSH1 0xB PUSH1 0x0 DUP10 PUSH20 0xFFFFFFFFFFFFFFFFFFFFFFFFFFFFFFFFFFFFFFFF AND PUSH20 0xFFFFFFFFFFFFFFFFFFFFFFFFFFFFFFFFFFFFFFFF AND DUP2 MSTORE PUSH1 0x20 ADD SWAP1 DUP2 MSTORE PUSH1 0x20 ADD PUSH1 0x0 KECCAK256 DUP1 SLOAD SWAP1 POP PUSH2 0x1EC0 SWAP2 SWAP1 PUSH2 0x41EA JUMP JUMPDEST DUP2 GT ISZERO PUSH2 0x1F18 JUMPI DUP6 PUSH1 0xB PUSH1 0x0 DUP10 PUSH20 0xFFFFFFFFFFFFFFFFFFFFFFFFFFFFFFFFFFFFFFFF AND PUSH20 0xFFFFFFFFFFFFFFFFFFFFFFFFFFFFFFFFFFFFFFFF AND DUP2 MSTORE PUSH1 0x20 ADD SWAP1 DUP2 MSTORE PUSH1 0x20 ADD PUSH1 0x0 KECCAK256 DUP1 SLOAD SWAP1 POP PUSH2 0x1F15 SWAP2 SWAP1 PUSH2 0x41EA JUMP JUMPDEST SWAP1 POP JUMPDEST PUSH1 0x0 DUP2 PUSH8 0xFFFFFFFFFFFFFFFF DUP2 GT ISZERO PUSH2 0x1F34 JUMPI PUSH2 0x1F33 PUSH2 0x421E JUMP JUMPDEST JUMPDEST PUSH1 0x40 MLOAD SWAP1 DUP1 DUP3 MSTORE DUP1 PUSH1 0x20 MUL PUSH1 0x20 ADD DUP3 ADD PUSH1 0x40 MSTORE DUP1 ISZERO PUSH2 0x1F62 JUMPI DUP2 PUSH1 0x20 ADD PUSH1 0x20 DUP3 MUL DUP1 CALLDATASIZE DUP4 CALLDATACOPY DUP1 DUP3 ADD SWAP2 POP POP SWAP1 POP JUMPDEST POP SWAP1 POP PUSH1 0x0 DUP3 PUSH8 0xFFFFFFFFFFFFFFFF DUP2 GT ISZERO PUSH2 0x1F81 JUMPI PUSH2 0x1F80 PUSH2 0x421E JUMP JUMPDEST JUMPDEST PUSH1 0x40 MLOAD SWAP1 DUP1 DUP3 MSTORE DUP1 PUSH1 0x20 MUL PUSH1 0x20 ADD DUP3 ADD PUSH1 0x40 MSTORE DUP1 ISZERO PUSH2 0x1FBA JUMPI DUP2 PUSH1 0x20 ADD JUMPDEST PUSH2 0x1FA7 PUSH2 0x3029 JUMP JUMPDEST DUP2 MSTORE PUSH1 0x20 ADD SWAP1 PUSH1 0x1 SWAP1 SUB SWAP1 DUP2 PUSH2 0x1F9F JUMPI SWAP1 POP JUMPDEST POP SWAP1 POP PUSH1 0x0 JUMPDEST DUP4 DUP2 LT ISZERO PUSH2 0x2154 JUMPI PUSH1 0xB PUSH1 0x0 DUP12 PUSH20 0xFFFFFFFFFFFFFFFFFFFFFFFFFFFFFFFFFFFFFFFF AND PUSH20 0xFFFFFFFFFFFFFFFFFFFFFFFFFFFFFFFFFFFFFFFF AND DUP2 MSTORE PUSH1 0x20 ADD SWAP1 DUP2 MSTORE PUSH1 0x20 ADD PUSH1 0x0 KECCAK256 DUP2 DUP11 PUSH2 0x2013 SWAP2 SWAP1 PUSH2 0x3AF5 JUMP JUMPDEST DUP2 SLOAD DUP2 LT PUSH2 0x2024 JUMPI PUSH2 0x2023 PUSH2 0x3E30 JUMP JUMPDEST JUMPDEST SWAP1 PUSH1 0x0 MSTORE PUSH1 0x20 PUSH1 0x0 KECCAK256 ADD SLOAD DUP4 DUP3 DUP2 MLOAD DUP2 LT PUSH2 0x2042 JUMPI PUSH2 0x2041 PUSH2 0x3E30 JUMP JUMPDEST JUMPDEST PUSH1 0x20 MUL PUSH1 0x20 ADD ADD DUP2 DUP2 MSTORE POP POP PUSH1 0x9 PUSH1 0x0 DUP5 DUP4 DUP2 MLOAD DUP2 LT PUSH2 0x2065 JUMPI PUSH2 0x2064 PUSH2 0x3E30 JUMP JUMPDEST JUMPDEST PUSH1 0x20 MUL PUSH1 0x20 ADD ADD MLOAD DUP2 MSTORE PUSH1 0x20 ADD SWAP1 DUP2 MSTORE PUSH1 0x20 ADD PUSH1 0x0 KECCAK256 PUSH1 0x0 DUP12 PUSH20 0xFFFFFFFFFFFFFFFFFFFFFFFFFFFFFFFFFFFFFFFF AND PUSH20 0xFFFFFFFFFFFFFFFFFFFFFFFFFFFFFFFFFFFFFFFF AND DUP2 MSTORE PUSH1 0x20 ADD SWAP1 DUP2 MSTORE PUSH1 0x20 ADD PUSH1 0x0 KECCAK256 PUSH1 0x40 MLOAD DUP1 PUSH1 0x60 ADD PUSH1 0x40 MSTORE SWAP1 DUP2 PUSH1 0x0 DUP3 ADD PUSH1 0x0 SWAP1 SLOAD SWAP1 PUSH2 0x100 EXP SWAP1 DIV PUSH1 0xFF AND PUSH1 0x1 DUP2 GT ISZERO PUSH2 0x20E8 JUMPI PUSH2 0x20E7 PUSH2 0x338C JUMP JUMPDEST JUMPDEST PUSH1 0x1 DUP2 GT ISZERO PUSH2 0x20FA JUMPI PUSH2 0x20F9 PUSH2 0x338C JUMP JUMPDEST JUMPDEST DUP2 MSTORE PUSH1 0x20 ADD PUSH1 0x1 DUP3 ADD SLOAD DUP2 MSTORE PUSH1 0x20 ADD PUSH1 0x2 DUP3 ADD PUSH1 0x0 SWAP1 SLOAD SWAP1 PUSH2 0x100 EXP SWAP1 DIV PUSH1 0xFF AND ISZERO ISZERO ISZERO ISZERO DUP2 MSTORE POP POP DUP3 DUP3 DUP2 MLOAD DUP2 LT PUSH2 0x2136 JUMPI PUSH2 0x2135 PUSH2 0x3E30 JUMP JUMPDEST JUMPDEST PUSH1 0x20 MUL PUSH1 0x20 ADD ADD DUP2 SWAP1 MSTORE POP DUP1 DUP1 PUSH2 0x214C SWAP1 PUSH2 0x405D JUMP JUMPDEST SWAP2 POP POP PUSH2 0x1FC0 JUMP JUMPDEST POP DUP2 DUP2 DUP5 DUP11 PUSH2 0x2163 SWAP2 SWAP1 PUSH2 0x3AF5 JUMP JUMPDEST SWAP6 POP SWAP6 POP SWAP6 POP POP POP POP SWAP4 POP SWAP4 POP SWAP4 SWAP1 POP JUMP JUMPDEST PUSH1 0x0 DUP1 PUSH1 0x9 PUSH1 0x0 DUP6 DUP2 MSTORE PUSH1 0x20 ADD SWAP1 DUP2 MSTORE PUSH1 0x20 ADD PUSH1 0x0 KECCAK256 PUSH1 0x0 DUP5 PUSH20 0xFFFFFFFFFFFFFFFFFFFFFFFFFFFFFFFFFFFFFFFF AND PUSH20 0xFFFFFFFFFFFFFFFFFFFFFFFFFFFFFFFFFFFFFFFF AND DUP2 MSTORE PUSH1 0x20 ADD SWAP1 DUP2 MSTORE PUSH1 0x20 ADD PUSH1 0x0 KECCAK256 PUSH1 0x40 MLOAD DUP1 PUSH1 0x60 ADD PUSH1 0x40 MSTORE SWAP1 DUP2 PUSH1 0x0 DUP3 ADD PUSH1 0x0 SWAP1 SLOAD SWAP1 PUSH2 0x100 EXP SWAP1 DIV PUSH1 0xFF AND PUSH1 0x1 DUP2 GT ISZERO PUSH2 0x21F8 JUMPI PUSH2 0x21F7 PUSH2 0x338C JUMP JUMPDEST JUMPDEST PUSH1 0x1 DUP2 GT ISZERO PUSH2 0x220A JUMPI PUSH2 0x2209 PUSH2 0x338C JUMP JUMPDEST JUMPDEST DUP2 MSTORE PUSH1 0x20 ADD PUSH1 0x1 DUP3 ADD SLOAD DUP2 MSTORE PUSH1 0x20 ADD PUSH1 0x2 DUP3 ADD PUSH1 0x0 SWAP1 SLOAD SWAP1 PUSH2 0x100 EXP SWAP1 DIV PUSH1 0xFF AND ISZERO ISZERO ISZERO ISZERO DUP2 MSTORE POP POP SWAP1 POP PUSH1 0x0 PUSH1 0xA PUSH1 0x0 DUP7 DUP2 MSTORE PUSH1 0x20 ADD SWAP1 DUP2 MSTORE PUSH1 0x20 ADD PUSH1 0x0 KECCAK256 PUSH1 0x40 MLOAD DUP1 PUSH2 0x160 ADD PUSH1 0x40 MSTORE SWAP1 DUP2 PUSH1 0x0 DUP3 ADD SLOAD DUP2 MSTORE PUSH1 0x20 ADD PUSH1 0x1 DUP3 ADD SLOAD DUP2 MSTORE PUSH1 0x20 ADD PUSH1 0x2 DUP3 ADD SLOAD DUP2 MSTORE PUSH1 0x20 ADD PUSH1 0x3 DUP3 ADD SLOAD DUP2 MSTORE PUSH1 0x20 ADD PUSH1 0x4 DUP3 ADD SLOAD DUP2 MSTORE PUSH1 0x20 ADD PUSH1 0x5 DUP3 ADD SLOAD DUP2 MSTORE PUSH1 0x20 ADD PUSH1 0x6 DUP3 ADD SLOAD DUP2 MSTORE PUSH1 0x20 ADD PUSH1 0x7 DUP3 ADD SLOAD DUP2 MSTORE PUSH1 0x20 ADD PUSH1 0x8 DUP3 ADD SLOAD DUP2 MSTORE PUSH1 0x20 ADD PUSH1 0x9 DUP3 ADD PUSH1 0x0 SWAP1 SLOAD SWAP1 PUSH2 0x100 EXP SWAP1 DIV PUSH1 0xFF AND ISZERO ISZERO ISZERO ISZERO DUP2 MSTORE PUSH1 0x20 ADD PUSH1 0x9 DUP3 ADD PUSH1 0x1 SWAP1 SLOAD SWAP1 PUSH2 0x100 EXP SWAP1 DIV PUSH1 0xFF AND PUSH1 0x2 DUP2 GT ISZERO PUSH2 0x22F0 JUMPI PUSH2 0x22EF PUSH2 0x338C JUMP JUMPDEST JUMPDEST PUSH1 0x2 DUP2 GT ISZERO PUSH2 0x2302 JUMPI PUSH2 0x2301 PUSH2 0x338C JUMP JUMPDEST JUMPDEST DUP2 MSTORE POP POP SWAP1 POP PUSH1 0x2 DUP1 DUP2 GT ISZERO PUSH2 0x231B JUMPI PUSH2 0x231A PUSH2 0x338C JUMP JUMPDEST JUMPDEST DUP2 PUSH2 0x140 ADD MLOAD PUSH1 0x2 DUP2 GT ISZERO PUSH2 0x2333 JUMPI PUSH2 0x2332 PUSH2 0x338C JUMP JUMPDEST JUMPDEST EQ ISZERO PUSH2 0x2344 JUMPI PUSH1 0x0 SWAP3 POP POP POP PUSH2 0x243E JUMP JUMPDEST DUP1 PUSH2 0x120 ADD MLOAD DUP1 ISZERO PUSH2 0x235B JUMPI POP PUSH1 0x0 DUP3 PUSH1 0x20 ADD MLOAD EQ ISZERO JUMPDEST DUP1 ISZERO PUSH2 0x2369 JUMPI POP DUP2 PUSH1 0x40 ADD MLOAD ISZERO JUMPDEST DUP1 ISZERO PUSH2 0x2439 JUMPI POP PUSH1 0x0 PUSH1 0x2 DUP2 GT ISZERO PUSH2 0x2384 JUMPI PUSH2 0x2383 PUSH2 0x338C JUMP JUMPDEST JUMPDEST DUP2 PUSH2 0x140 ADD MLOAD PUSH1 0x2 DUP2 GT ISZERO PUSH2 0x239C JUMPI PUSH2 0x239B PUSH2 0x338C JUMP JUMPDEST JUMPDEST EQ DUP1 ISZERO PUSH2 0x23D1 JUMPI POP PUSH1 0x0 PUSH1 0x1 DUP2 GT ISZERO PUSH2 0x23B8 JUMPI PUSH2 0x23B7 PUSH2 0x338C JUMP JUMPDEST JUMPDEST DUP3 PUSH1 0x0 ADD MLOAD PUSH1 0x1 DUP2 GT ISZERO PUSH2 0x23CF JUMPI PUSH2 0x23CE PUSH2 0x338C JUMP JUMPDEST JUMPDEST EQ JUMPDEST DUP1 PUSH2 0x2438 JUMPI POP PUSH1 0x1 PUSH1 0x2 DUP2 GT ISZERO PUSH2 0x23EB JUMPI PUSH2 0x23EA PUSH2 0x338C JUMP JUMPDEST JUMPDEST DUP2 PUSH2 0x140 ADD MLOAD PUSH1 0x2 DUP2 GT ISZERO PUSH2 0x2403 JUMPI PUSH2 0x2402 PUSH2 0x338C JUMP JUMPDEST JUMPDEST EQ DUP1 ISZERO PUSH2 0x2437 JUMPI POP PUSH1 0x1 DUP1 DUP2 GT ISZERO PUSH2 0x241E JUMPI PUSH2 0x241D PUSH2 0x338C JUMP JUMPDEST JUMPDEST DUP3 PUSH1 0x0 ADD MLOAD PUSH1 0x1 DUP2 GT ISZERO PUSH2 0x2435 JUMPI PUSH2 0x2434 PUSH2 0x338C JUMP JUMPDEST JUMPDEST EQ JUMPDEST JUMPDEST JUMPDEST SWAP3 POP POP POP JUMPDEST SWAP3 SWAP2 POP POP JUMP JUMPDEST PUSH2 0x244C PUSH2 0x2B66 JUMP JUMPDEST PUSH1 0x2 PUSH1 0x0 SWAP1 SLOAD SWAP1 PUSH2 0x100 EXP SWAP1 DIV PUSH20 0xFFFFFFFFFFFFFFFFFFFFFFFFFFFFFFFFFFFFFFFF AND PUSH20 0xFFFFFFFFFFFFFFFFFFFFFFFFFFFFFFFFFFFFFFFF AND DUP3 PUSH20 0xFFFFFFFFFFFFFFFFFFFFFFFFFFFFFFFFFFFFFFFF AND EQ ISZERO PUSH2 0x24DD JUMPI PUSH1 0x40 MLOAD PUSH32 0x8C379A000000000000000000000000000000000000000000000000000000000 DUP2 MSTORE PUSH1 0x4 ADD PUSH2 0x24D4 SWAP1 PUSH2 0x42BF JUMP JUMPDEST PUSH1 0x40 MLOAD DUP1 SWAP2 SUB SWAP1 REVERT JUMPDEST DUP2 PUSH20 0xFFFFFFFFFFFFFFFFFFFFFFFFFFFFFFFFFFFFFFFF AND PUSH4 0xA9059CBB CALLER DUP4 PUSH1 0x40 MLOAD DUP4 PUSH4 0xFFFFFFFF AND PUSH1 0xE0 SHL DUP2 MSTORE PUSH1 0x4 ADD PUSH2 0x2518 SWAP3 SWAP2 SWAP1 PUSH2 0x38B4 JUMP JUMPDEST PUSH1 0x20 PUSH1 0x40 MLOAD DUP1 DUP4 SUB DUP2 PUSH1 0x0 DUP8 DUP1 EXTCODESIZE ISZERO DUP1 ISZERO PUSH2 0x2532 JUMPI PUSH1 0x0 DUP1 REVERT JUMPDEST POP GAS CALL ISZERO DUP1 ISZERO PUSH2 0x2546 JUMPI RETURNDATASIZE PUSH1 0x0 DUP1 RETURNDATACOPY RETURNDATASIZE PUSH1 0x0 REVERT JUMPDEST POP POP POP POP PUSH1 0x40 MLOAD RETURNDATASIZE PUSH1 0x1F NOT PUSH1 0x1F DUP3 ADD AND DUP3 ADD DUP1 PUSH1 0x40 MSTORE POP DUP2 ADD SWAP1 PUSH2 0x256A SWAP2 SWAP1 PUSH2 0x3909 JUMP JUMPDEST POP DUP2 PUSH20 0xFFFFFFFFFFFFFFFFFFFFFFFFFFFFFFFFFFFFFFFF AND PUSH32 0x14F11966A996E0629572E51064726D2057A80FBD34EFC066682C06A71DBB6E98 DUP3 PUSH1 0x40 MLOAD PUSH2 0x25B1 SWAP2 SWAP1 PUSH2 0x31A2 JUMP JUMPDEST PUSH1 0x40 MLOAD DUP1 SWAP2 SUB SWAP1 LOG2 POP POP JUMP JUMPDEST PUSH1 0x3 PUSH1 0x0 SWAP1 SLOAD SWAP1 PUSH2 0x100 EXP SWAP1 DIV PUSH20 0xFFFFFFFFFFFFFFFFFFFFFFFFFFFFFFFFFFFFFFFF AND PUSH20 0xFFFFFFFFFFFFFFFFFFFFFFFFFFFFFFFFFFFFFFFF AND CALLER PUSH20 0xFFFFFFFFFFFFFFFFFFFFFFFFFFFFFFFFFFFFFFFF AND EQ PUSH2 0x264D JUMPI PUSH1 0x40 MLOAD PUSH32 0x8C379A000000000000000000000000000000000000000000000000000000000 DUP2 MSTORE PUSH1 0x4 ADD PUSH2 0x2644 SWAP1 PUSH2 0x3894 JUMP JUMPDEST PUSH1 0x40 MLOAD DUP1 SWAP2 SUB SWAP1 REVERT JUMPDEST PUSH1 0x0 PUSH20 0xFFFFFFFFFFFFFFFFFFFFFFFFFFFFFFFFFFFFFFFF AND DUP2 PUSH20 0xFFFFFFFFFFFFFFFFFFFFFFFFFFFFFFFFFFFFFFFF AND EQ ISZERO PUSH2 0x26BD JUMPI PUSH1 0x40 MLOAD PUSH32 0x8C379A000000000000000000000000000000000000000000000000000000000 DUP2 MSTORE PUSH1 0x4 ADD PUSH2 0x26B4 SWAP1 PUSH2 0x415E JUMP JUMPDEST PUSH1 0x40 MLOAD DUP1 SWAP2 SUB SWAP1 REVERT JUMPDEST DUP1 PUSH1 0x4 PUSH1 0x0 PUSH2 0x100 EXP DUP2 SLOAD DUP2 PUSH20 0xFFFFFFFFFFFFFFFFFFFFFFFFFFFFFFFFFFFFFFFF MUL NOT AND SWAP1 DUP4 PUSH20 0xFFFFFFFFFFFFFFFFFFFFFFFFFFFFFFFFFFFFFFFF AND MUL OR SWAP1 SSTORE POP PUSH32 0xC47D127C07BDD56C5CCBA00463CE3BD3C1BCA71B4670EEA6E5D0C02E4AA156E2 DUP2 PUSH1 0x40 MLOAD PUSH2 0x272D SWAP2 SWAP1 PUSH2 0x311F JUMP JUMPDEST PUSH1 0x40 MLOAD DUP1 SWAP2 SUB SWAP1 LOG1 POP JUMP JUMPDEST PUSH2 0x2740 PUSH2 0x29D6 JUMP JUMPDEST PUSH1 0x4 PUSH1 0x0 SWAP1 SLOAD SWAP1 PUSH2 0x100 EXP SWAP1 DIV PUSH20 0xFFFFFFFFFFFFFFFFFFFFFFFFFFFFFFFFFFFFFFFF AND PUSH20 0xFFFFFFFFFFFFFFFFFFFFFFFFFFFFFFFFFFFFFFFF AND CALLER PUSH20 0xFFFFFFFFFFFFFFFFFFFFFFFFFFFFFFFFFFFFFFFF AND EQ PUSH2 0x27D0 JUMPI PUSH1 0x40 MLOAD PUSH32 0x8C379A000000000000000000000000000000000000000000000000000000000 DUP2 MSTORE PUSH1 0x4 ADD PUSH2 0x27C7 SWAP1 PUSH2 0x3982 JUMP JUMPDEST PUSH1 0x40 MLOAD DUP1 SWAP2 SUB SWAP1 REVERT JUMPDEST PUSH1 0x8 SLOAD DUP3 GT ISZERO PUSH2 0x2815 JUMPI PUSH1 0x40 MLOAD PUSH32 0x8C379A000000000000000000000000000000000000000000000000000000000 DUP2 MSTORE PUSH1 0x4 ADD PUSH2 0x280C SWAP1 PUSH2 0x432B JUMP JUMPDEST PUSH1 0x40 MLOAD DUP1 SWAP2 SUB SWAP1 REVERT JUMPDEST PUSH1 0xA PUSH1 0x0 DUP4 DUP2 MSTORE PUSH1 0x20 ADD SWAP1 DUP2 MSTORE PUSH1 0x20 ADD PUSH1 0x0 KECCAK256 PUSH1 0x9 ADD PUSH1 0x0 SWAP1 SLOAD SWAP1 PUSH2 0x100 EXP SWAP1 DIV PUSH1 0xFF AND ISZERO PUSH2 0x2879 JUMPI PUSH1 0x40 MLOAD PUSH32 0x8C379A000000000000000000000000000000000000000000000000000000000 DUP2 MSTORE PUSH1 0x4 ADD PUSH2 0x2870 SWAP1 PUSH2 0x4397 JUMP JUMPDEST PUSH1 0x40 MLOAD DUP1 SWAP2 SUB SWAP1 REVERT JUMPDEST PUSH2 0x2883 DUP3 DUP3 PUSH2 0x2D0B JUMP JUMPDEST PUSH2 0x288C DUP3 PUSH2 0x2E12 JUMP JUMPDEST POP POP JUMP JUMPDEST PUSH1 0x6 SLOAD DUP2 JUMP JUMPDEST PUSH1 0xB PUSH1 0x20 MSTORE DUP2 PUSH1 0x0 MSTORE PUSH1 0x40 PUSH1 0x0 KECCAK256 DUP2 DUP2 SLOAD DUP2 LT PUSH2 0x28B2 JUMPI PUSH1 0x0 DUP1 REVERT JUMPDEST SWAP1 PUSH1 0x0 MSTORE PUSH1 0x20 PUSH1 0x0 KECCAK256 ADD PUSH1 0x0 SWAP2 POP SWAP2 POP POP SLOAD DUP2 JUMP JUMPDEST PUSH2 0x3E8 DUP2 JUMP JUMPDEST PUSH2 0x28D5 PUSH2 0x2B66 JUMP JUMPDEST PUSH1 0x0 PUSH20 0xFFFFFFFFFFFFFFFFFFFFFFFFFFFFFFFFFFFFFFFF AND DUP2 PUSH20 0xFFFFFFFFFFFFFFFFFFFFFFFFFFFFFFFFFFFFFFFF AND EQ ISZERO PUSH2 0x2945 JUMPI PUSH1 0x40 MLOAD PUSH32 0x8C379A000000000000000000000000000000000000000000000000000000000 DUP2 MSTORE PUSH1 0x4 ADD PUSH2 0x293C SWAP1 PUSH2 0x4429 JUMP JUMPDEST PUSH1 0x40 MLOAD DUP1 SWAP2 SUB SWAP1 REVERT JUMPDEST PUSH2 0x294E DUP2 PUSH2 0x2BE4 JUMP JUMPDEST POP JUMP JUMPDEST PUSH1 0x5 SLOAD DUP2 JUMP JUMPDEST PUSH1 0x3 PUSH1 0x0 SWAP1 SLOAD SWAP1 PUSH2 0x100 EXP SWAP1 DIV PUSH20 0xFFFFFFFFFFFFFFFFFFFFFFFFFFFFFFFFFFFFFFFF AND DUP2 JUMP JUMPDEST PUSH1 0x2 PUSH1 0x1 SLOAD EQ ISZERO PUSH2 0x29C3 JUMPI PUSH1 0x40 MLOAD PUSH32 0x8C379A000000000000000000000000000000000000000000000000000000000 DUP2 MSTORE PUSH1 0x4 ADD PUSH2 0x29BA SWAP1 PUSH2 0x4495 JUMP JUMPDEST PUSH1 0x40 MLOAD DUP1 SWAP2 SUB SWAP1 REVERT JUMPDEST PUSH1 0x2 PUSH1 0x1 DUP2 SWAP1 SSTORE POP JUMP JUMPDEST PUSH1 0x1 DUP1 DUP2 SWAP1 SSTORE POP JUMP JUMPDEST PUSH2 0x29DE PUSH2 0x133B JUMP JUMPDEST ISZERO PUSH2 0x2A1E JUMPI PUSH1 0x40 MLOAD PUSH32 0x8C379A000000000000000000000000000000000000000000000000000000000 DUP2 MSTORE PUSH1 0x4 ADD PUSH2 0x2A15 SWAP1 PUSH2 0x4501 JUMP JUMPDEST PUSH1 0x40 MLOAD DUP1 SWAP2 SUB SWAP1 REVERT JUMPDEST JUMP JUMPDEST PUSH1 0x0 DUP1 DUP3 EXTCODESIZE SWAP1 POP PUSH1 0x0 DUP2 GT SWAP2 POP POP SWAP2 SWAP1 POP JUMP JUMPDEST PUSH1 0x0 DUP1 PUSH1 0xA PUSH1 0x0 DUP5 DUP2 MSTORE PUSH1 0x20 ADD SWAP1 DUP2 MSTORE PUSH1 0x20 ADD PUSH1 0x0 KECCAK256 PUSH1 0x1 ADD SLOAD EQ ISZERO DUP1 ISZERO PUSH2 0x2A72 JUMPI POP PUSH1 0x0 PUSH1 0xA PUSH1 0x0 DUP5 DUP2 MSTORE PUSH1 0x20 ADD SWAP1 DUP2 MSTORE PUSH1 0x20 ADD PUSH1 0x0 KECCAK256 PUSH1 0x2 ADD SLOAD EQ ISZERO JUMPDEST DUP1 ISZERO PUSH2 0x2A93 JUMPI POP PUSH1 0xA PUSH1 0x0 DUP4 DUP2 MSTORE PUSH1 0x20 ADD SWAP1 DUP2 MSTORE PUSH1 0x20 ADD PUSH1 0x0 KECCAK256 PUSH1 0x1 ADD SLOAD TIMESTAMP GT JUMPDEST DUP1 ISZERO PUSH2 0x2AB4 JUMPI POP PUSH1 0xA PUSH1 0x0 DUP4 DUP2 MSTORE PUSH1 0x20 ADD SWAP1 DUP2 MSTORE PUSH1 0x20 ADD PUSH1 0x0 KECCAK256 PUSH1 0x2 ADD SLOAD TIMESTAMP LT JUMPDEST SWAP1 POP SWAP2 SWAP1 POP JUMP JUMPDEST PUSH2 0x2AC3 PUSH2 0x133B JUMP JUMPDEST PUSH2 0x2B02 JUMPI PUSH1 0x40 MLOAD PUSH32 0x8C379A000000000000000000000000000000000000000000000000000000000 DUP2 MSTORE PUSH1 0x4 ADD PUSH2 0x2AF9 SWAP1 PUSH2 0x456D JUMP JUMPDEST PUSH1 0x40 MLOAD DUP1 SWAP2 SUB SWAP1 REVERT JUMPDEST JUMP JUMPDEST PUSH2 0x2B0C PUSH2 0x2ABB JUMP JUMPDEST PUSH1 0x0 DUP1 PUSH1 0x14 PUSH2 0x100 EXP DUP2 SLOAD DUP2 PUSH1 0xFF MUL NOT AND SWAP1 DUP4 ISZERO ISZERO MUL OR SWAP1 SSTORE POP PUSH32 0x5DB9EE0A495BF2E6FF9C91A7834C1BA4FDD244A5E8AA4E537BD38AEAE4B073AA PUSH2 0x2B4F PUSH2 0x3021 JUMP JUMPDEST PUSH1 0x40 MLOAD PUSH2 0x2B5C SWAP2 SWAP1 PUSH2 0x311F JUMP JUMPDEST PUSH1 0x40 MLOAD DUP1 SWAP2 SUB SWAP1 LOG1 JUMP JUMPDEST PUSH2 0x2B6E PUSH2 0x3021 JUMP JUMPDEST PUSH20 0xFFFFFFFFFFFFFFFFFFFFFFFFFFFFFFFFFFFFFFFF AND PUSH2 0x2B8C PUSH2 0x1E40 JUMP JUMPDEST PUSH20 0xFFFFFFFFFFFFFFFFFFFFFFFFFFFFFFFFFFFFFFFF AND EQ PUSH2 0x2BE2 JUMPI PUSH1 0x40 MLOAD PUSH32 0x8C379A000000000000000000000000000000000000000000000000000000000 DUP2 MSTORE PUSH1 0x4 ADD PUSH2 0x2BD9 SWAP1 PUSH2 0x45D9 JUMP JUMPDEST PUSH1 0x40 MLOAD DUP1 SWAP2 SUB SWAP1 REVERT JUMPDEST JUMP JUMPDEST PUSH1 0x0 DUP1 PUSH1 0x0 SWAP1 SLOAD SWAP1 PUSH2 0x100 EXP SWAP1 DIV PUSH20 0xFFFFFFFFFFFFFFFFFFFFFFFFFFFFFFFFFFFFFFFF AND SWAP1 POP DUP2 PUSH1 0x0 DUP1 PUSH2 0x100 EXP DUP2 SLOAD DUP2 PUSH20 0xFFFFFFFFFFFFFFFFFFFFFFFFFFFFFFFFFFFFFFFF MUL NOT AND SWAP1 DUP4 PUSH20 0xFFFFFFFFFFFFFFFFFFFFFFFFFFFFFFFFFFFFFFFF AND MUL OR SWAP1 SSTORE POP DUP2 PUSH20 0xFFFFFFFFFFFFFFFFFFFFFFFFFFFFFFFFFFFFFFFF AND DUP2 PUSH20 0xFFFFFFFFFFFFFFFFFFFFFFFFFFFFFFFFFFFFFFFF AND PUSH32 0x8BE0079C531659141344CD1FD0A4F28419497F9722A3DAAFE3B4186F6B6457E0 PUSH1 0x40 MLOAD PUSH1 0x40 MLOAD DUP1 SWAP2 SUB SWAP1 LOG3 POP POP JUMP JUMPDEST PUSH2 0x2CB0 PUSH2 0x29D6 JUMP JUMPDEST PUSH1 0x1 PUSH1 0x0 PUSH1 0x14 PUSH2 0x100 EXP DUP2 SLOAD DUP2 PUSH1 0xFF MUL NOT AND SWAP1 DUP4 ISZERO ISZERO MUL OR SWAP1 SSTORE POP PUSH32 0x62E78CEA01BEE320CD4E420270B5EA74000D11B0C9F74754EBDBFC544B05A258 PUSH2 0x2CF4 PUSH2 0x3021 JUMP JUMPDEST PUSH1 0x40 MLOAD PUSH2 0x2D01 SWAP2 SWAP1 PUSH2 0x311F JUMP JUMPDEST PUSH1 0x40 MLOAD DUP1 SWAP2 SUB SWAP1 LOG1 JUMP JUMPDEST PUSH1 0xA PUSH1 0x0 DUP4 DUP2 MSTORE PUSH1 0x20 ADD SWAP1 DUP2 MSTORE PUSH1 0x20 ADD PUSH1 0x0 KECCAK256 PUSH1 0x3 ADD SLOAD TIMESTAMP LT ISZERO PUSH2 0x2D64 JUMPI PUSH1 0x40 MLOAD PUSH32 0x8C379A000000000000000000000000000000000000000000000000000000000 DUP2 MSTORE PUSH1 0x4 ADD PUSH2 0x2D5B SWAP1 PUSH2 0x466B JUMP JUMPDEST PUSH1 0x40 MLOAD DUP1 SWAP2 SUB SWAP1 REVERT JUMPDEST PUSH1 0x0 PUSH1 0xA PUSH1 0x0 DUP5 DUP2 MSTORE PUSH1 0x20 ADD SWAP1 DUP2 MSTORE PUSH1 0x20 ADD PUSH1 0x0 KECCAK256 SWAP1 POP DUP2 DUP2 PUSH1 0x9 ADD PUSH1 0x1 PUSH2 0x100 EXP DUP2 SLOAD DUP2 PUSH1 0xFF MUL NOT AND SWAP1 DUP4 PUSH1 0x2 DUP2 GT ISZERO PUSH2 0x2DA2 JUMPI PUSH2 0x2DA1 PUSH2 0x338C JUMP JUMPDEST JUMPDEST MUL OR SWAP1 SSTORE POP PUSH1 0x1 DUP2 PUSH1 0x9 ADD PUSH1 0x0 PUSH2 0x100 EXP DUP2 SLOAD DUP2 PUSH1 0xFF MUL NOT AND SWAP1 DUP4 ISZERO ISZERO MUL OR SWAP1 SSTORE POP DUP3 PUSH32 0xD91CAFDA889A8123E29D543803C1E45746936DDAE8D882EC23C5B0E8D394AECD DUP3 PUSH1 0x9 ADD PUSH1 0x1 SWAP1 SLOAD SWAP1 PUSH2 0x100 EXP SWAP1 DIV PUSH1 0xFF AND PUSH1 0x40 MLOAD PUSH2 0x2E05 SWAP2 SWAP1 PUSH2 0x468B JUMP JUMPDEST PUSH1 0x40 MLOAD DUP1 SWAP2 SUB SWAP1 LOG2 POP POP POP JUMP JUMPDEST PUSH1 0x0 PUSH1 0xA PUSH1 0x0 DUP4 DUP2 MSTORE PUSH1 0x20 ADD SWAP1 DUP2 MSTORE PUSH1 0x20 ADD PUSH1 0x0 KECCAK256 PUSH1 0x7 ADD SLOAD EQ DUP1 ISZERO PUSH2 0x2E4E JUMPI POP PUSH1 0x0 PUSH1 0xA PUSH1 0x0 DUP4 DUP2 MSTORE PUSH1 0x20 ADD SWAP1 DUP2 MSTORE PUSH1 0x20 ADD PUSH1 0x0 KECCAK256 PUSH1 0x8 ADD SLOAD EQ JUMPDEST PUSH2 0x2E8D JUMPI PUSH1 0x40 MLOAD PUSH32 0x8C379A000000000000000000000000000000000000000000000000000000000 DUP2 MSTORE PUSH1 0x4 ADD PUSH2 0x2E84 SWAP1 PUSH2 0x46F2 JUMP JUMPDEST PUSH1 0x40 MLOAD DUP1 SWAP2 SUB SWAP1 REVERT JUMPDEST PUSH1 0x0 PUSH1 0xA PUSH1 0x0 DUP4 DUP2 MSTORE PUSH1 0x20 ADD SWAP1 DUP2 MSTORE PUSH1 0x20 ADD PUSH1 0x0 KECCAK256 SWAP1 POP PUSH1 0x0 DUP1 PUSH1 0x0 DUP1 PUSH1 0x2 DUP2 GT ISZERO PUSH2 0x2EBC JUMPI PUSH2 0x2EBB PUSH2 0x338C JUMP JUMPDEST JUMPDEST DUP5 PUSH1 0x9 ADD PUSH1 0x1 SWAP1 SLOAD SWAP1 PUSH2 0x100 EXP SWAP1 DIV PUSH1 0xFF AND PUSH1 0x2 DUP2 GT ISZERO PUSH2 0x2EE0 JUMPI PUSH2 0x2EDF PUSH2 0x338C JUMP JUMPDEST JUMPDEST EQ ISZERO PUSH2 0x2F25 JUMPI DUP4 PUSH1 0x5 ADD SLOAD SWAP3 POP PUSH2 0x2710 PUSH1 0x6 SLOAD DUP6 PUSH1 0x4 ADD SLOAD PUSH2 0x2F02 SWAP2 SWAP1 PUSH2 0x3FA3 JUMP JUMPDEST PUSH2 0x2F0C SWAP2 SWAP1 PUSH2 0x402C JUMP JUMPDEST SWAP2 POP DUP2 DUP5 PUSH1 0x4 ADD SLOAD PUSH2 0x2F1E SWAP2 SWAP1 PUSH2 0x41EA JUMP JUMPDEST SWAP1 POP PUSH2 0x2FB3 JUMP JUMPDEST PUSH1 0x1 PUSH1 0x2 DUP2 GT ISZERO PUSH2 0x2F39 JUMPI PUSH2 0x2F38 PUSH2 0x338C JUMP JUMPDEST JUMPDEST DUP5 PUSH1 0x9 ADD PUSH1 0x1 SWAP1 SLOAD SWAP1 PUSH2 0x100 EXP SWAP1 DIV PUSH1 0xFF AND PUSH1 0x2 DUP2 GT ISZERO PUSH2 0x2F5D JUMPI PUSH2 0x2F5C PUSH2 0x338C JUMP JUMPDEST JUMPDEST EQ ISZERO PUSH2 0x2FA2 JUMPI DUP4 PUSH1 0x6 ADD SLOAD SWAP3 POP PUSH2 0x2710 PUSH1 0x6 SLOAD DUP6 PUSH1 0x4 ADD SLOAD PUSH2 0x2F7F SWAP2 SWAP1 PUSH2 0x3FA3 JUMP JUMPDEST PUSH2 0x2F89 SWAP2 SWAP1 PUSH2 0x402C JUMP JUMPDEST SWAP2 POP DUP2 DUP5 PUSH1 0x4 ADD SLOAD PUSH2 0x2F9B SWAP2 SWAP1 PUSH2 0x41EA JUMP JUMPDEST SWAP1 POP PUSH2 0x2FB2 JUMP JUMPDEST PUSH1 0x0 SWAP3 POP PUSH1 0x0 SWAP1 POP DUP4 PUSH1 0x4 ADD SLOAD SWAP2 POP JUMPDEST JUMPDEST DUP3 DUP5 PUSH1 0x7 ADD DUP2 SWAP1 SSTORE POP DUP1 DUP5 PUSH1 0x8 ADD DUP2 SWAP1 SSTORE POP DUP2 PUSH1 0x7 PUSH1 0x0 DUP3 DUP3 SLOAD PUSH2 0x2FD7 SWAP2 SWAP1 PUSH2 0x3AF5 JUMP JUMPDEST SWAP3 POP POP DUP2 SWAP1 SSTORE POP DUP5 PUSH32 0x6DFDFCB09C8804D0058826CD2539F1ACFBE3CB887C9BE03D928035BCE0F1A58D DUP5 DUP4 DUP6 PUSH1 0x40 MLOAD PUSH2 0x3012 SWAP4 SWAP3 SWAP2 SWAP1 PUSH2 0x4712 JUMP JUMPDEST PUSH1 0x40 MLOAD DUP1 SWAP2 SUB SWAP1 LOG2 POP POP POP POP POP JUMP JUMPDEST PUSH1 0x0 CALLER SWAP1 POP SWAP1 JUMP JUMPDEST PUSH1 0x40 MLOAD DUP1 PUSH1 0x60 ADD PUSH1 0x40 MSTORE DUP1 PUSH1 0x0 PUSH1 0x1 DUP2 GT ISZERO PUSH2 0x3048 JUMPI PUSH2 0x3047 PUSH2 0x338C JUMP JUMPDEST JUMPDEST DUP2 MSTORE PUSH1 0x20 ADD PUSH1 0x0 DUP2 MSTORE PUSH1 0x20 ADD PUSH1 0x0 ISZERO ISZERO DUP2 MSTORE POP SWAP1 JUMP JUMPDEST PUSH1 0x0 DUP1 REVERT JUMPDEST PUSH1 0x0 DUP1 REVERT JUMPDEST PUSH1 0x0 DUP2 SWAP1 POP SWAP2 SWAP1 POP JUMP JUMPDEST PUSH2 0x307B DUP2 PUSH2 0x3068 JUMP JUMPDEST DUP2 EQ PUSH2 0x3086 JUMPI PUSH1 0x0 DUP1 REVERT JUMPDEST POP JUMP JUMPDEST PUSH1 0x0 DUP2 CALLDATALOAD SWAP1 POP PUSH2 0x3098 DUP2 PUSH2 0x3072 JUMP JUMPDEST SWAP3 SWAP2 POP POP JUMP JUMPDEST PUSH1 0x0 DUP1 PUSH1 0x40 DUP4 DUP6 SUB SLT ISZERO PUSH2 0x30B5 JUMPI PUSH2 0x30B4 PUSH2 0x305E JUMP JUMPDEST JUMPDEST PUSH1 0x0 PUSH2 0x30C3 DUP6 DUP3 DUP7 ADD PUSH2 0x3089 JUMP JUMPDEST SWAP3 POP POP PUSH1 0x20 PUSH2 0x30D4 DUP6 DUP3 DUP7 ADD PUSH2 0x3089 JUMP JUMPDEST SWAP2 POP POP SWAP3 POP SWAP3 SWAP1 POP JUMP JUMPDEST PUSH1 0x0 PUSH20 0xFFFFFFFFFFFFFFFFFFFFFFFFFFFFFFFFFFFFFFFF DUP3 AND SWAP1 POP SWAP2 SWAP1 POP JUMP JUMPDEST PUSH1 0x0 PUSH2 0x3109 DUP3 PUSH2 0x30DE JUMP JUMPDEST SWAP1 POP SWAP2 SWAP1 POP JUMP JUMPDEST PUSH2 0x3119 DUP2 PUSH2 0x30FE JUMP JUMPDEST DUP3 MSTORE POP POP JUMP JUMPDEST PUSH1 0x0 PUSH1 0x20 DUP3 ADD SWAP1 POP PUSH2 0x3134 PUSH1 0x0 DUP4 ADD DUP5 PUSH2 0x3110 JUMP JUMPDEST SWAP3 SWAP2 POP POP JUMP JUMPDEST PUSH2 0x3143 DUP2 PUSH2 0x30FE JUMP JUMPDEST DUP2 EQ PUSH2 0x314E JUMPI PUSH1 0x0 DUP1 REVERT JUMPDEST POP JUMP JUMPDEST PUSH1 0x0 DUP2 CALLDATALOAD SWAP1 POP PUSH2 0x3160 DUP2 PUSH2 0x313A JUMP JUMPDEST SWAP3 SWAP2 POP POP JUMP JUMPDEST PUSH1 0x0 PUSH1 0x20 DUP3 DUP5 SUB SLT ISZERO PUSH2 0x317C JUMPI PUSH2 0x317B PUSH2 0x305E JUMP JUMPDEST JUMPDEST PUSH1 0x0 PUSH2 0x318A DUP5 DUP3 DUP6 ADD PUSH2 0x3151 JUMP JUMPDEST SWAP2 POP POP SWAP3 SWAP2 POP POP JUMP JUMPDEST PUSH2 0x319C DUP2 PUSH2 0x3068 JUMP JUMPDEST DUP3 MSTORE POP POP JUMP JUMPDEST PUSH1 0x0 PUSH1 0x20 DUP3 ADD SWAP1 POP PUSH2 0x31B7 PUSH1 0x0 DUP4 ADD DUP5 PUSH2 0x3193 JUMP JUMPDEST SWAP3 SWAP2 POP POP JUMP JUMPDEST PUSH1 0x0 DUP2 SWAP1 POP SWAP2 SWAP1 POP JUMP JUMPDEST PUSH1 0x0 PUSH2 0x31E2 PUSH2 0x31DD PUSH2 0x31D8 DUP5 PUSH2 0x30DE JUMP JUMPDEST PUSH2 0x31BD JUMP JUMPDEST PUSH2 0x30DE JUMP JUMPDEST SWAP1 POP SWAP2 SWAP1 POP JUMP JUMPDEST PUSH1 0x0 PUSH2 0x31F4 DUP3 PUSH2 0x31C7 JUMP JUMPDEST SWAP1 POP SWAP2 SWAP1 POP JUMP JUMPDEST PUSH1 0x0 PUSH2 0x3206 DUP3 PUSH2 0x31E9 JUMP JUMPDEST SWAP1 POP SWAP2 SWAP1 POP JUMP JUMPDEST PUSH2 0x3216 DUP2 PUSH2 0x31FB JUMP JUMPDEST DUP3 MSTORE POP POP JUMP JUMPDEST PUSH1 0x0 PUSH1 0x20 DUP3 ADD SWAP1 POP PUSH2 0x3231 PUSH1 0x0 DUP4 ADD DUP5 PUSH2 0x320D JUMP JUMPDEST SWAP3 SWAP2 POP POP JUMP JUMPDEST PUSH1 0x0 DUP2 ISZERO ISZERO SWAP1 POP SWAP2 SWAP1 POP JUMP JUMPDEST PUSH2 0x324C DUP2 PUSH2 0x3237 JUMP JUMPDEST DUP3 MSTORE POP POP JUMP JUMPDEST PUSH1 0x0 PUSH1 0x20 DUP3 ADD SWAP1 POP PUSH2 0x3267 PUSH1 0x0 DUP4 ADD DUP5 PUSH2 0x3243 JUMP JUMPDEST SWAP3 SWAP2 POP POP JUMP JUMPDEST PUSH1 0x0 DUP1 REVERT JUMPDEST PUSH1 0x0 DUP1 REVERT JUMPDEST PUSH1 0x0 DUP1 REVERT JUMPDEST PUSH1 0x0 DUP1 DUP4 PUSH1 0x1F DUP5 ADD SLT PUSH2 0x3292 JUMPI PUSH2 0x3291 PUSH2 0x326D JUMP JUMPDEST JUMPDEST DUP3 CALLDATALOAD SWAP1 POP PUSH8 0xFFFFFFFFFFFFFFFF DUP2 GT ISZERO PUSH2 0x32AF JUMPI PUSH2 0x32AE PUSH2 0x3272 JUMP JUMPDEST JUMPDEST PUSH1 0x20 DUP4 ADD SWAP2 POP DUP4 PUSH1 0x20 DUP3 MUL DUP4 ADD GT ISZERO PUSH2 0x32CB JUMPI PUSH2 0x32CA PUSH2 0x3277 JUMP JUMPDEST JUMPDEST SWAP3 POP SWAP3 SWAP1 POP JUMP JUMPDEST PUSH1 0x0 DUP1 PUSH1 0x20 DUP4 DUP6 SUB SLT ISZERO PUSH2 0x32E9 JUMPI PUSH2 0x32E8 PUSH2 0x305E JUMP JUMPDEST JUMPDEST PUSH1 0x0 DUP4 ADD CALLDATALOAD PUSH8 0xFFFFFFFFFFFFFFFF DUP2 GT ISZERO PUSH2 0x3307 JUMPI PUSH2 0x3306 PUSH2 0x3063 JUMP JUMPDEST JUMPDEST PUSH2 0x3313 DUP6 DUP3 DUP7 ADD PUSH2 0x327C JUMP JUMPDEST SWAP3 POP SWAP3 POP POP SWAP3 POP SWAP3 SWAP1 POP JUMP JUMPDEST PUSH1 0x0 PUSH1 0x20 DUP3 DUP5 SUB SLT ISZERO PUSH2 0x3335 JUMPI PUSH2 0x3334 PUSH2 0x305E JUMP JUMPDEST JUMPDEST PUSH1 0x0 PUSH2 0x3343 DUP5 DUP3 DUP6 ADD PUSH2 0x3089 JUMP JUMPDEST SWAP2 POP POP SWAP3 SWAP2 POP POP JUMP JUMPDEST PUSH1 0x0 DUP1 PUSH1 0x40 DUP4 DUP6 SUB SLT ISZERO PUSH2 0x3363 JUMPI PUSH2 0x3362 PUSH2 0x305E JUMP JUMPDEST JUMPDEST PUSH1 0x0 PUSH2 0x3371 DUP6 DUP3 DUP7 ADD PUSH2 0x3089 JUMP JUMPDEST SWAP3 POP POP PUSH1 0x20 PUSH2 0x3382 DUP6 DUP3 DUP7 ADD PUSH2 0x3151 JUMP JUMPDEST SWAP2 POP POP SWAP3 POP SWAP3 SWAP1 POP JUMP JUMPDEST PUSH32 0x4E487B7100000000000000000000000000000000000000000000000000000000 PUSH1 0x0 MSTORE PUSH1 0x21 PUSH1 0x4 MSTORE PUSH1 0x24 PUSH1 0x0 REVERT JUMPDEST PUSH1 0x2 DUP2 LT PUSH2 0x33CC JUMPI PUSH2 0x33CB PUSH2 0x338C JUMP JUMPDEST JUMPDEST POP JUMP JUMPDEST PUSH1 0x0 DUP2 SWAP1 POP PUSH2 0x33DD DUP3 PUSH2 0x33BB JUMP JUMPDEST SWAP2 SWAP1 POP JUMP JUMPDEST PUSH1 0x0 PUSH2 0x33ED DUP3 PUSH2 0x33CF JUMP JUMPDEST SWAP1 POP SWAP2 SWAP1 POP JUMP JUMPDEST PUSH2 0x33FD DUP2 PUSH2 0x33E2 JUMP JUMPDEST DUP3 MSTORE POP POP JUMP JUMPDEST PUSH1 0x0 PUSH1 0x60 DUP3 ADD SWAP1 POP PUSH2 0x3418 PUSH1 0x0 DUP4 ADD DUP7 PUSH2 0x33F4 JUMP JUMPDEST PUSH2 0x3425 PUSH1 0x20 DUP4 ADD DUP6 PUSH2 0x3193 JUMP JUMPDEST PUSH2 0x3432 PUSH1 0x40 DUP4 ADD DUP5 PUSH2 0x3243 JUMP JUMPDEST SWAP5 SWAP4 POP POP POP POP JUMP JUMPDEST PUSH1 0x3 DUP2 LT PUSH2 0x344B JUMPI PUSH2 0x344A PUSH2 0x338C JUMP JUMPDEST JUMPDEST POP JUMP JUMPDEST PUSH1 0x0 DUP2 SWAP1 POP PUSH2 0x345C DUP3 PUSH2 0x343A JUMP JUMPDEST SWAP2 SWAP1 POP JUMP JUMPDEST PUSH1 0x0 PUSH2 0x346C DUP3 PUSH2 0x344E JUMP JUMPDEST SWAP1 POP SWAP2 SWAP1 POP JUMP JUMPDEST PUSH2 0x347C DUP2 PUSH2 0x3461 JUMP JUMPDEST DUP3 MSTORE POP POP JUMP JUMPDEST PUSH1 0x0 PUSH2 0x160 DUP3 ADD SWAP1 POP PUSH2 0x3498 PUSH1 0x0 DUP4 ADD DUP15 PUSH2 0x3193 JUMP JUMPDEST PUSH2 0x34A5 PUSH1 0x20 DUP4 ADD DUP14 PUSH2 0x3193 JUMP JUMPDEST PUSH2 0x34B2 PUSH1 0x40 DUP4 ADD DUP13 PUSH2 0x3193 JUMP JUMPDEST PUSH2 0x34BF PUSH1 0x60 DUP4 ADD DUP12 PUSH2 0x3193 JUMP JUMPDEST PUSH2 0x34CC PUSH1 0x80 DUP4 ADD DUP11 PUSH2 0x3193 JUMP JUMPDEST PUSH2 0x34D9 PUSH1 0xA0 DUP4 ADD DUP10 PUSH2 0x3193 JUMP JUMPDEST PUSH2 0x34E6 PUSH1 0xC0 DUP4 ADD DUP9 PUSH2 0x3193 JUMP JUMPDEST PUSH2 0x34F3 PUSH1 0xE0 DUP4 ADD DUP8 PUSH2 0x3193 JUMP JUMPDEST PUSH2 0x3501 PUSH2 0x100 DUP4 ADD DUP7 PUSH2 0x3193 JUMP JUMPDEST PUSH2 0x350F PUSH2 0x120 DUP4 ADD DUP6 PUSH2 0x3243 JUMP JUMPDEST PUSH2 0x351D PUSH2 0x140 DUP4 ADD DUP5 PUSH2 0x3473 JUMP JUMPDEST SWAP13 SWAP12 POP POP POP POP POP POP POP POP POP POP POP POP JUMP JUMPDEST PUSH1 0x0 DUP1 PUSH1 0x0 PUSH1 0x60 DUP5 DUP7 SUB SLT ISZERO PUSH2 0x3546 JUMPI PUSH2 0x3545 PUSH2 0x305E JUMP JUMPDEST JUMPDEST PUSH1 0x0 PUSH2 0x3554 DUP7 DUP3 DUP8 ADD PUSH2 0x3151 JUMP JUMPDEST SWAP4 POP POP PUSH1 0x20 PUSH2 0x3565 DUP7 DUP3 DUP8 ADD PUSH2 0x3089 JUMP JUMPDEST SWAP3 POP POP PUSH1 0x40 PUSH2 0x3576 DUP7 DUP3 DUP8 ADD PUSH2 0x3089 JUMP JUMPDEST SWAP2 POP POP SWAP3 POP SWAP3 POP SWAP3 JUMP JUMPDEST PUSH1 0x0 DUP2 MLOAD SWAP1 POP SWAP2 SWAP1 POP JUMP JUMPDEST PUSH1 0x0 DUP3 DUP3 MSTORE PUSH1 0x20 DUP3 ADD SWAP1 POP SWAP3 SWAP2 POP POP JUMP JUMPDEST PUSH1 0x0 DUP2 SWAP1 POP PUSH1 0x20 DUP3 ADD SWAP1 POP SWAP2 SWAP1 POP JUMP JUMPDEST PUSH2 0x35B5 DUP2 PUSH2 0x3068 JUMP JUMPDEST DUP3 MSTORE POP POP JUMP JUMPDEST PUSH1 0x0 PUSH2 0x35C7 DUP4 DUP4 PUSH2 0x35AC JUMP JUMPDEST PUSH1 0x20 DUP4 ADD SWAP1 POP SWAP3 SWAP2 POP POP JUMP JUMPDEST PUSH1 0x0 PUSH1 0x20 DUP3 ADD SWAP1 POP SWAP2 SWAP1 POP JUMP JUMPDEST PUSH1 0x0 PUSH2 0x35EB DUP3 PUSH2 0x3580 JUMP JUMPDEST PUSH2 0x35F5 DUP2 DUP6 PUSH2 0x358B JUMP JUMPDEST SWAP4 POP PUSH2 0x3600 DUP4 PUSH2 0x359C JUMP JUMPDEST DUP1 PUSH1 0x0 JUMPDEST DUP4 DUP2 LT ISZERO PUSH2 0x3631 JUMPI DUP2 MLOAD PUSH2 0x3618 DUP9 DUP3 PUSH2 0x35BB JUMP JUMPDEST SWAP8 POP PUSH2 0x3623 DUP4 PUSH2 0x35D3 JUMP JUMPDEST SWAP3 POP POP PUSH1 0x1 DUP2 ADD SWAP1 POP PUSH2 0x3604 JUMP JUMPDEST POP DUP6 SWAP4 POP POP POP POP SWAP3 SWAP2 POP POP JUMP JUMPDEST PUSH1 0x0 DUP2 MLOAD SWAP1 POP SWAP2 SWAP1 POP JUMP JUMPDEST PUSH1 0x0 DUP3 DUP3 MSTORE PUSH1 0x20 DUP3 ADD SWAP1 POP SWAP3 SWAP2 POP POP JUMP JUMPDEST PUSH1 0x0 DUP2 SWAP1 POP PUSH1 0x20 DUP3 ADD SWAP1 POP SWAP2 SWAP1 POP JUMP JUMPDEST PUSH2 0x3673 DUP2 PUSH2 0x33E2 JUMP JUMPDEST DUP3 MSTORE POP POP JUMP JUMPDEST PUSH2 0x3682 DUP2 PUSH2 0x3237 JUMP JUMPDEST DUP3 MSTORE POP POP JUMP JUMPDEST PUSH1 0x60 DUP3 ADD PUSH1 0x0 DUP3 ADD MLOAD PUSH2 0x369E PUSH1 0x0 DUP6 ADD DUP3 PUSH2 0x366A JUMP JUMPDEST POP PUSH1 0x20 DUP3 ADD MLOAD PUSH2 0x36B1 PUSH1 0x20 DUP6 ADD DUP3 PUSH2 0x35AC JUMP JUMPDEST POP PUSH1 0x40 DUP3 ADD MLOAD PUSH2 0x36C4 PUSH1 0x40 DUP6 ADD DUP3 PUSH2 0x3679 JUMP JUMPDEST POP POP POP POP JUMP JUMPDEST PUSH1 0x0 PUSH2 0x36D6 DUP4 DUP4 PUSH2 0x3688 JUMP JUMPDEST PUSH1 0x60 DUP4 ADD SWAP1 POP SWAP3 SWAP2 POP POP JUMP JUMPDEST PUSH1 0x0 PUSH1 0x20 DUP3 ADD SWAP1 POP SWAP2 SWAP1 POP JUMP JUMPDEST PUSH1 0x0 PUSH2 0x36FA DUP3 PUSH2 0x363E JUMP JUMPDEST PUSH2 0x3704 DUP2 DUP6 PUSH2 0x3649 JUMP JUMPDEST SWAP4 POP PUSH2 0x370F DUP4 PUSH2 0x365A JUMP JUMPDEST DUP1 PUSH1 0x0 JUMPDEST DUP4 DUP2 LT ISZERO PUSH2 0x3740 JUMPI DUP2 MLOAD PUSH2 0x3727 DUP9 DUP3 PUSH2 0x36CA JUMP JUMPDEST SWAP8 POP PUSH2 0x3732 DUP4 PUSH2 0x36E2 JUMP JUMPDEST SWAP3 POP POP PUSH1 0x1 DUP2 ADD SWAP1 POP PUSH2 0x3713 JUMP JUMPDEST POP DUP6 SWAP4 POP POP POP POP SWAP3 SWAP2 POP POP JUMP JUMPDEST PUSH1 0x0 PUSH1 0x60 DUP3 ADD SWAP1 POP DUP2 DUP2 SUB PUSH1 0x0 DUP4 ADD MSTORE PUSH2 0x3767 DUP2 DUP7 PUSH2 0x35E0 JUMP JUMPDEST SWAP1 POP DUP2 DUP2 SUB PUSH1 0x20 DUP4 ADD MSTORE PUSH2 0x377B DUP2 DUP6 PUSH2 0x36EF JUMP JUMPDEST SWAP1 POP PUSH2 0x378A PUSH1 0x40 DUP4 ADD DUP5 PUSH2 0x3193 JUMP JUMPDEST SWAP5 SWAP4 POP POP POP POP JUMP JUMPDEST PUSH1 0x0 DUP1 PUSH1 0x40 DUP4 DUP6 SUB SLT ISZERO PUSH2 0x37A9 JUMPI PUSH2 0x37A8 PUSH2 0x305E JUMP JUMPDEST JUMPDEST PUSH1 0x0 PUSH2 0x37B7 DUP6 DUP3 DUP7 ADD PUSH2 0x3151 JUMP JUMPDEST SWAP3 POP POP PUSH1 0x20 PUSH2 0x37C8 DUP6 DUP3 DUP7 ADD PUSH2 0x3089 JUMP JUMPDEST SWAP2 POP POP SWAP3 POP SWAP3 SWAP1 POP JUMP JUMPDEST PUSH1 0x3 DUP2 LT PUSH2 0x37DF JUMPI PUSH1 0x0 DUP1 REVERT JUMPDEST POP JUMP JUMPDEST PUSH1 0x0 DUP2 CALLDATALOAD SWAP1 POP PUSH2 0x37F1 DUP2 PUSH2 0x37D2 JUMP JUMPDEST SWAP3 SWAP2 POP POP JUMP JUMPDEST PUSH1 0x0 DUP1 PUSH1 0x40 DUP4 DUP6 SUB SLT ISZERO PUSH2 0x380E JUMPI PUSH2 0x380D PUSH2 0x305E JUMP JUMPDEST JUMPDEST PUSH1 0x0 PUSH2 0x381C DUP6 DUP3 DUP7 ADD PUSH2 0x3089 JUMP JUMPDEST SWAP3 POP POP PUSH1 0x20 PUSH2 0x382D DUP6 DUP3 DUP7 ADD PUSH2 0x37E2 JUMP JUMPDEST SWAP2 POP POP SWAP3 POP SWAP3 SWAP1 POP JUMP JUMPDEST PUSH1 0x0 DUP3 DUP3 MSTORE PUSH1 0x20 DUP3 ADD SWAP1 POP SWAP3 SWAP2 POP POP JUMP JUMPDEST PUSH32 0x4E6F742061646D696E0000000000000000000000000000000000000000000000 PUSH1 0x0 DUP3 ADD MSTORE POP JUMP JUMPDEST PUSH1 0x0 PUSH2 0x387E PUSH1 0x9 DUP4 PUSH2 0x3837 JUMP JUMPDEST SWAP2 POP PUSH2 0x3889 DUP3 PUSH2 0x3848 JUMP JUMPDEST PUSH1 0x20 DUP3 ADD SWAP1 POP SWAP2 SWAP1 POP JUMP JUMPDEST PUSH1 0x0 PUSH1 0x20 DUP3 ADD SWAP1 POP DUP2 DUP2 SUB PUSH1 0x0 DUP4 ADD MSTORE PUSH2 0x38AD DUP2 PUSH2 0x3871 JUMP JUMPDEST SWAP1 POP SWAP2 SWAP1 POP JUMP JUMPDEST PUSH1 0x0 PUSH1 0x40 DUP3 ADD SWAP1 POP PUSH2 0x38C9 PUSH1 0x0 DUP4 ADD DUP6 PUSH2 0x3110 JUMP JUMPDEST PUSH2 0x38D6 PUSH1 0x20 DUP4 ADD DUP5 PUSH2 0x3193 JUMP JUMPDEST SWAP4 SWAP3 POP POP POP JUMP JUMPDEST PUSH2 0x38E6 DUP2 PUSH2 0x3237 JUMP JUMPDEST DUP2 EQ PUSH2 0x38F1 JUMPI PUSH1 0x0 DUP1 REVERT JUMPDEST POP JUMP JUMPDEST PUSH1 0x0 DUP2 MLOAD SWAP1 POP PUSH2 0x3903 DUP2 PUSH2 0x38DD JUMP JUMPDEST SWAP3 SWAP2 POP POP JUMP JUMPDEST PUSH1 0x0 PUSH1 0x20 DUP3 DUP5 SUB SLT ISZERO PUSH2 0x391F JUMPI PUSH2 0x391E PUSH2 0x305E JUMP JUMPDEST JUMPDEST PUSH1 0x0 PUSH2 0x392D DUP5 DUP3 DUP6 ADD PUSH2 0x38F4 JUMP JUMPDEST SWAP2 POP POP SWAP3 SWAP2 POP POP JUMP JUMPDEST PUSH32 0x4E6F74206F70657261746F720000000000000000000000000000000000000000 PUSH1 0x0 DUP3 ADD MSTORE POP JUMP JUMPDEST PUSH1 0x0 PUSH2 0x396C PUSH1 0xC DUP4 PUSH2 0x3837 JUMP JUMPDEST SWAP2 POP PUSH2 0x3977 DUP3 PUSH2 0x3936 JUMP JUMPDEST PUSH1 0x20 DUP3 ADD SWAP1 POP SWAP2 SWAP1 POP JUMP JUMPDEST PUSH1 0x0 PUSH1 0x20 DUP3 ADD SWAP1 POP DUP2 DUP2 SUB PUSH1 0x0 DUP4 ADD MSTORE PUSH2 0x399B DUP2 PUSH2 0x395F JUMP JUMPDEST SWAP1 POP SWAP2 SWAP1 POP JUMP JUMPDEST PUSH32 0x6C6F636B54696D657374616D70206D7573742062652067726561746572207468 PUSH1 0x0 DUP3 ADD MSTORE PUSH32 0x616E2063757272656E742074696D657374616D70000000000000000000000000 PUSH1 0x20 DUP3 ADD MSTORE POP JUMP JUMPDEST PUSH1 0x0 PUSH2 0x39FE PUSH1 0x34 DUP4 PUSH2 0x3837 JUMP JUMPDEST SWAP2 POP PUSH2 0x3A09 DUP3 PUSH2 0x39A2 JUMP JUMPDEST PUSH1 0x40 DUP3 ADD SWAP1 POP SWAP2 SWAP1 POP JUMP JUMPDEST PUSH1 0x0 PUSH1 0x20 DUP3 ADD SWAP1 POP DUP2 DUP2 SUB PUSH1 0x0 DUP4 ADD MSTORE PUSH2 0x3A2D DUP2 PUSH2 0x39F1 JUMP JUMPDEST SWAP1 POP SWAP2 SWAP1 POP JUMP JUMPDEST PUSH32 0x6C6F636B2074696D657374616D70206D757374206265206C657373207468616E PUSH1 0x0 DUP3 ADD MSTORE PUSH32 0x20636C6F73652074696D657374616D7000000000000000000000000000000000 PUSH1 0x20 DUP3 ADD MSTORE POP JUMP JUMPDEST PUSH1 0x0 PUSH2 0x3A90 PUSH1 0x30 DUP4 PUSH2 0x3837 JUMP JUMPDEST SWAP2 POP PUSH2 0x3A9B DUP3 PUSH2 0x3A34 JUMP JUMPDEST PUSH1 0x40 DUP3 ADD SWAP1 POP SWAP2 SWAP1 POP JUMP JUMPDEST PUSH1 0x0 PUSH1 0x20 DUP3 ADD SWAP1 POP DUP2 DUP2 SUB PUSH1 0x0 DUP4 ADD MSTORE PUSH2 0x3ABF DUP2 PUSH2 0x3A83 JUMP JUMPDEST SWAP1 POP SWAP2 SWAP1 POP JUMP JUMPDEST PUSH32 0x4E487B7100000000000000000000000000000000000000000000000000000000 PUSH1 0x0 MSTORE PUSH1 0x11 PUSH1 0x4 MSTORE PUSH1 0x24 PUSH1 0x0 REVERT JUMPDEST PUSH1 0x0 PUSH2 0x3B00 DUP3 PUSH2 0x3068 JUMP JUMPDEST SWAP2 POP PUSH2 0x3B0B DUP4 PUSH2 0x3068 JUMP JUMPDEST SWAP3 POP DUP3 PUSH32 0xFFFFFFFFFFFFFFFFFFFFFFFFFFFFFFFFFFFFFFFFFFFFFFFFFFFFFFFFFFFFFFFF SUB DUP3 GT ISZERO PUSH2 0x3B40 JUMPI PUSH2 0x3B3F PUSH2 0x3AC6 JUMP JUMPDEST JUMPDEST DUP3 DUP3 ADD SWAP1 POP SWAP3 SWAP2 POP POP JUMP JUMPDEST PUSH32 0x436F6E7472616374206E6F7420616C6C6F776564000000000000000000000000 PUSH1 0x0 DUP3 ADD MSTORE POP JUMP JUMPDEST PUSH1 0x0 PUSH2 0x3B81 PUSH1 0x14 DUP4 PUSH2 0x3837 JUMP JUMPDEST SWAP2 POP PUSH2 0x3B8C DUP3 PUSH2 0x3B4B JUMP JUMPDEST PUSH1 0x20 DUP3 ADD SWAP1 POP SWAP2 SWAP1 POP JUMP JUMPDEST PUSH1 0x0 PUSH1 0x20 DUP3 ADD SWAP1 POP DUP2 DUP2 SUB PUSH1 0x0 DUP4 ADD MSTORE PUSH2 0x3BB0 DUP2 PUSH2 0x3B74 JUMP JUMPDEST SWAP1 POP SWAP2 SWAP1 POP JUMP JUMPDEST PUSH32 0x50726F787920636F6E7472616374206E6F7420616C6C6F776564000000000000 PUSH1 0x0 DUP3 ADD MSTORE POP JUMP JUMPDEST PUSH1 0x0 PUSH2 0x3BED PUSH1 0x1A DUP4 PUSH2 0x3837 JUMP JUMPDEST SWAP2 POP PUSH2 0x3BF8 DUP3 PUSH2 0x3BB7 JUMP JUMPDEST PUSH1 0x20 DUP3 ADD SWAP1 POP SWAP2 SWAP1 POP JUMP JUMPDEST PUSH1 0x0 PUSH1 0x20 DUP3 ADD SWAP1 POP DUP2 DUP2 SUB PUSH1 0x0 DUP4 ADD MSTORE PUSH2 0x3C1C DUP2 PUSH2 0x3BE0 JUMP JUMPDEST SWAP1 POP SWAP2 SWAP1 POP JUMP JUMPDEST PUSH32 0x526F756E64206E6F74206265747461626C650000000000000000000000000000 PUSH1 0x0 DUP3 ADD MSTORE POP JUMP JUMPDEST PUSH1 0x0 PUSH2 0x3C59 PUSH1 0x12 DUP4 PUSH2 0x3837 JUMP JUMPDEST SWAP2 POP PUSH2 0x3C64 DUP3 PUSH2 0x3C23 JUMP JUMPDEST PUSH1 0x20 DUP3 ADD SWAP1 POP SWAP2 SWAP1 POP JUMP JUMPDEST PUSH1 0x0 PUSH1 0x20 DUP3 ADD SWAP1 POP DUP2 DUP2 SUB PUSH1 0x0 DUP4 ADD MSTORE PUSH2 0x3C88 DUP2 PUSH2 0x3C4C JUMP JUMPDEST SWAP1 POP SWAP2 SWAP1 POP JUMP JUMPDEST PUSH32 0x42657420616D6F756E74206D7573742062652067726561746572207468616E20 PUSH1 0x0 DUP3 ADD MSTORE PUSH32 0x6D696E426574416D6F756E740000000000000000000000000000000000000000 PUSH1 0x20 DUP3 ADD MSTORE POP JUMP JUMPDEST PUSH1 0x0 PUSH2 0x3CEB PUSH1 0x2C DUP4 PUSH2 0x3837 JUMP JUMPDEST SWAP2 POP PUSH2 0x3CF6 DUP3 PUSH2 0x3C8F JUMP JUMPDEST PUSH1 0x40 DUP3 ADD SWAP1 POP SWAP2 SWAP1 POP JUMP JUMPDEST PUSH1 0x0 PUSH1 0x20 DUP3 ADD SWAP1 POP DUP2 DUP2 SUB PUSH1 0x0 DUP4 ADD MSTORE PUSH2 0x3D1A DUP2 PUSH2 0x3CDE JUMP JUMPDEST SWAP1 POP SWAP2 SWAP1 POP JUMP JUMPDEST PUSH32 0x43616E206F6E6C7920626574206F6E63652070657220726F756E640000000000 PUSH1 0x0 DUP3 ADD MSTORE POP JUMP JUMPDEST PUSH1 0x0 PUSH2 0x3D57 PUSH1 0x1B DUP4 PUSH2 0x3837 JUMP JUMPDEST SWAP2 POP PUSH2 0x3D62 DUP3 PUSH2 0x3D21 JUMP JUMPDEST PUSH1 0x20 DUP3 ADD SWAP1 POP SWAP2 SWAP1 POP JUMP JUMPDEST PUSH1 0x0 PUSH1 0x20 DUP3 ADD SWAP1 POP DUP2 DUP2 SUB PUSH1 0x0 DUP4 ADD MSTORE PUSH2 0x3D86 DUP2 PUSH2 0x3D4A JUMP JUMPDEST SWAP1 POP SWAP2 SWAP1 POP JUMP JUMPDEST PUSH1 0x0 PUSH1 0x60 DUP3 ADD SWAP1 POP PUSH2 0x3DA2 PUSH1 0x0 DUP4 ADD DUP7 PUSH2 0x3110 JUMP JUMPDEST PUSH2 0x3DAF PUSH1 0x20 DUP4 ADD DUP6 PUSH2 0x3110 JUMP JUMPDEST PUSH2 0x3DBC PUSH1 0x40 DUP4 ADD DUP5 PUSH2 0x3193 JUMP JUMPDEST SWAP5 SWAP4 POP POP POP POP JUMP JUMPDEST PUSH32 0x4E6F74206F70657261746F722F61646D696E0000000000000000000000000000 PUSH1 0x0 DUP3 ADD MSTORE POP JUMP JUMPDEST PUSH1 0x0 PUSH2 0x3DFA PUSH1 0x12 DUP4 PUSH2 0x3837 JUMP JUMPDEST SWAP2 POP PUSH2 0x3E05 DUP3 PUSH2 0x3DC4 JUMP JUMPDEST PUSH1 0x20 DUP3 ADD SWAP1 POP SWAP2 SWAP1 POP JUMP JUMPDEST PUSH1 0x0 PUSH1 0x20 DUP3 ADD SWAP1 POP DUP2 DUP2 SUB PUSH1 0x0 DUP4 ADD MSTORE PUSH2 0x3E29 DUP2 PUSH2 0x3DED JUMP JUMPDEST SWAP1 POP SWAP2 SWAP1 POP JUMP JUMPDEST PUSH32 0x4E487B7100000000000000000000000000000000000000000000000000000000 PUSH1 0x0 MSTORE PUSH1 0x32 PUSH1 0x4 MSTORE PUSH1 0x24 PUSH1 0x0 REVERT JUMPDEST PUSH32 0x526F756E6420686173206E6F7420737461727465640000000000000000000000 PUSH1 0x0 DUP3 ADD MSTORE POP JUMP JUMPDEST PUSH1 0x0 PUSH2 0x3E95 PUSH1 0x15 DUP4 PUSH2 0x3837 JUMP JUMPDEST SWAP2 POP PUSH2 0x3EA0 DUP3 PUSH2 0x3E5F JUMP JUMPDEST PUSH1 0x20 DUP3 ADD SWAP1 POP SWAP2 SWAP1 POP JUMP JUMPDEST PUSH1 0x0 PUSH1 0x20 DUP3 ADD SWAP1 POP DUP2 DUP2 SUB PUSH1 0x0 DUP4 ADD MSTORE PUSH2 0x3EC4 DUP2 PUSH2 0x3E88 JUMP JUMPDEST SWAP1 POP SWAP2 SWAP1 POP JUMP JUMPDEST PUSH32 0x526F756E6420686173206E6F7420656E64656400000000000000000000000000 PUSH1 0x0 DUP3 ADD MSTORE POP JUMP JUMPDEST PUSH1 0x0 PUSH2 0x3F01 PUSH1 0x13 DUP4 PUSH2 0x3837 JUMP JUMPDEST SWAP2 POP PUSH2 0x3F0C DUP3 PUSH2 0x3ECB JUMP JUMPDEST PUSH1 0x20 DUP3 ADD SWAP1 POP SWAP2 SWAP1 POP JUMP JUMPDEST PUSH1 0x0 PUSH1 0x20 DUP3 ADD SWAP1 POP DUP2 DUP2 SUB PUSH1 0x0 DUP4 ADD MSTORE PUSH2 0x3F30 DUP2 PUSH2 0x3EF4 JUMP JUMPDEST SWAP1 POP SWAP2 SWAP1 POP JUMP JUMPDEST PUSH32 0x4E6F7420656C696769626C6520666F7220636C61696D00000000000000000000 PUSH1 0x0 DUP3 ADD MSTORE POP JUMP JUMPDEST PUSH1 0x0 PUSH2 0x3F6D PUSH1 0x16 DUP4 PUSH2 0x3837 JUMP JUMPDEST SWAP2 POP PUSH2 0x3F78 DUP3 PUSH2 0x3F37 JUMP JUMPDEST PUSH1 0x20 DUP3 ADD SWAP1 POP SWAP2 SWAP1 POP JUMP JUMPDEST PUSH1 0x0 PUSH1 0x20 DUP3 ADD SWAP1 POP DUP2 DUP2 SUB PUSH1 0x0 DUP4 ADD MSTORE PUSH2 0x3F9C DUP2 PUSH2 0x3F60 JUMP JUMPDEST SWAP1 POP SWAP2 SWAP1 POP JUMP JUMPDEST PUSH1 0x0 PUSH2 0x3FAE DUP3 PUSH2 0x3068 JUMP JUMPDEST SWAP2 POP PUSH2 0x3FB9 DUP4 PUSH2 0x3068 JUMP JUMPDEST SWAP3 POP DUP2 PUSH32 0xFFFFFFFFFFFFFFFFFFFFFFFFFFFFFFFFFFFFFFFFFFFFFFFFFFFFFFFFFFFFFFFF DIV DUP4 GT DUP3 ISZERO ISZERO AND ISZERO PUSH2 0x3FF2 JUMPI PUSH2 0x3FF1 PUSH2 0x3AC6 JUMP JUMPDEST JUMPDEST DUP3 DUP3 MUL SWAP1 POP SWAP3 SWAP2 POP POP JUMP JUMPDEST PUSH32 0x4E487B7100000000000000000000000000000000000000000000000000000000 PUSH1 0x0 MSTORE PUSH1 0x12 PUSH1 0x4 MSTORE PUSH1 0x24 PUSH1 0x0 REVERT JUMPDEST PUSH1 0x0 PUSH2 0x4037 DUP3 PUSH2 0x3068 JUMP JUMPDEST SWAP2 POP PUSH2 0x4042 DUP4 PUSH2 0x3068 JUMP JUMPDEST SWAP3 POP DUP3 PUSH2 0x4052 JUMPI PUSH2 0x4051 PUSH2 0x3FFD JUMP JUMPDEST JUMPDEST DUP3 DUP3 DIV SWAP1 POP SWAP3 SWAP2 POP POP JUMP JUMPDEST PUSH1 0x0 PUSH2 0x4068 DUP3 PUSH2 0x3068 JUMP JUMPDEST SWAP2 POP PUSH32 0xFFFFFFFFFFFFFFFFFFFFFFFFFFFFFFFFFFFFFFFFFFFFFFFFFFFFFFFFFFFFFFFF DUP3 EQ ISZERO PUSH2 0x409B JUMPI PUSH2 0x409A PUSH2 0x3AC6 JUMP JUMPDEST JUMPDEST PUSH1 0x1 DUP3 ADD SWAP1 POP SWAP2 SWAP1 POP JUMP JUMPDEST PUSH32 0x4D757374206265207375706572696F7220746F20300000000000000000000000 PUSH1 0x0 DUP3 ADD MSTORE POP JUMP JUMPDEST PUSH1 0x0 PUSH2 0x40DC PUSH1 0x15 DUP4 PUSH2 0x3837 JUMP JUMPDEST SWAP2 POP PUSH2 0x40E7 DUP3 PUSH2 0x40A6 JUMP JUMPDEST PUSH1 0x20 DUP3 ADD SWAP1 POP SWAP2 SWAP1 POP JUMP JUMPDEST PUSH1 0x0 PUSH1 0x20 DUP3 ADD SWAP1 POP DUP2 DUP2 SUB PUSH1 0x0 DUP4 ADD MSTORE PUSH2 0x410B DUP2 PUSH2 0x40CF JUMP JUMPDEST SWAP1 POP SWAP2 SWAP1 POP JUMP JUMPDEST PUSH32 0x43616E6E6F74206265207A65726F206164647265737300000000000000000000 PUSH1 0x0 DUP3 ADD MSTORE POP JUMP JUMPDEST PUSH1 0x0 PUSH2 0x4148 PUSH1 0x16 DUP4 PUSH2 0x3837 JUMP JUMPDEST SWAP2 POP PUSH2 0x4153 DUP3 PUSH2 0x4112 JUMP JUMPDEST PUSH1 0x20 DUP3 ADD SWAP1 POP SWAP2 SWAP1 POP JUMP JUMPDEST PUSH1 0x0 PUSH1 0x20 DUP3 ADD SWAP1 POP DUP2 DUP2 SUB PUSH1 0x0 DUP4 ADD MSTORE PUSH2 0x4177 DUP2 PUSH2 0x413B JUMP JUMPDEST SWAP1 POP SWAP2 SWAP1 POP JUMP JUMPDEST PUSH32 0x54726561737572792066656520746F6F20686967680000000000000000000000 PUSH1 0x0 DUP3 ADD MSTORE POP JUMP JUMPDEST PUSH1 0x0 PUSH2 0x41B4 PUSH1 0x15 DUP4 PUSH2 0x3837 JUMP JUMPDEST SWAP2 POP PUSH2 0x41BF DUP3 PUSH2 0x417E JUMP JUMPDEST PUSH1 0x20 DUP3 ADD SWAP1 POP SWAP2 SWAP1 POP JUMP JUMPDEST PUSH1 0x0 PUSH1 0x20 DUP3 ADD SWAP1 POP DUP2 DUP2 SUB PUSH1 0x0 DUP4 ADD MSTORE PUSH2 0x41E3 DUP2 PUSH2 0x41A7 JUMP JUMPDEST SWAP1 POP SWAP2 SWAP1 POP JUMP JUMPDEST PUSH1 0x0 PUSH2 0x41F5 DUP3 PUSH2 0x3068 JUMP JUMPDEST SWAP2 POP PUSH2 0x4200 DUP4 PUSH2 0x3068 JUMP JUMPDEST SWAP3 POP DUP3 DUP3 LT ISZERO PUSH2 0x4213 JUMPI PUSH2 0x4212 PUSH2 0x3AC6 JUMP JUMPDEST JUMPDEST DUP3 DUP3 SUB SWAP1 POP SWAP3 SWAP2 POP POP JUMP JUMPDEST PUSH32 0x4E487B7100000000000000000000000000000000000000000000000000000000 PUSH1 0x0 MSTORE PUSH1 0x41 PUSH1 0x4 MSTORE PUSH1 0x24 PUSH1 0x0 REVERT JUMPDEST PUSH32 0x43616E6E6F742062652070726564696374696F6E20746F6B656E206164647265 PUSH1 0x0 DUP3 ADD MSTORE PUSH32 0x7373000000000000000000000000000000000000000000000000000000000000 PUSH1 0x20 DUP3 ADD MSTORE POP JUMP JUMPDEST PUSH1 0x0 PUSH2 0x42A9 PUSH1 0x22 DUP4 PUSH2 0x3837 JUMP JUMPDEST SWAP2 POP PUSH2 0x42B4 DUP3 PUSH2 0x424D JUMP JUMPDEST PUSH1 0x40 DUP3 ADD SWAP1 POP SWAP2 SWAP1 POP JUMP JUMPDEST PUSH1 0x0 PUSH1 0x20 DUP3 ADD SWAP1 POP DUP2 DUP2 SUB PUSH1 0x0 DUP4 ADD MSTORE PUSH2 0x42D8 DUP2 PUSH2 0x429C JUMP JUMPDEST SWAP1 POP SWAP2 SWAP1 POP JUMP JUMPDEST PUSH32 0x526F756E6420646F6573206E6F74206578697374000000000000000000000000 PUSH1 0x0 DUP3 ADD MSTORE POP JUMP JUMPDEST PUSH1 0x0 PUSH2 0x4315 PUSH1 0x14 DUP4 PUSH2 0x3837 JUMP JUMPDEST SWAP2 POP PUSH2 0x4320 DUP3 PUSH2 0x42DF JUMP JUMPDEST PUSH1 0x20 DUP3 ADD SWAP1 POP SWAP2 SWAP1 POP JUMP JUMPDEST PUSH1 0x0 PUSH1 0x20 DUP3 ADD SWAP1 POP DUP2 DUP2 SUB PUSH1 0x0 DUP4 ADD MSTORE PUSH2 0x4344 DUP2 PUSH2 0x4308 JUMP JUMPDEST SWAP1 POP SWAP2 SWAP1 POP JUMP JUMPDEST PUSH32 0x526F756E642068617320616C7265616479206265656E20636C6F736564000000 PUSH1 0x0 DUP3 ADD MSTORE POP JUMP JUMPDEST PUSH1 0x0 PUSH2 0x4381 PUSH1 0x1D DUP4 PUSH2 0x3837 JUMP JUMPDEST SWAP2 POP PUSH2 0x438C DUP3 PUSH2 0x434B JUMP JUMPDEST PUSH1 0x20 DUP3 ADD SWAP1 POP SWAP2 SWAP1 POP JUMP JUMPDEST PUSH1 0x0 PUSH1 0x20 DUP3 ADD SWAP1 POP DUP2 DUP2 SUB PUSH1 0x0 DUP4 ADD MSTORE PUSH2 0x43B0 DUP2 PUSH2 0x4374 JUMP JUMPDEST SWAP1 POP SWAP2 SWAP1 POP JUMP JUMPDEST PUSH32 0x4F776E61626C653A206E6577206F776E657220697320746865207A65726F2061 PUSH1 0x0 DUP3 ADD MSTORE PUSH32 0x6464726573730000000000000000000000000000000000000000000000000000 PUSH1 0x20 DUP3 ADD MSTORE POP JUMP JUMPDEST PUSH1 0x0 PUSH2 0x4413 PUSH1 0x26 DUP4 PUSH2 0x3837 JUMP JUMPDEST SWAP2 POP PUSH2 0x441E DUP3 PUSH2 0x43B7 JUMP JUMPDEST PUSH1 0x40 DUP3 ADD SWAP1 POP SWAP2 SWAP1 POP JUMP JUMPDEST PUSH1 0x0 PUSH1 0x20 DUP3 ADD SWAP1 POP DUP2 DUP2 SUB PUSH1 0x0 DUP4 ADD MSTORE PUSH2 0x4442 DUP2 PUSH2 0x4406 JUMP JUMPDEST SWAP1 POP SWAP2 SWAP1 POP JUMP JUMPDEST PUSH32 0x5265656E7472616E637947756172643A207265656E7472616E742063616C6C00 PUSH1 0x0 DUP3 ADD MSTORE POP JUMP JUMPDEST PUSH1 0x0 PUSH2 0x447F PUSH1 0x1F DUP4 PUSH2 0x3837 JUMP JUMPDEST SWAP2 POP PUSH2 0x448A DUP3 PUSH2 0x4449 JUMP JUMPDEST PUSH1 0x20 DUP3 ADD SWAP1 POP SWAP2 SWAP1 POP JUMP JUMPDEST PUSH1 0x0 PUSH1 0x20 DUP3 ADD SWAP1 POP DUP2 DUP2 SUB PUSH1 0x0 DUP4 ADD MSTORE PUSH2 0x44AE DUP2 PUSH2 0x4472 JUMP JUMPDEST SWAP1 POP SWAP2 SWAP1 POP JUMP JUMPDEST PUSH32 0x5061757361626C653A2070617573656400000000000000000000000000000000 PUSH1 0x0 DUP3 ADD MSTORE POP JUMP JUMPDEST PUSH1 0x0 PUSH2 0x44EB PUSH1 0x10 DUP4 PUSH2 0x3837 JUMP JUMPDEST SWAP2 POP PUSH2 0x44F6 DUP3 PUSH2 0x44B5 JUMP JUMPDEST PUSH1 0x20 DUP3 ADD SWAP1 POP SWAP2 SWAP1 POP JUMP JUMPDEST PUSH1 0x0 PUSH1 0x20 DUP3 ADD SWAP1 POP DUP2 DUP2 SUB PUSH1 0x0 DUP4 ADD MSTORE PUSH2 0x451A DUP2 PUSH2 0x44DE JUMP JUMPDEST SWAP1 POP SWAP2 SWAP1 POP JUMP JUMPDEST PUSH32 0x5061757361626C653A206E6F7420706175736564000000000000000000000000 PUSH1 0x0 DUP3 ADD MSTORE POP JUMP JUMPDEST PUSH1 0x0 PUSH2 0x4557 PUSH1 0x14 DUP4 PUSH2 0x3837 JUMP JUMPDEST SWAP2 POP PUSH2 0x4562 DUP3 PUSH2 0x4521 JUMP JUMPDEST PUSH1 0x20 DUP3 ADD SWAP1 POP SWAP2 SWAP1 POP JUMP JUMPDEST PUSH1 0x0 PUSH1 0x20 DUP3 ADD SWAP1 POP DUP2 DUP2 SUB PUSH1 0x0 DUP4 ADD MSTORE PUSH2 0x4586 DUP2 PUSH2 0x454A JUMP JUMPDEST SWAP1 POP SWAP2 SWAP1 POP JUMP JUMPDEST PUSH32 0x4F776E61626C653A2063616C6C6572206973206E6F7420746865206F776E6572 PUSH1 0x0 DUP3 ADD MSTORE POP JUMP JUMPDEST PUSH1 0x0 PUSH2 0x45C3 PUSH1 0x20 DUP4 PUSH2 0x3837 JUMP JUMPDEST SWAP2 POP PUSH2 0x45CE DUP3 PUSH2 0x458D JUMP JUMPDEST PUSH1 0x20 DUP3 ADD SWAP1 POP SWAP2 SWAP1 POP JUMP JUMPDEST PUSH1 0x0 PUSH1 0x20 DUP3 ADD SWAP1 POP DUP2 DUP2 SUB PUSH1 0x0 DUP4 ADD MSTORE PUSH2 0x45F2 DUP2 PUSH2 0x45B6 JUMP JUMPDEST SWAP1 POP SWAP2 SWAP1 POP JUMP JUMPDEST PUSH32 0x43616E206F6E6C7920656E6420726F756E6420616674657220636C6F73655469 PUSH1 0x0 DUP3 ADD MSTORE PUSH32 0x6D657374616D7000000000000000000000000000000000000000000000000000 PUSH1 0x20 DUP3 ADD MSTORE POP JUMP JUMPDEST PUSH1 0x0 PUSH2 0x4655 PUSH1 0x27 DUP4 PUSH2 0x3837 JUMP JUMPDEST SWAP2 POP PUSH2 0x4660 DUP3 PUSH2 0x45F9 JUMP JUMPDEST PUSH1 0x40 DUP3 ADD SWAP1 POP SWAP2 SWAP1 POP JUMP JUMPDEST PUSH1 0x0 PUSH1 0x20 DUP3 ADD SWAP1 POP DUP2 DUP2 SUB PUSH1 0x0 DUP4 ADD MSTORE PUSH2 0x4684 DUP2 PUSH2 0x4648 JUMP JUMPDEST SWAP1 POP SWAP2 SWAP1 POP JUMP JUMPDEST PUSH1 0x0 PUSH1 0x20 DUP3 ADD SWAP1 POP PUSH2 0x46A0 PUSH1 0x0 DUP4 ADD DUP5 PUSH2 0x3473 JUMP JUMPDEST SWAP3 SWAP2 POP POP JUMP JUMPDEST PUSH32 0x526577617264732063616C63756C617465640000000000000000000000000000 PUSH1 0x0 DUP3 ADD MSTORE POP JUMP JUMPDEST PUSH1 0x0 PUSH2 0x46DC PUSH1 0x12 DUP4 PUSH2 0x3837 JUMP JUMPDEST SWAP2 POP PUSH2 0x46E7 DUP3 PUSH2 0x46A6 JUMP JUMPDEST PUSH1 0x20 DUP3 ADD SWAP1 POP SWAP2 SWAP1 POP JUMP JUMPDEST PUSH1 0x0 PUSH1 0x20 DUP3 ADD SWAP1 POP DUP2 DUP2 SUB PUSH1 0x0 DUP4 ADD MSTORE PUSH2 0x470B DUP2 PUSH2 0x46CF JUMP JUMPDEST SWAP1 POP SWAP2 SWAP1 POP JUMP JUMPDEST PUSH1 0x0 PUSH1 0x60 DUP3 ADD SWAP1 POP PUSH2 0x4727 PUSH1 0x0 DUP4 ADD DUP7 PUSH2 0x3193 JUMP JUMPDEST PUSH2 0x4734 PUSH1 0x20 DUP4 ADD DUP6 PUSH2 0x3193 JUMP JUMPDEST PUSH2 0x4741 PUSH1 0x40 DUP4 ADD DUP5 PUSH2 0x3193 JUMP JUMPDEST SWAP5 SWAP4 POP POP POP POP JUMP INVALID LOG2 PUSH5 0x6970667358 0x22 SLT KECCAK256 PUSH1 0x6 CALLVALUE PUSH23 0xEFDBBF0193AE0BBB7D3B7B93A1AF0B910B87A525730F88 DUP13 SWAP13 PUSH9 0xB6CD64736F6C634300 ADDMOD MULMOD STOP CALLER "},"methodIdentifiers":{"MAX_TREASURY_FEE()":"f2b3c809","adminAddress()":"fc6f9468","betBear(uint256,uint256)":"0e89e5a4","betBull(uint256,uint256)":"3923e1b4","claim(uint256[])":"6ba4c138","claimTreasury()":"003bdc74","claimable(uint256,address)":"a0c7f71c","closeRound(uint256,uint8)":"c89c1a89","currentRound()":"8a19c8bc","getUserRounds(address,uint256,uint256)":"951fd600","getUserRoundsLength(address)":"273867d4","ledger(uint256,address)":"7285c58b","minBetAmount()":"fa968eea","moch()":"4fe402b5","operatorAddress()":"127effb2","owner()":"8da5cb5b","pause()":"8456cb59","paused()":"5c975abb","recoverToken(address,uint256)":"b29a8140","renounceOwnership()":"715018a6","rounds(uint256)":"8c65c81f","setAdmin(address)":"704b6c02","setMinBetAmount(uint256)":"6c188593","setOperator(address)":"b3ab15fb","setTreasuryFee(uint256)":"77e741c7","startNewRound(uint256,uint256)":"040ae259","transferOwnership(address)":"f2fde38b","treasuryAmount()":"368acb09","treasuryFee()":"cc32d176","unpause()":"3f4ba83a","userRounds(address,uint256)":"dd1f7596"}}}}}