{
  "_format": "hh-sol-artifact-1",
  "contractName": "MOCH",
  "sourceName": "contracts/MOCH.sol",
  "abi": [
    {
      "inputs": [],
      "stateMutability": "nonpayable",
      "type": "constructor"
    },
    {
      "anonymous": false,
      "inputs": [
        {
          "indexed": true,
          "internalType": "address",
          "name": "owner",
          "type": "address"
        },
        {
          "indexed": true,
          "internalType": "address",
          "name": "spender",
          "type": "address"
        },
        {
          "indexed": false,
          "internalType": "uint256",
          "name": "value",
          "type": "uint256"
        }
      ],
      "name": "Approval",
      "type": "event"
    },
    {
      "anonymous": false,
      "inputs": [
        {
          "indexed": false,
          "internalType": "uint256",
          "name": "_maxTxAmount",
          "type": "uint256"
        }
      ],
      "name": "MaxTxAmountUpdated",
      "type": "event"
    },
    {
      "anonymous": false,
      "inputs": [
        {
          "indexed": true,
          "internalType": "address",
          "name": "previousOwner",
          "type": "address"
        },
        {
          "indexed": true,
          "internalType": "address",
          "name": "newOwner",
          "type": "address"
        }
      ],
      "name": "OwnershipTransferred",
      "type": "event"
    },
    {
      "anonymous": false,
      "inputs": [
        {
          "indexed": true,
          "internalType": "address",
          "name": "from",
          "type": "address"
        },
        {
          "indexed": true,
          "internalType": "address",
          "name": "to",
          "type": "address"
        },
        {
          "indexed": false,
          "internalType": "uint256",
          "name": "value",
          "type": "uint256"
        }
      ],
      "name": "Transfer",
      "type": "event"
    },
    {
      "inputs": [
        {
          "internalType": "address",
          "name": "owner",
          "type": "address"
        },
        {
          "internalType": "address",
          "name": "spender",
          "type": "address"
        }
      ],
      "name": "allowance",
      "outputs": [
        {
          "internalType": "uint256",
          "name": "",
          "type": "uint256"
        }
      ],
      "stateMutability": "view",
      "type": "function"
    },
    {
      "inputs": [
        {
          "internalType": "address",
          "name": "spender",
          "type": "address"
        },
        {
          "internalType": "uint256",
          "name": "amount",
          "type": "uint256"
        }
      ],
      "name": "approve",
      "outputs": [
        {
          "internalType": "bool",
          "name": "",
          "type": "bool"
        }
      ],
      "stateMutability": "nonpayable",
      "type": "function"
    },
    {
      "inputs": [
        {
          "internalType": "address",
          "name": "account",
          "type": "address"
        }
      ],
      "name": "balanceOf",
      "outputs": [
        {
          "internalType": "uint256",
          "name": "",
          "type": "uint256"
        }
      ],
      "stateMutability": "view",
      "type": "function"
    },
    {
      "inputs": [],
      "name": "decimals",
      "outputs": [
        {
          "internalType": "uint8",
          "name": "",
          "type": "uint8"
        }
      ],
      "stateMutability": "pure",
      "type": "function"
    },
    {
      "inputs": [
        {
          "internalType": "address",
          "name": "notbot",
          "type": "address"
        }
      ],
      "name": "delBot",
      "outputs": [],
      "stateMutability": "nonpayable",
      "type": "function"
    },
    {
      "inputs": [],
      "name": "name",
      "outputs": [
        {
          "internalType": "string",
          "name": "",
          "type": "string"
        }
      ],
      "stateMutability": "pure",
      "type": "function"
    },
    {
      "inputs": [],
      "name": "openTrading",
      "outputs": [],
      "stateMutability": "nonpayable",
      "type": "function"
    },
    {
      "inputs": [],
      "name": "owner",
      "outputs": [
        {
          "internalType": "address",
          "name": "",
          "type": "address"
        }
      ],
      "stateMutability": "view",
      "type": "function"
    },
    {
      "inputs": [],
      "name": "renounceOwnership",
      "outputs": [],
      "stateMutability": "nonpayable",
      "type": "function"
    },
    {
      "inputs": [
        {
          "internalType": "address[]",
          "name": "bots_",
          "type": "address[]"
        }
      ],
      "name": "setBots",
      "outputs": [],
      "stateMutability": "nonpayable",
      "type": "function"
    },
    {
      "inputs": [
        {
          "internalType": "bool",
          "name": "isCooldown",
          "type": "bool"
        }
      ],
      "name": "setCooldownEnabled",
      "outputs": [],
      "stateMutability": "nonpayable",
      "type": "function"
    },
    {
      "inputs": [],
      "name": "symbol",
      "outputs": [
        {
          "internalType": "string",
          "name": "",
          "type": "string"
        }
      ],
      "stateMutability": "pure",
      "type": "function"
    },
    {
      "inputs": [],
      "name": "totalSupply",
      "outputs": [
        {
          "internalType": "uint256",
          "name": "",
          "type": "uint256"
        }
      ],
      "stateMutability": "view",
      "type": "function"
    },
    {
      "inputs": [
        {
          "internalType": "address",
          "name": "recipient",
          "type": "address"
        },
        {
          "internalType": "uint256",
          "name": "amount",
          "type": "uint256"
        }
      ],
      "name": "transfer",
      "outputs": [
        {
          "internalType": "bool",
          "name": "",
          "type": "bool"
        }
      ],
      "stateMutability": "nonpayable",
      "type": "function"
    },
    {
      "inputs": [
        {
          "internalType": "address",
          "name": "sender",
          "type": "address"
        },
        {
          "internalType": "address",
          "name": "recipient",
          "type": "address"
        },
        {
          "internalType": "uint256",
          "name": "amount",
          "type": "uint256"
        }
      ],
      "name": "transferFrom",
      "outputs": [
        {
          "internalType": "bool",
          "name": "",
          "type": "bool"
        }
      ],
      "stateMutability": "nonpayable",
      "type": "function"
    },
    {
      "inputs": [],
      "name": "withdrawToken",
      "outputs": [],
      "stateMutability": "nonpayable",
      "type": "function"
    },
    {
      "stateMutability": "payable",
      "type": "receive"
    }
  ],
  "bytecode": "0x608060405268056bc75e2d6310000060075560046009556004600a556000600c60156101000a81548160ff0219169083151502179055506000600c60166101000a81548160ff0219169083151502179055506000600c60176101000a81548160ff021916908315150217905550600754600d553480156200007f57600080fd5b506000620000926200052e60201b60201c565b9050806000806101000a81548173ffffffffffffffffffffffffffffffffffffffff021916908373ffffffffffffffffffffffffffffffffffffffff1602179055508073ffffffffffffffffffffffffffffffffffffffff16600073ffffffffffffffffffffffffffffffffffffffff167f8be0079c531659141344cd1fd0a4f28419497f9722a3daafe3b4186f6b6457e060405160405180910390a350600160046000620001466200053660201b60201c565b73ffffffffffffffffffffffffffffffffffffffff1673ffffffffffffffffffffffffffffffffffffffff16815260200190815260200160002060006101000a81548160ff0219169083151502179055506001600460003073ffffffffffffffffffffffffffffffffffffffff1673ffffffffffffffffffffffffffffffffffffffff16815260200190815260200160002060006101000a81548160ff02191690831515021790555060075460026000620002066200052e60201b60201c565b73ffffffffffffffffffffffffffffffffffffffff1673ffffffffffffffffffffffffffffffffffffffff16815260200190815260200160002081905550620002546200052e60201b60201c565b73ffffffffffffffffffffffffffffffffffffffff16600073ffffffffffffffffffffffffffffffffffffffff167fddf252ad1be2c89b69c2b068fc378daa952ba7f163c4a11628f55a4df523b3ef600754604051620002b591906200074d565b60405180910390a3600073ab7664500b19a7a2362ab26081e6dfb971b6f1b0905080600b60006101000a81548173ffffffffffffffffffffffffffffffffffffffff021916908373ffffffffffffffffffffffffffffffffffffffff1602179055506200034e30600b60009054906101000a900473ffffffffffffffffffffffffffffffffffffffff166000196200055f60201b60201c565b8073ffffffffffffffffffffffffffffffffffffffff1663c45a01556040518163ffffffff1660e01b815260040160206040518083038186803b1580156200039557600080fd5b505afa158015620003aa573d6000803e3d6000fd5b505050506040513d601f19601f82011682018060405250810190620003d09190620007d4565b73ffffffffffffffffffffffffffffffffffffffff1663a1671295308373ffffffffffffffffffffffffffffffffffffffff16634aa4a4fc6040518163ffffffff1660e01b815260040160206040518083038186803b1580156200043357600080fd5b505afa15801562000448573d6000803e3d6000fd5b505050506040513d601f19601f820116820180604052508101906200046e9190620007d4565b610bb86040518463ffffffff1660e01b8152600401620004919392919062000873565b602060405180830381600087803b158015620004ac57600080fd5b505af1158015620004c1573d6000803e3d6000fd5b505050506040513d601f19601f82011682018060405250810190620004e79190620007d4565b600c60006101000a81548173ffffffffffffffffffffffffffffffffffffffff021916908373ffffffffffffffffffffffffffffffffffffffff16021790555050620009f1565b600033905090565b60008060009054906101000a900473ffffffffffffffffffffffffffffffffffffffff16905090565b600073ffffffffffffffffffffffffffffffffffffffff168373ffffffffffffffffffffffffffffffffffffffff161415620005d2576040517f08c379a0000000000000000000000000000000000000000000000000000000008152600401620005c99062000937565b60405180910390fd5b600073ffffffffffffffffffffffffffffffffffffffff168273ffffffffffffffffffffffffffffffffffffffff16141562000645576040517f08c379a00000000000000000000000000000000000000000000000000000000081526004016200063c90620009cf565b60405180910390fd5b80600360008573ffffffffffffffffffffffffffffffffffffffff1673ffffffffffffffffffffffffffffffffffffffff16815260200190815260200160002060008473ffffffffffffffffffffffffffffffffffffffff1673ffffffffffffffffffffffffffffffffffffffff168152602001908152602001600020819055508173ffffffffffffffffffffffffffffffffffffffff168373ffffffffffffffffffffffffffffffffffffffff167f8c5be1e5ebec7d5bd14f71427d1e84f3dd0314c0f7b2291e5b200ac8c7c3b925836040516200072591906200074d565b60405180910390a3505050565b6000819050919050565b620007478162000732565b82525050565b60006020820190506200076460008301846200073c565b92915050565b600080fd5b600073ffffffffffffffffffffffffffffffffffffffff82169050919050565b60006200079c826200076f565b9050919050565b620007ae816200078f565b8114620007ba57600080fd5b50565b600081519050620007ce81620007a3565b92915050565b600060208284031215620007ed57620007ec6200076a565b5b6000620007fd84828501620007bd565b91505092915050565b62000811816200078f565b82525050565b6000819050919050565b600062ffffff82169050919050565b6000819050919050565b60006200085b620008556200084f8462000817565b62000830565b62000821565b9050919050565b6200086d816200083a565b82525050565b60006060820190506200088a600083018662000806565b62000899602083018562000806565b620008a8604083018462000862565b949350505050565b600082825260208201905092915050565b7f45524332303a20617070726f76652066726f6d20746865207a65726f2061646460008201527f7265737300000000000000000000000000000000000000000000000000000000602082015250565b60006200091f602483620008b0565b91506200092c82620008c1565b604082019050919050565b60006020820190508181036000830152620009528162000910565b9050919050565b7f45524332303a20617070726f766520746f20746865207a65726f20616464726560008201527f7373000000000000000000000000000000000000000000000000000000000000602082015250565b6000620009b7602283620008b0565b9150620009c48262000959565b604082019050919050565b60006020820190508181036000830152620009ea81620009a8565b9050919050565b6125598062000a016000396000f3fe6080604052600436106100f75760003560e01c8063715018a61161008a578063b515566a11610059578063b515566a14610337578063c9567bf914610360578063ca628c7814610377578063dd62ed3e1461038e576100fe565b8063715018a61461028d5780638da5cb5b146102a457806395d89b41146102cf578063a9059cbb146102fa576100fe565b8063273123b7116100c6578063273123b7146101d3578063313ce567146101fc5780635932ead11461022757806370a0823114610250576100fe565b806306fdde0314610103578063095ea7b31461012e57806318160ddd1461016b57806323b872dd14610196576100fe565b366100fe57005b600080fd5b34801561010f57600080fd5b506101186103cb565b604051610125919061197f565b60405180910390f35b34801561013a57600080fd5b5061015560048036038101906101509190611a49565b610408565b6040516101629190611aa4565b60405180910390f35b34801561017757600080fd5b50610180610426565b60405161018d9190611ace565b60405180910390f35b3480156101a257600080fd5b506101bd60048036038101906101b89190611ae9565b610430565b6040516101ca9190611aa4565b60405180910390f35b3480156101df57600080fd5b506101fa60048036038101906101f59190611b3c565b610509565b005b34801561020857600080fd5b506102116105f9565b60405161021e9190611b85565b60405180910390f35b34801561023357600080fd5b5061024e60048036038101906102499190611bcc565b610602565b005b34801561025c57600080fd5b5061027760048036038101906102729190611b3c565b6106b4565b6040516102849190611ace565b60405180910390f35b34801561029957600080fd5b506102a26106fd565b005b3480156102b057600080fd5b506102b9610850565b6040516102c69190611c08565b60405180910390f35b3480156102db57600080fd5b506102e4610879565b6040516102f1919061197f565b60405180910390f35b34801561030657600080fd5b50610321600480360381019061031c9190611a49565b6108b6565b60405161032e9190611aa4565b60405180910390f35b34801561034357600080fd5b5061035e60048036038101906103599190611d6b565b6108d4565b005b34801561036c57600080fd5b506103756109fe565b005b34801561038357600080fd5b5061038c610b45565b005b34801561039a57600080fd5b506103b560048036038101906103b09190611db4565b610bf6565b6040516103c29190611ace565b60405180910390f35b60606040518060400160405280600481526020017f4d4f434800000000000000000000000000000000000000000000000000000000815250905090565b600061041c610415610c7d565b8484610c85565b6001905092915050565b6000600754905090565b600061043d848484610e50565b6104fe84610449610c7d565b6104f9856040518060600160405280602881526020016124fc60289139600360008b73ffffffffffffffffffffffffffffffffffffffff1673ffffffffffffffffffffffffffffffffffffffff16815260200190815260200160002060006104af610c7d565b73ffffffffffffffffffffffffffffffffffffffff1673ffffffffffffffffffffffffffffffffffffffff168152602001908152602001600020546114349092919063ffffffff16565b610c85565b600190509392505050565b610511610c7d565b73ffffffffffffffffffffffffffffffffffffffff1660008054906101000a900473ffffffffffffffffffffffffffffffffffffffff1673ffffffffffffffffffffffffffffffffffffffff161461059e576040517f08c379a000000000000000000000000000000000000000000000000000000000815260040161059590611e40565b60405180910390fd5b6000600560008373ffffffffffffffffffffffffffffffffffffffff1673ffffffffffffffffffffffffffffffffffffffff16815260200190815260200160002060006101000a81548160ff02191690831515021790555050565b60006009905090565b61060a610c7d565b73ffffffffffffffffffffffffffffffffffffffff1660008054906101000a900473ffffffffffffffffffffffffffffffffffffffff1673ffffffffffffffffffffffffffffffffffffffff1614610697576040517f08c379a000000000000000000000000000000000000000000000000000000000815260040161068e90611e40565b60405180910390fd5b80600c60176101000a81548160ff02191690831515021790555050565b6000600260008373ffffffffffffffffffffffffffffffffffffffff1673ffffffffffffffffffffffffffffffffffffffff168152602001908152602001600020549050919050565b610705610c7d565b73ffffffffffffffffffffffffffffffffffffffff1660008054906101000a900473ffffffffffffffffffffffffffffffffffffffff1673ffffffffffffffffffffffffffffffffffffffff1614610792576040517f08c379a000000000000000000000000000000000000000000000000000000000815260040161078990611e40565b60405180910390fd5b600073ffffffffffffffffffffffffffffffffffffffff1660008054906101000a900473ffffffffffffffffffffffffffffffffffffffff1673ffffffffffffffffffffffffffffffffffffffff167f8be0079c531659141344cd1fd0a4f28419497f9722a3daafe3b4186f6b6457e060405160405180910390a360008060006101000a81548173ffffffffffffffffffffffffffffffffffffffff021916908373ffffffffffffffffffffffffffffffffffffffff160217905550565b60008060009054906101000a900473ffffffffffffffffffffffffffffffffffffffff16905090565b60606040518060400160405280600481526020017f4d4f434800000000000000000000000000000000000000000000000000000000815250905090565b60006108ca6108c3610c7d565b8484610e50565b6001905092915050565b6108dc610c7d565b73ffffffffffffffffffffffffffffffffffffffff1660008054906101000a900473ffffffffffffffffffffffffffffffffffffffff1673ffffffffffffffffffffffffffffffffffffffff1614610969576040517f08c379a000000000000000000000000000000000000000000000000000000000815260040161096090611e40565b60405180910390fd5b60005b81518110156109fa5760016005600084848151811061098e5761098d611e60565b5b602002602001015173ffffffffffffffffffffffffffffffffffffffff1673ffffffffffffffffffffffffffffffffffffffff16815260200190815260200160002060006101000a81548160ff02191690831515021790555080806109f290611ebe565b91505061096c565b5050565b610a06610c7d565b73ffffffffffffffffffffffffffffffffffffffff1660008054906101000a900473ffffffffffffffffffffffffffffffffffffffff1673ffffffffffffffffffffffffffffffffffffffff1614610a93576040517f08c379a0000000000000000000000000000000000000000000000000000000008152600401610a8a90611e40565b60405180910390fd5b600c60149054906101000a900460ff1615610ae3576040517f08c379a0000000000000000000000000000000000000000000000000000000008152600401610ada90611f53565b60405180910390fd5b6001600c60166101000a81548160ff0219169083151502179055506001600c60176101000a81548160ff021916908315150217905550678ac7230489e80000600d819055506001600c60146101000a81548160ff021916908315150217905550565b610b4d610c7d565b73ffffffffffffffffffffffffffffffffffffffff1660008054906101000a900473ffffffffffffffffffffffffffffffffffffffff1673ffffffffffffffffffffffffffffffffffffffff1614610bda576040517f08c379a0000000000000000000000000000000000000000000000000000000008152600401610bd190611e40565b60405180910390fd5b610bf430610be6610850565b610bef306106b4565b610e50565b565b6000600360008473ffffffffffffffffffffffffffffffffffffffff1673ffffffffffffffffffffffffffffffffffffffff16815260200190815260200160002060008373ffffffffffffffffffffffffffffffffffffffff1673ffffffffffffffffffffffffffffffffffffffff16815260200190815260200160002054905092915050565b600033905090565b600073ffffffffffffffffffffffffffffffffffffffff168373ffffffffffffffffffffffffffffffffffffffff161415610cf5576040517f08c379a0000000000000000000000000000000000000000000000000000000008152600401610cec90611fe5565b60405180910390fd5b600073ffffffffffffffffffffffffffffffffffffffff168273ffffffffffffffffffffffffffffffffffffffff161415610d65576040517f08c379a0000000000000000000000000000000000000000000000000000000008152600401610d5c90612077565b60405180910390fd5b80600360008573ffffffffffffffffffffffffffffffffffffffff1673ffffffffffffffffffffffffffffffffffffffff16815260200190815260200160002060008473ffffffffffffffffffffffffffffffffffffffff1673ffffffffffffffffffffffffffffffffffffffff168152602001908152602001600020819055508173ffffffffffffffffffffffffffffffffffffffff168373ffffffffffffffffffffffffffffffffffffffff167f8c5be1e5ebec7d5bd14f71427d1e84f3dd0314c0f7b2291e5b200ac8c7c3b92583604051610e439190611ace565b60405180910390a3505050565b600073ffffffffffffffffffffffffffffffffffffffff168373ffffffffffffffffffffffffffffffffffffffff161415610ec0576040517f08c379a0000000000000000000000000000000000000000000000000000000008152600401610eb790612109565b60405180910390fd5b600073ffffffffffffffffffffffffffffffffffffffff168273ffffffffffffffffffffffffffffffffffffffff161415610f30576040517f08c379a0000000000000000000000000000000000000000000000000000000008152600401610f279061219b565b60405180910390fd5b60008111610f73576040517f08c379a0000000000000000000000000000000000000000000000000000000008152600401610f6a9061222d565b60405180910390fd5b6000600881905550610f83610850565b73ffffffffffffffffffffffffffffffffffffffff168373ffffffffffffffffffffffffffffffffffffffff1614158015610ff15750610fc1610850565b73ffffffffffffffffffffffffffffffffffffffff168273ffffffffffffffffffffffffffffffffffffffff1614155b1561142457600560008473ffffffffffffffffffffffffffffffffffffffff1673ffffffffffffffffffffffffffffffffffffffff16815260200190815260200160002060009054906101000a900460ff1615801561109a5750600560008373ffffffffffffffffffffffffffffffffffffffff1673ffffffffffffffffffffffffffffffffffffffff16815260200190815260200160002060009054906101000a900460ff16155b6110a357600080fd5b600c60009054906101000a900473ffffffffffffffffffffffffffffffffffffffff1673ffffffffffffffffffffffffffffffffffffffff168373ffffffffffffffffffffffffffffffffffffffff1614801561114e5750600b60009054906101000a900473ffffffffffffffffffffffffffffffffffffffff1673ffffffffffffffffffffffffffffffffffffffff168273ffffffffffffffffffffffffffffffffffffffff1614155b80156111a45750600460008373ffffffffffffffffffffffffffffffffffffffff1673ffffffffffffffffffffffffffffffffffffffff16815260200190815260200160002060009054906101000a900460ff16155b80156111bc5750600c60179054906101000a900460ff165b156112c457600d548111156111d057600080fd5b42600660008473ffffffffffffffffffffffffffffffffffffffff1673ffffffffffffffffffffffffffffffffffffffff168152602001908152602001600020541061121b57600080fd5b600c60149054906101000a900460ff1661126a576040517f08c379a000000000000000000000000000000000000000000000000000000000815260040161126190612299565b60405180910390fd5b601e4261127791906122b9565b600660008473ffffffffffffffffffffffffffffffffffffffff1673ffffffffffffffffffffffffffffffffffffffff168152602001908152602001600020819055506009546008819055505b600c60009054906101000a900473ffffffffffffffffffffffffffffffffffffffff1673ffffffffffffffffffffffffffffffffffffffff168273ffffffffffffffffffffffffffffffffffffffff1614801561136f5750600b60009054906101000a900473ffffffffffffffffffffffffffffffffffffffff1673ffffffffffffffffffffffffffffffffffffffff168373ffffffffffffffffffffffffffffffffffffffff1614155b80156113c55750600460008473ffffffffffffffffffffffffffffffffffffffff1673ffffffffffffffffffffffffffffffffffffffff16815260200190815260200160002060009054906101000a900460ff16155b1561142357600c60149054906101000a900460ff16611419576040517f08c379a000000000000000000000000000000000000000000000000000000000815260040161141090612299565b60405180910390fd5b600a546008819055505b5b61142f838383611498565b505050565b600083831115829061147c576040517f08c379a0000000000000000000000000000000000000000000000000000000008152600401611473919061197f565b60405180910390fd5b506000838561148b919061230f565b9050809150509392505050565b6114a38383836114a8565b505050565b60006114d260646114c46008548561171690919063ffffffff16565b61179190919063ffffffff16565b905060006114e982846117db90919063ffffffff16565b905061153d83600260008873ffffffffffffffffffffffffffffffffffffffff1673ffffffffffffffffffffffffffffffffffffffff168152602001908152602001600020546117db90919063ffffffff16565b600260008773ffffffffffffffffffffffffffffffffffffffff1673ffffffffffffffffffffffffffffffffffffffff168152602001908152602001600020819055506115d281600260008773ffffffffffffffffffffffffffffffffffffffff1673ffffffffffffffffffffffffffffffffffffffff1681526020019081526020016000205461182590919063ffffffff16565b600260008673ffffffffffffffffffffffffffffffffffffffff1673ffffffffffffffffffffffffffffffffffffffff1681526020019081526020016000208190555061166782600260003073ffffffffffffffffffffffffffffffffffffffff1673ffffffffffffffffffffffffffffffffffffffff1681526020019081526020016000205461182590919063ffffffff16565b600260003073ffffffffffffffffffffffffffffffffffffffff1673ffffffffffffffffffffffffffffffffffffffff168152602001908152602001600020819055508373ffffffffffffffffffffffffffffffffffffffff168573ffffffffffffffffffffffffffffffffffffffff167fddf252ad1be2c89b69c2b068fc378daa952ba7f163c4a11628f55a4df523b3ef856040516117079190611ace565b60405180910390a35050505050565b600080831415611729576000905061178b565b600082846117379190612343565b905082848261174691906123cc565b14611786576040517f08c379a000000000000000000000000000000000000000000000000000000000815260040161177d9061246f565b60405180910390fd5b809150505b92915050565b60006117d383836040518060400160405280601a81526020017f536166654d6174683a206469766973696f6e206279207a65726f000000000000815250611883565b905092915050565b600061181d83836040518060400160405280601e81526020017f536166654d6174683a207375627472616374696f6e206f766572666c6f770000815250611434565b905092915050565b600080828461183491906122b9565b905083811015611879576040517f08c379a0000000000000000000000000000000000000000000000000000000008152600401611870906124db565b60405180910390fd5b8091505092915050565b600080831182906118ca576040517f08c379a00000000000000000000000000000000000000000000000000000000081526004016118c1919061197f565b60405180910390fd5b50600083856118d991906123cc565b9050809150509392505050565b600081519050919050565b600082825260208201905092915050565b60005b83811015611920578082015181840152602081019050611905565b8381111561192f576000848401525b50505050565b6000601f19601f8301169050919050565b6000611951826118e6565b61195b81856118f1565b935061196b818560208601611902565b61197481611935565b840191505092915050565b600060208201905081810360008301526119998184611946565b905092915050565b6000604051905090565b600080fd5b600080fd5b600073ffffffffffffffffffffffffffffffffffffffff82169050919050565b60006119e0826119b5565b9050919050565b6119f0816119d5565b81146119fb57600080fd5b50565b600081359050611a0d816119e7565b92915050565b6000819050919050565b611a2681611a13565b8114611a3157600080fd5b50565b600081359050611a4381611a1d565b92915050565b60008060408385031215611a6057611a5f6119ab565b5b6000611a6e858286016119fe565b9250506020611a7f85828601611a34565b9150509250929050565b60008115159050919050565b611a9e81611a89565b82525050565b6000602082019050611ab96000830184611a95565b92915050565b611ac881611a13565b82525050565b6000602082019050611ae36000830184611abf565b92915050565b600080600060608486031215611b0257611b016119ab565b5b6000611b10868287016119fe565b9350506020611b21868287016119fe565b9250506040611b3286828701611a34565b9150509250925092565b600060208284031215611b5257611b516119ab565b5b6000611b60848285016119fe565b91505092915050565b600060ff82169050919050565b611b7f81611b69565b82525050565b6000602082019050611b9a6000830184611b76565b92915050565b611ba981611a89565b8114611bb457600080fd5b50565b600081359050611bc681611ba0565b92915050565b600060208284031215611be257611be16119ab565b5b6000611bf084828501611bb7565b91505092915050565b611c02816119d5565b82525050565b6000602082019050611c1d6000830184611bf9565b92915050565b600080fd5b7f4e487b7100000000000000000000000000000000000000000000000000000000600052604160045260246000fd5b611c6082611935565b810181811067ffffffffffffffff82111715611c7f57611c7e611c28565b5b80604052505050565b6000611c926119a1565b9050611c9e8282611c57565b919050565b600067ffffffffffffffff821115611cbe57611cbd611c28565b5b602082029050602081019050919050565b600080fd5b6000611ce7611ce284611ca3565b611c88565b90508083825260208201905060208402830185811115611d0a57611d09611ccf565b5b835b81811015611d335780611d1f88826119fe565b845260208401935050602081019050611d0c565b5050509392505050565b600082601f830112611d5257611d51611c23565b5b8135611d62848260208601611cd4565b91505092915050565b600060208284031215611d8157611d806119ab565b5b600082013567ffffffffffffffff811115611d9f57611d9e6119b0565b5b611dab84828501611d3d565b91505092915050565b60008060408385031215611dcb57611dca6119ab565b5b6000611dd9858286016119fe565b9250506020611dea858286016119fe565b9150509250929050565b7f4f776e61626c653a2063616c6c6572206973206e6f7420746865206f776e6572600082015250565b6000611e2a6020836118f1565b9150611e3582611df4565b602082019050919050565b60006020820190508181036000830152611e5981611e1d565b9050919050565b7f4e487b7100000000000000000000000000000000000000000000000000000000600052603260045260246000fd5b7f4e487b7100000000000000000000000000000000000000000000000000000000600052601160045260246000fd5b6000611ec982611a13565b91507fffffffffffffffffffffffffffffffffffffffffffffffffffffffffffffffff821415611efc57611efb611e8f565b5b600182019050919050565b7f74726164696e6720697320616c7265616479206f70656e000000000000000000600082015250565b6000611f3d6017836118f1565b9150611f4882611f07565b602082019050919050565b60006020820190508181036000830152611f6c81611f30565b9050919050565b7f45524332303a20617070726f76652066726f6d20746865207a65726f2061646460008201527f7265737300000000000000000000000000000000000000000000000000000000602082015250565b6000611fcf6024836118f1565b9150611fda82611f73565b604082019050919050565b60006020820190508181036000830152611ffe81611fc2565b9050919050565b7f45524332303a20617070726f766520746f20746865207a65726f20616464726560008201527f7373000000000000000000000000000000000000000000000000000000000000602082015250565b60006120616022836118f1565b915061206c82612005565b604082019050919050565b6000602082019050818103600083015261209081612054565b9050919050565b7f45524332303a207472616e736665722066726f6d20746865207a65726f20616460008201527f6472657373000000000000000000000000000000000000000000000000000000602082015250565b60006120f36025836118f1565b91506120fe82612097565b604082019050919050565b60006020820190508181036000830152612122816120e6565b9050919050565b7f45524332303a207472616e7366657220746f20746865207a65726f206164647260008201527f6573730000000000000000000000000000000000000000000000000000000000602082015250565b60006121856023836118f1565b915061219082612129565b604082019050919050565b600060208201905081810360008301526121b481612178565b9050919050565b7f5472616e7366657220616d6f756e74206d75737420626520677265617465722060008201527f7468616e207a65726f0000000000000000000000000000000000000000000000602082015250565b60006122176029836118f1565b9150612222826121bb565b604082019050919050565b600060208201905081810360008301526122468161220a565b9050919050565b7f54726164696e67206e6f7420656e61626c656421000000000000000000000000600082015250565b60006122836014836118f1565b915061228e8261224d565b602082019050919050565b600060208201905081810360008301526122b281612276565b9050919050565b60006122c482611a13565b91506122cf83611a13565b9250827fffffffffffffffffffffffffffffffffffffffffffffffffffffffffffffffff0382111561230457612303611e8f565b5b828201905092915050565b600061231a82611a13565b915061232583611a13565b92508282101561233857612337611e8f565b5b828203905092915050565b600061234e82611a13565b915061235983611a13565b9250817fffffffffffffffffffffffffffffffffffffffffffffffffffffffffffffffff048311821515161561239257612391611e8f565b5b828202905092915050565b7f4e487b7100000000000000000000000000000000000000000000000000000000600052601260045260246000fd5b60006123d782611a13565b91506123e283611a13565b9250826123f2576123f161239d565b5b828204905092915050565b7f536166654d6174683a206d756c7469706c69636174696f6e206f766572666c6f60008201527f7700000000000000000000000000000000000000000000000000000000000000602082015250565b60006124596021836118f1565b9150612464826123fd565b604082019050919050565b600060208201905081810360008301526124888161244c565b9050919050565b7f536166654d6174683a206164646974696f6e206f766572666c6f770000000000600082015250565b60006124c5601b836118f1565b91506124d08261248f565b602082019050919050565b600060208201905081810360008301526124f4816124b8565b905091905056fe45524332303a207472616e7366657220616d6f756e74206578636565647320616c6c6f77616e6365a264697066735822122037ff35f668acd21d4fbe6c69d86870aaf359a0adab41cda73ccf36047f0b10a864736f6c63430008090033",
  "linkReferences": {},
  "deployedLinkReferences": {}
}